:020000041000EA
:10000000002008205D0100101B0100101D010010E0
:100010001101001011010010110100101101001058
:100020001901001019010010190100101F01001022
:10003000110100101901001021010010230100100E
:100040001101001011010010110100101101001028
:100050001101001011010010110100101101001018
:100060001101001011010010110100101101001008
:1000700011010010110100101101001011010010F8
:1000800011010010110100101101001011010010E8
:1000900011010010110100101101001011010010D8
:1000A00011010010110100101101001011010010C8
:1000B00011010010110100101101001011010010B8
:1000C00011010010110100101101001011010010A8
:1000D0001101001011010010110100101101001098
:1000E0001101001011010010110100101101001088
:1000F0001101001011010010110100101101001078
:100100001101001011010010110100101101001067
:10011000EFF30580103800BE00BE00BE00BE00BE7A
:1001200000BE00BEF2EB8871809F0010A09F0010FF
:10013000A001001090A31AE7D3DEFFFF42012110B7
:10014000FF01000038B20000793512AB4FF000001B
:100150001E49086006C881F3088810474FF05040D8
:10016000006810B14FF00000F2E70DA40ECC00299A
:1001700002D000F012F8F9E71549164A002000E015
:1001800001C19142FCD11449884714498847144958
:10019000884700BEFDE701C901C29A42FBD3704700
:1001A000A09F001010010020E014002070B3001088
:1001B000000008200000082070B300100010082084
:1001C00000100820000000007047000008ED00E06B
:1001D000E0140020C8220020094B00103512001046
:1001E000C94A0010F8B500BF064B0749C91A891063
:1001F00048BF0131491003D0044B0BB101481847E7
:10020000704700BFE0140020E01400200000000050
:1002100008B5054B1BB105490548AFF30080BDE8A3
:100220000840FFF7E1BF00BF000000004C220020A3
:10023000D887001082B08C46184B984214BF002318
:100240000123174A32F913308B4205D08DF807C0CD
:1002500000210DF107021CE00D238DF8073000216D
:100260000DF107020029F1D1836913F0200FFBD1B2
:10027000134613F8012B026001311A46F2E7836935
:1002800013F0200FFBD1134613F8012B026001314C
:100290001A460029F3D002B0704700BF0080074023
:1002A000A022002030B583B004460D46002319E09B
:1002B0008DF8071000200DF1070209E0A36913F083
:1002C000200FFBD1134613F8012B226001301A4690
:1002D0000028F3D02A4612F8013B0D2B14BF00234F
:1002E00001231546297829B1002BE1D12046FFF7DB
:1002F000A1FFEFE703B030BD82B000210DF107028E
:100300000AE0836913F0100FFBD1D0F800C0134648
:1003100003F801CB01311A460029F2D09DF80700FD
:1003200002B07047084B1B6803F47043074A136020
:10033000074B04221A60044B1B6813F4807FFAD029
:10034000014B586880B2704700000A4000100A4014
:1003500000200A40074B1B7823B1074B1B7833B9A9
:100360001A4600E01A460F2342EC40307047012243
:10037000F9E700BF20120020BD22002048400023E2
:1003800005E012F803C08CEA00000133DBB28B42B7
:10039000F7D3704710B491F800C0BCF1030F34D00C
:1003A0000ED8BCF1010F20D0BCF1020F26D0BCF159
:1003B000000F03D1A52814D000201BE0002019E075
:1003C000BCF1040F37D0BCF1050F08D100230B702E
:1003D000039B1B78834214BF002001200AE0002009
:1003E00008E001230B70604604E05A2804D0002383
:1003F0000B70002010BC70470223F9E71070039BBC
:10040000187003230B700020F4E718700022029C80
:100410002270039A12784240039802701B78A02B36
:1004200002D900200870E5E71BB905230B700020F6
:10043000E0E70423FAE7029A1278019CA054039A99
:100440001278424003980270029A12780132D2B2B6
:10045000029802701B789A4203D305230B70002088
:10046000C8E70020C6E710B504461F2101F0F6FCDE
:1004700000221146204601F00DFD0021204601F02A
:1004800021FD10BDF0B583B007460D46084608F0C3
:1004900019F90446A02800D9A024E6B22A4631461C
:1004A0003846FFF76BFF8446A5238DF807300021FF
:1004B0000DF107020BE03D4B9B6913F0200FFAD1C1
:1004C000134613F8010B394A106001311A4600290E
:1004D000F1D05A238DF8073000210DF107020BE00F
:1004E000324B9B6913F0200FFAD1134613F8010B1E
:1004F0002E4A106001311A460029F1D08DF807709C
:1005000000210DF107020BE0284B9B6913F0200F2F
:10051000FAD1134613F8017B244A176001311A46B9
:100520000029F1D08DF8076000210DF107020BE0E2
:100530001E4B9B6913F0200FFAD1134613F8016B81
:100540001A4A166001311A460029F1D000270EE040
:10055000164B9B6913F0200FFAD1134613F8016B69
:10056000124A166001311A460029F1D00137BC4207
:1005700006D9EB5D8DF8073000210DF10702F3E796
:100580008DF807C000210DF107020BE0074B9B69B6
:1005900013F0200FFAD1134613F8010B034A106031
:1005A00001311A460029F1D003B0F0BD0000074028
:1005B00008B504497E20FFF765FF034804F016FCE8
:1005C00008BD00BFD8870010E087001000B585B0D7
:1005D000014600238DF80F30009301230DF10F0227
:1005E000034807F0EBFDC043C00F05B000BD00BFDE
:1005F000C412002070B50F4804F0F8FB0824002650
:1006000001E00134E4B2772C0BD82046FFF7DEFF7F
:1006100005460028F5D02146074804F017FC2E4671
:10062000EFE71EB1054804F0E1FB70BD044804F09B
:10063000DDFBF7E7008800101488001040880010E8
:100640002888001030B585B0D0238DF80F30B9B1AF
:1006500004460D46012300930DF10F0201460A489E
:1006600007F09CFD00280DDB0023009301232A46A0
:100670002146054807F0A2FDC043C00F05B030BDBC
:100680000846FBE70020F9E7C412002010B582B04D
:10069000762405E021460D4804F0D8FB0134E4B28D
:1006A000772C10D800238DF807300DF10701204674
:1006B000FFF7C8FF0028EDD09DF807202146044829
:1006C00004F0C4FBEAE702B010BD00BF748800105C
:1006D00050880010F0B583B005460E461746084610
:1006E00007F0F0FF044600230193024631462846F6
:1006F00007F05AFE88B928192B5D0BB918460DE092
:100700000A2201A9044607F0FFFD019B9C4207D085
:100710001B783BB93860012000E0002003B0F0BD39
:100720000020FBE70020F9E730B5ABB0054607F045
:10073000C9FF044602E01C4600E01C462CB1631EC3
:10074000EA5C0A2AF7D00D2AF7D0A02C00D9A02401
:100750002246294601A807F03FFF04F1A8030DEB4C
:100760000304002304F8A43C074B1B7833B101A910
:10077000064B1878FFF786FE2BB030BD294604489B
:10078000FFF790FDF8E700BFC3220020C42200203D
:100790000000074008B51A4B18801A4B1B781BB98C
:1007A000194A1288824209D93BB13230164B1B8854
:1007B000984202D2134B00221A7008BD134B01223B
:1007C0001A70134B188002F083FB99B14FF47A72C0
:1007D000002307F0BDFF0F4B18600A4B01221A706F
:1007E000FFF7B8FD084B1A88094B19880A4804F02E
:1007F0002DFBE2E7094BA3FB00308009EBE700BFCC
:10080000B8220020BE22002022120020BD2200209B
:10081000B6220020F41D002090880010D34D6210F5
:100820002DE9F04184B005460E461746984613B1AF
:100830000023C8F800300A9B13B100230A9A1370F2
:10084000762400E00134772C13DC21460B4801F0BC
:1008500017F90028F6D00A9B0293CDF80480009780
:1008600033462A462146054801F086F90028E9D09A
:1008700000E0002004B0BDE8F08100BFC4120020F9
:100880002DE9F04FA1B0404B169300231793189316
:1008900019931A93002215921492139212938DF8C1
:1008A00047300DF14703009312AB13AA14A915A802
:1008B000FFF7B6FF04469DF8473033BB1BA801F095
:1008C0005DFA48B384B301239A461C9B1C469DF8ED
:1008D00074301D469DF875301E469DF876301F46D3
:1008E000BDF8783098469DF87A3099469DF87B306F
:1008F000E3B1012293469DF87C20CAB101210E91FB
:10090000C3B1002A3DD10F9215E0129B1F4A14215A
:1009100016A804F0B1F8D1E724B101211C4804F075
:1009200095FA2BE02146F9E7A246CEE79B46E2E79F
:100930000E92E5E70F93139807F002FFCDE90C0143
:10094000149807F0FDFECDE90A01159807F0F8FEAE
:10095000CDE9080116AB07930F9B06930E9B0593F9
:10096000CDF810B0CDF80C90CDF808800197009626
:100970002B4622465146074804F068FA21B0BDE8EC
:10098000F08F01230F93D6E745525200B88800102C
:10099000C0880010E088001010B582B004464B49B2
:1009A00007F03CFD20B14A49204607F037FD18B951
:1009B000FFF7FEFD02B010BD4649204607F02EFDB0
:1009C00000B34549204607F029FDF0B143492046D0
:1009D00007F024FDE0B14249204607F01FFDE0B9D1
:1009E000404B1968404804F031FA404B19884048A0
:1009F00004F02CFA3F4B1B786BB101213E4804F008
:100A000025FAD7E7FFF7F6FDD4E7FFF73FFED1E77A
:100A1000FFF736FFCEE71946F0E701AA374920462F
:100A2000FFF758FE58B1019B632B01D86423019353
:100A300001992C4B19602C4804F008FABAE701AA76
:100A40002F492046FFF746FEB0B1019BB3F5805F0A
:100A500002D340F6FF730193BDF80410234B1980B5
:100A6000284B1B888B4234BF00230123264A137076
:100A70001F4804F0EBF99DE701AA24492046FFF73F
:100A800029FE60B92249204607F0C8FCC8B1237886
:100A9000002B8FD021461F4804F0D8F98AE7019B2C
:100AA000003B18BF0123134A14461370FFF752FC92
:100AB000237823B10121104804F0C8F97AE71946D8
:100AC000F9E7154804F092F974E700BF9089001027
:100AD000A0890010B0890010BC890010C8890010DE
:100AE000D889001024120020E4890010221200206E
:100AF000008A001020120020208A0010388A00107E
:100B00004C8A0010B8220020BE220020648A001007
:100B1000788A0010908A0010808A001038B50BE0A7
:100B2000104C236810480025C554FFF735FF256099
:100B300002E00C4B00221A60002004F02FF910F1A3
:100B4000020F0DD00D28F7D00A28E9D0054B1B68FD
:100B50002E2BEED8591C034A1160034AD054EBE700
:100B600038BD00BF981D0020681D002010B5044648
:100B70001021074801F054F900B910BD2246102198
:100B8000034801F058F90028F7D00120F5E700BF2D
:100B9000C41200202DE9F041BCB0554B1093002346
:100BA00011931293139300220F920E920D920C93B5
:100BB000ADF82E30FFF7B6FB04464FF000038DF87A
:100BC0002D30FFF7E7FD0DF12D0300930CAB0DAABF
:100BD0000EA90FA8FFF724FE05460DF12E00FFF722
:100BE000C5FF06469DF82D30002B32D1002D5FD079
:100BF000002E35D00F9807F0A3FD05460E460E983F
:100C000007F09EFD074688469DED0D7ADFED397AA7
:100C1000C7EE277A17EE900A07F092FDBDF82E3046
:100C2000354A127802B1012209920894079310AB59
:100C30000693CDE90401CDE90278CDE900562F4AAB
:100C4000A02114A803F018FF00284CDC3CB0BDE83C
:100C5000F0810C9B2A4A102110A803F00DFFC5E774
:100C60000F9807F06DFD05460E460E9807F068FDDB
:100C7000074688469DED0D7ADFED1E7AC7EE277A8E
:100C800017EE900A07F05CFD1B4B1B7803B10123A4
:100C90000893079410AB0693CDE90401CDE90278DF
:100CA000CDE90056174AA02114A803F0E5FECBE7D2
:100CB0006EB1BDF82E30104A127802B101220192B5
:100CC0000094114AA02114A803F0D6FEBCE70A4BF9
:100CD0001B7803B10123009323460C4AA02114A8DA
:100CE00003F0CAFEB0E714A8FFF71EFDAEE700BF91
:100CF000455252000000C842BD220020B88A0010B0
:100D0000B48A0010FC8A0010408B0010808B001009
:100D100030B5ABB00446954907F080FB002840D0C1
:100D20009349204607F07AFB00283FD0914920469E
:100D300007F074FB00284DD08F49204607F06EFB6A
:100D400000284AD08D49204607F068FB002800F0B3
:100D500096808B49204607F061FB002800F0A980AF
:100D60008849204607F05AFB002800F0D3808649C6
:100D7000204607F053FB002840F0DB80834B1B68C4
:100D8000834A12888349097801B1012101910092B7
:100D9000814A602112A803F06FFE12A8FFF7C4FC7D
:100DA00002E07E48FFF7C0FC2BB030BDFFF7BAFA77
:100DB0000446FFF7EFFC7A4B1B7803B10123009345
:100DC0002346784A602112A803F056FE12A8FFF7C6
:100DD000ABFCE9E7FFF7DEFEE6E7734B0D930E9001
:100DE0000F901090002209920A920B920C908DF8AD
:100DF00023000DF1230300930CAB0BAA0AA909A849
:100E0000FFF70EFD50B39DF8233003BB0DAB0693E7
:100E10009DED0B7ADFED657AC7EE277A17EE900A23
:100E200007F08EFCCDE904010A9807F089FCCDE9B2
:100E30000201099807F084FCCDE900015C4A6021B9
:100E400012A803F019FE12A8FFF76EFCACE70C9B8A
:100E5000584A10210DA803F00FFED7E70DF1480CFA
:100E6000DFF880E1BEE80F00ACE80F00BEE80F003D
:100E7000ACE80F00DEF80030CCF80030E3E7ADF866
:100E800034000DA8FFF772FE50B1BDF834304A4A65
:100E9000602112A803F0F0FD12A8FFF745FC83E7DC
:100EA000464A12AB07CA03C323F8022B120C1A706E
:100EB000F2E7FFF737FA0446394B1B78C3B91D46F2
:100EC0002046FFF767FC364B1B7803B10123304AFD
:100ED0001288039202953A4A128801920094394A84
:100EE000602112A803F0C8FD12A8FFF71DFC5BE704
:100EF00001F0EEFF49B14FF47A72002307F028FCAD
:100F0000314B1B68C31A1D46DAE7304BA3FB003098
:100F10008009F5E7224A1070294A10802A4A106099
:100F2000FFF718FA2A4803F061FF2A48FFF7FCFB95
:100F30003AE711AA28492046FFF7CCFB002853D0F6
:100F4000119B632B01D86423119311990F4B1C46FD
:100F50001960224803F07AFF2368214A602112A811
:100F600003F08AFD12A8FFF7DFFB1DE7788A001067
:100F7000C88B0010D48B0010E08B0010408C001048
:100F8000648C0010A88C0010D88900102412002056
:100F90002212002020120020D48C0010C08B0010E0
:100FA000BD2200206C8B0010455252000000C84248
:100FB000F48B0010B48A00104C8C0010588C001078
:100FC000B6220020708C0010F41D0020D34D62105A
:100FD000B48C0010C48C0010388A0010E489001012
:100FE000088D00101C8C001011AA2B492046FFF719
:100FF00071FBF8B1119BB3F5805F02D340F6FF732C
:101000001193BDF84410254C2180254B1B888B4241
:1010100034BF00230123234A1370234803F016FF33
:101020002388224A602112A803F026FD12A8FFF7A8
:101030007BFBB9E611AA1E492046FFF74BFB68B9B6
:101040002378002B3FF4B0AE23461A4A602112A841
:1010500003F012FD12A8FFF767FBA5E6119B003B0A
:1010600018BF0123144A14461370FFF773F923784D
:1010700083B10121114803F0E9FE0F4B1B7803B146
:1010800001230F4A602112A803F0F6FC12A8FFF713
:101090004BFB89E61946EDE74C8A0010221200202E
:1010A000B8220020BE220020008A00101C8D0010F3
:1010B000648A0010488D001020120020208A001041
:1010C000348D001030B59BB00446142859D00DD98A
:1010D000202867D029D815285DD0162872D102ABF8
:1010E000454A07CA83E807000B2031E0112833D0B6
:1010F0000DD8012825D0102864D1404A02AB07CA78
:1011000003C323F8022B120C1A700A2020E01228C5
:1011100029D0132856D13A4A02AB07CA03C323F891
:10112000022B120C1A700A2012E0212842D0222829
:1011300048D100911346334A602102A803F09CFC79
:1011400006E0314B93E8030002908DF80C10042068
:1011500000283FDC1BB030BD2C4A02AB07CA03C3DA
:101160001A700820F4E70DF1080CDFF8C4E0BEE8BF
:101170000F00ACE80F00DEF800308CF800301020D3
:10118000E6E7234A02AB07CA03C323F8022B120C7B
:101190001A700A20DCE702AB1E4A07CA83E8070080
:1011A0000B20D5E7009113461B4A602102A803F0EB
:1011B00063FCCDE700911346184A602102A803F0B2
:1011C0005BFCC5E72346164A602102A803F054FCE5
:1011D0001220BDE702AA2146124803F037FE012380
:1011E000114D2B7064F07F04104B1C7002A8FFF7A8
:1011F0008FFD00232B70ADE7D8890010C88B00103D
:10120000408C00108C8D0010788A0010D48B001058
:10121000648C0010A88C0010588D0010708D001088
:10122000A48D0010BC8D0010C3220020C422002019
:10123000E08B00102DE9F043D1B003F0ABFD4FF48B
:10124000FA6001F057FDA94803F0D0FD4FF4E131F9
:10125000A74801F0DBFE0221002000F0FFFD022183
:10126000012000F0FBFD06F0E3FD1A20FFF7FBF87C
:10127000A04B1B6803F470439F4A13609F49A0482A
:1012800006F062FF0321062000F0E8FD032107209D
:1012900000F0E4FD00220121062000F0FBFD002209
:1012A0000121072000F0F6FD0F2000F01FFE0F23A4
:1012B0004FF0010242EC4430FFF74CF800258DF866
:1012C000EF508DF8EE508DF8ED508DF84B508DF8B5
:1012D0004A502F462E46ACE00DF14A0302930DF121
:1012E0004B03019313AB00930DF1ED030DF1EE02EF
:1012F0000DF1EF01FFF74EF8D0B97D4B9C6914F06A
:10130000100431D17A48FEF7F7FF9DF8EF30002B3B
:10131000E2D1A528E0D00D28EFD00A2816D04E2D16
:1013200020D805F5A0736B4403F8500C0135E4E7B1
:101330009DF8ED2002F5A0736B44002103F8F41C26
:1013400013A99DF8EE00FFF7BDFED6E705F5A073E3
:101350000DEB0305002305F8503C3CA8FFF7D8FC33
:101360002546CAE72546C8E701F0B2FD002963D04B
:101370004FF47A72002307F0EBF90446E31B132BBA
:101380005FD8A31B5F4A126893424FD35E4A0D9207
:1013900000260E960F961096119609A8002303605A
:1013A0000AA90B600BAA13600CAB1E600DF1220999
:1013B000ADF822600DF121088DF82160CDF8008094
:1013C000FFF72EFA06464846FFF7D0FB81469DF808
:1013D0002130002B3BD1002E66D0B9F1000F3FD059
:1013E0004A4B1E884A4B1B78002B37D04FF0010820
:1013F000484BB3F80090BDF8223007930DAB06932D
:101400000B9807F09DF9CDE904010A9807F098F9C7
:10141000CDE90201099807F093F9CDE900014B46A7
:10142000424631463C4803F011FD2646012001F0BA
:1014300061FCFFF773FB60E7384BA3FB00308409C6
:101440009CE7FEF76FFFFFF7A5F9274699E70C9B8E
:10145000334A14210DA803F00FFBBCE79846C7E7F9
:101460002A4B1E882A4B1B78E3B14FF00108294B09
:10147000B3F800900DAB06930B9807F061F9CDE936
:1014800004010A9807F05CF9CDE90201099807F018
:1014900057F9CDE900014B4642463146214803F059
:1014A000D5FCC2E79846E2E7B9F1000F10D0174B20
:1014B0001988174B1B784BB10122BDF822300093DD
:1014C000144B1B88184803F0C1FCAEE71A46F4E73A
:1014D0000E4B19880E4B1B7833B101220D4B1B8824
:1014E000124803F0B3FCA0E71A46F7E7DC8D0010C2
:1014F0000000074000000A4000100A40A0860100DA
:10150000C41200202412002045525200B8220020AC
:10151000BD22002022120020F08D0010D34D621059
:10152000B88800104C8E0010A88E0010E08E0010BD
:1015300010B5C38A5B00C3EBE1014FEAE17CB0F96F
:101540001830DC1703FB0CFE01FB04EEA3FB013497
:10155000A644DB0A43EA4E53490841EACC7101FB39
:101560000CFEA1FB011C0CEB4E0C090B41EA0C51CB
:101570004FEA2C3C90F91A404FEA041EE4170EFB88
:101580000CFC01FB04CCAEFB01E18C444FEA9E3124
:1015900041EA8C410B44036303EB830380331B124A
:1015A00007EE903AF8EEE77ADFED036A87EEA67A67
:1015B00082ED007A10BD00BF0000C84210B5046B78
:1015C0006410A4F57A44A31003FB03F34FEAE32E5F
:1015D00090F926C00CFB0EFEB0F924C004FB0CFCF5
:1015E0004FEA4C0C0CEBAE0CB0F922E04FEA0E4E79
:1015F0000EEBAC0C5B1390F920E04FEA4E1E0EFB95
:1016000003FEB0F91E3004FB03F35B1003EBEE03A3
:101610009B1403F50043848B04FB03F3DB1335D0E9
:10162000C1F58011A1EB2C3140F6354404FB01F1EA
:10163000B1F1804F2DDB91FBF3F35B00B0F92AC0D1
:10164000D91001FB01F1491301FB0CFC9910B0F911
:10165000284004FB01F149131C1204FB04FE0EFB9D
:1016600004F490F82CE00EFB04F401EB2C3101EBB8
:10167000644190F9270001EBC01103EB211307EE41
:10168000903AF8EEE77AC2ED007A10BD00231360BD
:10169000FBE7490091FBF3F3D0E70000F0B5036BE3
:1016A00003EB830C0CF1800C4FEA2C2C0389A1EB8B
:1016B000031190F90C300CFB03F3DFF8BCE08EFB58
:1016C0000354DB17C3EB6413A1EB6301448990F966
:1016D0000D300CFB03F38EFB0365DB17C3EB6515C5
:1016E00090F90E300CFB03F38EFB0376DB17C3EB94
:1016F00066130CFB03F39E118EFB0676DB17C3EB20
:1017000066132B4403F5804303FB04F4A41204FB8B
:1017100001F1C47B90F910300CFB03F38EFB030E38
:10172000DB17C3EB6E1303EBC4131B11881300FB11
:1017300000F0801200FB03F301EB63039B124FF4F4
:101740007A7101FB03F30A48B0EB233F04DB191362
:10175000002902DA002100E0054907EE901AF8EEB0
:10176000E77ADFED046A87EEA67A82ED007AF0BDB3
:10177000A086010000007A441F85EB5108B590F95E
:101780002FC04FEAEC734FEA830E4EEA9C7E4FEA7D
:101790008C0010EB0C0043EB0E0340F23C5C10EBB2
:1017A0000C0043F10003DFF858C05CF821E0A0FB17
:1017B0000E0C0EFB03CC000C40EA0C404FEA2C4E02
:1017C000D20312F17F4263EB0303121843EB2C4365
:1017D000DFF830C05CF821C0ACFB00010CFB0E113F
:1017E000400A40EAC1504FEA520C4CEAC37C4FEA2F
:1017F000630E1CEB00004EEB612106F0B1FF08BD4B
:101800006C9800102C98001010B58446B1F5C87F74
:1018100001D94FF4C8719CF914E0214880FB0E23D4
:101820004FEAEE7ECEEB231E9CF9113003F5447394
:10183000BCF9122002F5163202F2991201FB02F2F3
:1018400080FB0241D217C2EBE10202F5481280FB95
:101850000210D217C2EBA00202FB03F303EBD37317
:10186000581000EB0E209CF82D30043390FBF3F061
:101870009CF92E3003EB831203EB420303F5803314
:1018800090FBF3F0FA3800EB001040003230054BCB
:1018900083FB0023C017C0EB6310C0B210BD00BFB4
:1018A000676666661F85EB51B0F57C6F0AD2002330
:1018B00002E080080133DBB23F28FAD800EB831046
:1018C000C0B27047FF20704700B585B08DF80C207E
:1018D0008DF80D3000230093022303AAC9B206F04D
:1018E0005DFCC043C00F05B000BD70B584B00646B6
:1018F0001D468DF80F20CCB2012300930DF10F028D
:10190000214606F04BFC00280CDB00230093089BCB
:101910002A462146304606F051FC002804DB01200F
:1019200004B070BD0020FBE70020F9E770B58EB071
:1019300005460E4614461723009303AB8A22FFF791
:10194000D4FF08B90EB070BD0E2300930DF1230330
:10195000E12231462846FFF7C8FF0028F2D00523D0
:1019600000930DF13103002231462846FFF7BDFFF9
:101970000028E7D09DF82C209DF82B3043EA022365
:10198000E3829DF80D209DF80C3043EA0223238367
:101990009DF90E30A3769DF811209DF8103043EA92
:1019A0000223A3839DF813209DF8123043EA0223FB
:1019B000E3839DF9143084F820309DF817209DF8BA
:1019C000163043EA022363849DF819209DF81830ED
:1019D00043EA0223A3849DF91B3084F826309DF945
:1019E0001A3084F827309DF81F209DF81E3043EAF6
:1019F000022323859DF821209DF8203043EA02230D
:101A000063859DF8223084F82C309DF825109DF8D0
:101A1000243003F00F0242EA011222819DF82320B4
:101A20001B0943EA021363819DF9263023739DF954
:101A3000273063739DF92830A3739DF82930E37331
:101A40009DF92A3023749DF92F3063749DF82E2060
:101A50009DF82D3043EA022363829DF930302375CF
:101A60009DF9313084F82E309DF83330C3F30113E3
:101A700084F82D309DF935301B1184F82F3061E743
:101A800030B591B005460C4600238DF83F30394BF8
:101A900093F800C0BCF1000F02D05B688B4210D0FD
:101AA000012300930DF13F03D02221462846FFF782
:101AB0001CFF844628B19DF83F30612B04D04FF0C5
:101AC000000C604611B030BD3422002102A806F09F
:101AD00027FC039402AA21462846FFF727FF8446E5
:101AE0000028EED00123722221462846FFF7ECFEA3
:101AF00084460028E5D00023752221462846FFF7BA
:101B0000E3FE84460028DCD01023712221462846BB
:101B1000FFF7DAFE84460028D3D04FF4A07102A864
:101B2000FFF772FE03465A2221462846FFF7CCFEF5
:101B300084460028C5D0C520FFF7B6FE03466422C0
:101B400021462846FFF7C0FE84460028B9D001236D
:101B50008DF80830074C0DF1080EBEE80F000FC4D9
:101B6000BEE80F000FC4BEE80F000FC4DEF800305F
:101B70002360A6E7FC1D00202DE9F04F89B00C463C
:101B800019469B4600238DF81F30002A00F0E6809E
:101B9000064692460B4689B1129B7BB1139B13B14B
:101BA0000023139A1360149B13B10023149A13702B
:101BB00021463046FFF764FF034618B9184609B0BE
:101BC000BDE8F08F2523742221463046FFF77CFEC6
:101BD00003460028F2D00025012001F08BF80123F4
:101BE00000930DF11F031D2221463046FFF77DFEB5
:101BF00003460028E2D001359DF91F30002B01DBA0
:101C0000F92DE9DD002B01DB0023D7E70D2300933D
:101C100004AB1F2221463046FFF767FE034600282B
:101C2000CCD09DF810209DF811301B0143EA0233FF
:101C30009DF8122043EA121302939DF813209DF899
:101C400014301B0143EA023E9DF815109DF8162042
:101C50009DF8173043EA022203929DF81B209DF85D
:101C60001C5045EA02239E0905F00F079DF81FC08E
:101C7000C5F34010C5F300139946394B4FF00108E6
:101C800083F800805C6083F808C05A729D729E8160
:101C90009F73D87383F81090324C52464EEA11115C
:101CA0002046FFF745FC129A02992046FFF786FC72
:101CB0005A4603992046FFF7F1FC05F03003302B1C
:101CC00030D0DAED007A9FED287AF4EEC77AF1EEA3
:101CD00010FA37DD9FED257AF4EEC77AF1EE10FAAF
:101CE00032D5129BD3ED007A9FED217AF4EEC77ABC
:101CF000F1EE10FA2ADD9FED1F7AF4EEC77AF1EECD
:101D000010FA25D5DBED007AF5EEC07AF1EE10FA87
:101D100020DB9FED197AF4EEC77AF1EE10FA1BD9A9
:101D200000234BE7139B33B1324639462046FFF779
:101D300025FD139B1860149B002BC2D00123149A1D
:101D40001370BEE7002339E7002337E7002335E7A8
:101D5000002333E7002331E701232FE713462DE764
:101D6000301E0020FC1D0020000020C20000AA42FE
:101D70000060EA460060EA470000C84210B570B152
:101D80008446084B1C7844B19E46BEE80F00ACE880
:101D90000F00DEF80030CCF80030204610BD0446BD
:101DA000FBE700BF301E002000B585B08DF80C2089
:101DB0008DF80D301B0A8DF80E300023009303239D
:101DC00003AAC9B206F0EAF905B000BD70B586B045
:101DD00005461E468DF80F20CCB2012300930DF16D
:101DE0000F02214606F0DAF9002813DB00230093E6
:101DF000022305AA2146284606F0E0F900280CDB5C
:101E00009DF814209DF8153042EA0322328000200C
:101E100006B070BD4FF0FF30FAE74FF0FF30F7E744
:101E200008B500231A46FFF7BFFF002801DB012099
:101E300008BD0020FCE710B582B014460DF1060382
:101E40000422FFF7C3FF002805DBBDF8063023801E
:101E5000012002B010BD0020FBE700000C4B03EB9B
:101E6000800253F8203083F0400303F0C00302F5F2
:101E7000805CCCF80030C00000F1804000F52030DC
:101E8000416002F540524FF480731360704700BF09
:101E90000480034000B5DFF828E00EEB800C69B148
:101EA000082302B1042213435EF82020534003F0BC
:101EB0000C030CF5805CCCF8003000BD0B46F0E75D
:101EC0000480034039B1084B03EB800303F5005352
:101ED00040221A607047044B03EB800303F5405324
:101EE00040221A60704700BF0480034008B54FF0DD
:101EF000000242EC440042EC40000521FFF7AEFF37
:101F000008BD00000FB400B583B0084802F06EFFB2
:101F1000049B3BB105A90191184602F077FF0448E4
:101F200002F064FF012002F0CDFD00BF188F001009
:101F3000C48B0010EFF3108072B6064BD3E8CF1FAE
:101F400001220029FAD1C3E8412F0029F6D1BFF3BD
:101F50005F8F70474F1900200023034AC2E88F3F6C
:101F600080F31088704700BF4F19002070B50546F8
:101F70000C461646FFF7DEFFE208A95C04F0070CEA
:101F8000012303FA0CF3194205D1DBB20B43AB5426
:101F9000FFF7E2FF70BD21463046FFF7B3FFF8B50B
:101FA00005460F4614461E46FFF7C4FF00E0013405
:101FB000B4420ED84FEAD40C15F80C1004F0070305
:101FC00001229A401142F2D1D2B20A4305F80C2004
:101FD00001E04FF0FF34FFF7BFFF002C01DB20468C
:101FE000F8BD002FFBD00698FFF78CFF054A10784C
:101FF000431CDBB21370172B02D9134610221A7040
:10200000704700BF2812002000B583B00146044B82
:1020100000931F2318220348FFF7C1FF03B000BD40
:10202000288F0010601D00204FF0E022936843F0DD
:102030000053936070470000002305E0044A1A44EF
:102040000021C2E88F1F01331F2BF7D9704700BF53
:1020500044190020064B9B68103043F82010BFF352
:102060005F8F00230349C1E88F3F82F310887047D8
:1020700000ED00E04D1900200048704700E400E04A
:1020800008B5FFF7F9FF002304E04FF0803240F875
:10209000042B01330C2BF8D962B608BD08B50388B0
:1020A000DA0A1C2A06D15B050BD45B15023300EB60
:1020B000430008BD064B074A4FF48E71064802F0F4
:1020C00007FD03F5FF1303F5FF531F33EDE700BFD3
:1020D000448F0010D49800105C8F001008B5091AC6
:1020E00001F2FC7240F6FE739A4208D8081F11F004
:1020F000010F04D1C0F34A0040F4604008BD034B17
:10210000034A4FF48771034802F0E2FCA08F0010ED
:10211000C89800105C8F00104209064B53F822202B
:1021200000F01F00012383401A4214BF0120002049
:10213000704700BF00E100E03AB1064B00F16002D9
:1021400043F8221043F8201070472030014B43F829
:102150002010704700E100E008B50A4600F01F03B8
:10216000012199404009FFF7E7FF08BD00F01F0279
:102170004009012393404030014A42F82030704723
:1021800000E100E0024B9B68103053F820007047DC
:1021900000ED00E008B5FFF7F5FF034BC01A2F284C
:1021A0008CBF0020012008BD2C12002070B5054610
:1021B0000C46EFF3108372B61E460F4BD3E8CF1FC9
:1021C00001220029FAD1C3E8412F0029F6D1BFF33B
:1021D0005F8FFFF7D7FF094B984201D0A04205D18E
:1021E000324621462846FFF735FF70BD044B054AAD
:1021F000ED21054802F06CFC4D1900201101001082
:10220000D08F0010FC9800105C8F00102DE9F04F6B
:1022100087B000911546EFF3108372B69B467C4B56
:10222000D3E8CF1F01220029FAD1C3E8412F0029AA
:10223000F6D1BFF35F8F774B93F90040002C44DB5E
:10224000804604EB4407744B03EB870797F90610AD
:10225000704A1170714A926800F1100152F8219091
:10226000A9EB03022F2A3ED96D4B994534D14FF487
:102270002143ADF80C304FEA440904EB4400664EAC
:1022800006EB800067490230FFF728FFADF80E002B
:102290004BF60153ADF81030FF238DF812308DF856
:1022A0001350009B0593A14406EB890306AA12E98B
:1022B000070083E8070047F001095A4649464046AF
:1022C000FFF7C8FE07B0BDE8F08F574B574A4FF4F1
:1022D000BE71574802F0FCFB564B544A40F2831142
:1022E000534802F0F5FB29F001029246D31A524AF4
:1022F000A2FB0312D20802EB4202B3EB820F0FD112
:1023000053460026DA79AA4212D993F90620002A08
:102310000DDB02EB42021E463F4B03EB8203F1E76B
:10232000464B424A4FF4CA71414802F0D1FB1E4667
:10233000A6B344F60103ADF80C304FF48F43ADF86B
:102340000E3096F906309A46002B1ADA4BF60150F9
:10235000ADF810008DF812A08DF81350009B059376
:102360003946301DFFF7BAFEB080B47104EB440467
:10237000294B03EB840306AA12E9070083E8070050
:102380009BE7301DFFF78AFE014604EB4402224B17
:1023900003EB8203181DFFF7A1FED9E74FF4214399
:1023A000ADF80C306300019304EB4406DFF868904D
:1023B00009EB86061B49B01CFFF790FEADF80E0036
:1023C0005146301DFFF78AFEADF810004AF6AA23E9
:1023D00052464946521A524153431B0D8DF8123052
:1023E0008DF8135000990591019B234409EB830953
:1023F00006AB13E9070089E8070044F60103AAF8D1
:1024000000304FF48F43AAF8023047F0010954E737
:102410004D190020BF2200202C12002000ED00E00A
:10242000110100105C12002008900010E4980010C8
:102430005C8F001030900010ABAAAAAA5890001030
:1024400038B540F00104344BE31A2F2B35D8EFF3A5
:102450000581C9B2002937D0EFF3108E72B62F4B29
:10246000D3E8CFCF0122BCF1000FF9D1C3E84C2F44
:10247000BCF1000FF4D1BFF35F8F4AF6AA230246E6
:10248000DFF894C06546521B524153431B0D4FFA6F
:1024900083FC234B9B6853F82130A3421BD00023BD
:1024A000032B32D803EB43011B4A02EB810292F962
:1024B0000620624520D00133F2E71A4B1A4A40F257
:1024C0007F211A4802F004FB194B174A40F282217F
:1024D000164802F0FDFA124B9B68164A43F8212079
:1024E000154B1A78827183F800C000230B4AC2E8AA
:1024F0008F3F8EF3108838BD074A02EB8101FF241D
:102500008C714BF601538B80EAE70C4B064A40F284
:102510009321064802F0DCFA2C1200204D1900200D
:1025200000ED00E0DC900010AC9800105C8F001013
:102530000491001011010010BF2200201091001022
:1025400000B583B00146064B0093052300220548E1
:10255000FFF725FD002801DBC0F1330003B000BD0B
:1025600018910010C5220020014B0B4403607047F6
:102570004419002010B50446FFF738FD01462046F7
:10258000FFF7F2FFFF232371BFF35F8F10BD10B57C
:102590000446FFF72BFD01462046FFF7E5FFFF232A
:1025A000237100236371BFF35F8F10BD10B50D4C15
:1025B00009E00D4B0D4A1A210D4802F089FA204618
:1025C000FFF7D8FF08340B4B9C4209D22368002B3D
:1025D000F5D0012BEDD12046FFF7D9FF0834F2E703
:1025E00010BD00BFD8140020349100103C99001099
:1025F00054910010E0140020024B0B440360BFF321
:102600005F8F70474419002010B504460120FFF782
:10261000FBFC01462046FFF7EFFF10BD0246EFF33B
:102620000583DBB2103B990804D0034803F0030391
:10263000136070470148F9E700800B4000000B4031
:1026400000B5D0F828C0A2EB0C0E0B1D50F82330BB
:10265000A3EB0C039E4506D3D0F820C001238B408A
:102660001CEA030F02D1043140F8212000BD41EAE9
:10267000004070470D4B1A68EFF3108172B6D2E834
:10268000CFCF0120BCF1000FF9D1C2E84C0FBCF153
:10269000000FF4D1BFF35F8F1A680023C2E88F3FA9
:1026A00081F3108840BF0020002170479422002051
:1026B0002DE9F04F85B003A8FFF7B0FF954B984286
:1026C00014BF00230123039901EB8303924A52F8BC
:1026D00023402378994206D1054601228A4000F51D
:1026E00041535A602CE18D4B8D4A92218D4802F066
:1026F000EFF9D4F8149006EB46074FEAC70A09EB46
:10270000C707D7F808B0D7F80C80284600F0B6FB0A
:10271000B0EB0B0061EB0803002BC0F21A81B8F19B
:10272000000F64DB3B691A4600937F4B9A4230D01E
:10273000798889B2B4F90800FFF799FF7969009B9D
:102740009847009001910099019A51EA02034ED0F6
:102750001346002A29DABBEB010268EB0308BA60D2
:10276000C7F80C8039F90A70002FC0F2F280D4F853
:1027700014E007EB47030EEBC3039968DB68511ABB
:1027800068EB0303002BC0F2E480A4462CF8087F1A
:1027900017E07A69136900921046984738B3009A97
:1027A0001368009353680193CDE7284600F066FB59
:1027B000009B1A18019B43EB0108D0E79C463EF9A9
:1027C0000B70002F0EDBBCF9003003EB43034FEA24
:1027D000C30B0EEBC3039868D968101A68EB0101AC
:1027E0000029EBDA29F80A70ACF80060B1E039F999
:1027F0000A3023812369EFF3108272B6D3E8CF0F3A
:1028000001210028FAD1C3E8401F0028F6D1BFF308
:102810005F8FB4F9023029F80A30668021690023FD
:10282000C1E88F3F82F3108893E02369EFF31082B1
:1028300072B6D3E8CF0F01210028FAD1C3E8401FB8
:102840000028F6D1BFF35F8FB4F804800FFA88F840
:102850004FF6FF73A38021690023C1E88F3F82F305
:1028600010881AE01F4630F90A60002E0FDBB7F916
:10287000003003EB43034FEAC30A00EBC30399683C
:10288000DA68BCEB01016EEB0202002AEADAA7F873
:10289000008030F9098020F80960B8F1000F5DDB95
:1028A000606908EB48034FEAC30900EBC303D3F8A0
:1028B00008C0D3F80CE004F10807B4F90860D4E7C5
:1028C0000023A37104F1080CB4F9083010E04FF0B4
:1028D000FF384FF0FF39C0E90289B4F90800984287
:1028E00005D0ACF80020B4F90800C8532381134682
:1028F000B3F1FF3F35D0616903EB4302D70001EB31
:10290000C20031F93220468816F4004FDFD18446E8
:10291000EDE700BF00800B406C220020E891001022
:102920006899001014920010B1260010284600F09B
:10293000A5FA3F1A66EB0106012F76F1000628DAA8
:10294000039A01239340EB63B4F90860002EBFF6AD
:10295000D0AEA38813F4004F3FF467AFA379002BE8
:10296000AED1B4F90830002B13DB626903EB4303EB
:1029700002EBC3039F68DE68B6F1FF3F08BFB7F103
:10298000FF3FD3D03A46334603992846FFF758FE17
:10299000CCE740BF05B0BDE8F08F00BFF8B50446F6
:1029A0000D4611460A4B984210D000262E440127AE
:1029B00007FA05F525623046FFF7F8FB3946304641
:1029C000FFF7CAFB04F501542560F8BD0426EDE7C6
:1029D00000800B40F8B504460E4617461D46C16000
:1029E000FFF704FB164B034423612770ABB26381EE
:1029F0004FF05042127862704FF6FF722281A2802F
:102A0000013B63804FF0000C08E00CF1FF300CEB51
:102A10004C0E636923F83E000CF1010CAC45F4D375
:102A2000084B9E4214BF0023012307EB8303064A91
:102A300042F82340054A39463046FFF7AFFFF8BD5C
:102A40004419002000800B406C220020B1260010A9
:102A500008B5054B1B690BB1034808BD034B044A7D
:102A60006521044802F034F87412002054920010DA
:102A70005099001014920010F8B504469E46006963
:102A8000EFF3108172B6D0E8CF6F0125002EFAD196
:102A9000C0E8465F002EF6D1BFF35F8FB4F9025055
:102AA000666905EB4500C70006EBC000002D03DB9F
:102AB00036F907C0A4F802C04FF0000C2369C3E840
:102AC0008FCF81F31088654533DB06990161079943
:102AD00041618260C0F80CE0418889B20131C1F3E4
:102AE0000E0101B9012141802846FFF7C0FD23698D
:102AF000EFF3108272B6D3E8CFCF0121BCF1000F03
:102B0000F9D1C3E84C1FBCF1000FF4D1BFF35F8FC4
:102B1000A388F353A58021690023C1E88F3F82F386
:102B20001088E368217801228A4003F501535A6036
:102B3000F8BD4FF0FF30FBE770B582B00646154692
:102B40001C469DF8203033B900F0C2F9854264EB91
:102B5000010100290ADB079B0193069B00932A468B
:102B600023463046FFF788FF02B070BD0020FBE728
:102B7000F0B585B007460E4615461C46FFF768FFC0
:102B80009DF828300293019400953A463346FFF7AA
:102B9000D3FF05B0F0BD03464089B0EB214F31DDD6
:102BA00010B50A14586902EB420200EBC2001A6920
:102BB000EFF3108C72B6D2E8CF4F5FF0010E002C0D
:102BC000F9D1C2E844EF002CF5D1BFF35F8F428802
:102BD00092B289B28A420FD0002019690022C1E85E
:102BE0008F2F8CF3108830B1DA681B78012199405F
:102BF00002F50153596010BD42F4004242800120A9
:102C00009871EAE70020704710B50446FFF720FFEF
:102C10002146FFF7C0FF10BD40787047F0B583B084
:102C2000EFF30583DBB2CBB904460D46861F41F1B5
:102C3000FF37B04271EB070301D20026374600F0A0
:102C400047F9301A67EB0103012873F1000308DA32
:102C50002046294600F04EF903B0F0BD1848FFF7B2
:102C600051F900230093174A30463946FFF780FF99
:102C7000002819DAECE7144B1A68EFF3108172B6EA
:102C8000D2E8CFCF0120BCF1000FF9D1C2E84C0F40
:102C9000BCF1000FF4D1BFF35F8F1A680023C2E8C4
:102CA0008F3F81F3108820BF084B5B6A9F42E2D8B8
:102CB000064A926AB242CBD29F42C9D1DBE700BF3B
:102CC00078920010752600109422002000000B401E
:102CD00038B505460C4600F0FBF8281844EB010116
:102CE000002902DBFFF79AFF38BD4FF0FF306FF08D
:102CF0000041F7E708B5C30E4101091A63F100036B
:102D00009B0043EA91738900091843F10003DB003B
:102D1000C80043EA5171FFF7DBFF08BDF0B583B08F
:102D20000C46EFF30583DBB293B13A4B5B6A8B42FF
:102D300009D3384A926A824208D2A34201D00120C4
:102D400002E0002000E0002003B0F0BD0120FBE71E
:102D50000546FFF77DFEC3681F460678184600F05B
:102D60008DF82A1A64EB0101331D57F823301B1A22
:102D70009A4271F1000112DB20BF264B5B6A9C4234
:102D800009D8244A926AAA4207D29C4201D0012063
:102D9000DAE70020D8E70020D6E70120D4E70023B7
:102DA00000931D4A28462146FFF7E2FE002818DD61
:102DB000184B5B6A9C4205D8164A926AAA4202D214
:102DC0009C4200D120BFFFF71FFF124B5B6A9C4261
:102DD0001BD8104A926AAA4219D29C4213D00120F1
:102DE000B2E70C4B5B6A9C4209D80A4A926AAA4233
:102DF00007D29C4201D00120A6E70020A4E70020D2
:102E0000A2E70120A0E700209EE700209CE7012028
:102E10009AE700BF00000B4075260010004870477D
:102E200000000B4010B50A4B1B6923B10A21094869
:102E3000FFF79AFB10BDFFF7F1FF0446032100F0F6
:102E40000BF81023032221460148FFF7C3FDEDE7ED
:102E5000741200209422002008B5054ADFF818C03B
:102E6000044B604514BF1846581CFFF77FF808BD97
:102E7000C8920010641D002000800B400246436A87
:102E8000906A1946536A9942FAD17047416A00E044
:102E9000416A9942FCD300E0416A994202D1816AB9
:102EA0009142F9D3704770B5064615461C46FFF7A8
:102EB000E5FF421941EB0403824273EB010102D2A8
:102EC0004FF0FF3213463046FFF7E0FF70BD0000C1
:102ED00008B50248FFF7D2FF08BD00BF00000B4055
:102EE00008B502460B460248FFF7DDFF08BD00BFEC
:102EF00000000B4008B502460B460248FFF7C6FF2C
:102F000008BD00BF00000B40074B98420AD01A23AF
:102F100001229A40054B1A60054B9B6832EA030375
:102F2000FAD170471B23F3E70080074000300240CE
:102F30000000024038B5046B14F0010F01D12046A7
:102F400038BD00F5405340F201321A63426A836A89
:102F500003EB82139D02062000F0EEF8044BA3FB66
:102F60000030C00AB5FBF0F00021FFF7B9FFE6E73B
:102F7000757B2B8F70B504460E461546FFF7DAFFBA
:102F8000E16A33464B401946294004F58153D96024
:102F9000206370BD70B505460C46062000F0CCF8E5
:102FA000C300B3FBF4F30133DC0907D04FF6FE7224
:102FB000944214D82646C3F3450400E001266E620D
:102FC000AC62002211462846FFF7D4FF062000F02D
:102FD000B3F8800004EB8614B0FBF4F070BD00245D
:102FE0004FF6FF76EBE7000049B10A22054B984205
:102FF00014BF00200120044B23F8102070474FF429
:103000008072F3E700800740A022002038B5044614
:103010000D46062000F090F8F8B1114B9C421DD0EF
:103020001A22012393400F4A13602046FFF76CFFDA
:1030300000212046FFF7D8FF29462046FFF7AAFFC8
:10304000E36A83F0700303F07E0304F58152D360DA
:1030500040F2013323630323A36438BD1B22E0E75E
:10306000008007400020024070B515461E4600EB68
:10307000400C4FEA8C0C0CF1804C0CF5803CDCF8D9
:103080000430049A934201D2CCF80420041FE4B225
:10309000012C2AD90CF540534FF400621A60204BE2
:1030A00053F820204AB15B69B3FBF2FE0EF1010E2A
:1030B0000EEB4E0EBEF1030EFCD2DCF8002082EACD
:1030C000451202F0E0020CF5805ECEF80020012CE3
:1030D00017D90CF500534FF400621A60049BCCF82A
:1030E00004300F4B43F8206070BD0129D2D10CF59C
:1030F000405303221A60DCF8083013F0010FFAD0B5
:10310000DBE7DCF800304B4003F00303CEF800307F
:10311000DCF8083001228A401342F9D0D9E700BF19
:103120009C1D002000B583B04FF4803CCDF800C05A
:10313000FFF79AFF03B000BD014B53F82000704722
:103140009C1D002038B58E469446049A3349B1FB45
:10315000FEF1334C6444334DAC4234D8BCFBF1F443
:10316000A4F11005B5F5987F33D85D1E062D36D82D
:10317000551E062D33D8B1EB1C1F36D8120342EA78
:1031800003410368002B36DB274B984243D00E23C4
:1031900001229A40254B1A6003F580531A60244B94
:1031A0009B6832EA0303FAD1C0F800E0846000F5BE
:1031B00040520432212313600368002BFCDAC16003
:1031C0000823136038BD1B4B1B4A11211B4801F01B
:1031D0007FFC1B4B184A1921184801F079FC194B48
:1031E000154A1C21154801F073FC174B124A232184
:1031F000124801F06DFC036803F03F037345C3D12F
:103200008368C3F30B03A342BED1C36803F4EE2368
:103210008B42B9D1D6E70F23BAE700BF001BB70036
:1032200080E84BD380F8A93200800540002002409E
:1032300000000240EC920010809900103C930010B6
:10324000809300109C930010E8930010024B1A68C2
:10325000024B5A60704700BF4422002000800D409E
:1032600008B5164B4FF080421A60A3F54123144A6B
:103270009A6051B103F540234FF0E0621A6048B9FB
:10328000104B4FF000421A6008BD0C4B4FF0E0624B
:103290001A60F4E74FF47A7303FB00F00A4B1860EE
:1032A000B0F1807F02D36FF07F421A60FFF7CEFF4C
:1032B000044B4FF080421A60E6E700BF00B00D40BB
:1032C000F3FFFF0100A00D404422002008B50E4B83
:1032D0004FF0804CC3F800C098B140F001030B4898
:1032E000DFF82CC0C0F81CC0DFF828C083EA0C0C43
:1032F000C0F820C04162836200211046FFF7B0FF92
:1033000008BD024BD861F7E700B00D4000800D40CA
:10331000D3C007B02D3FF84F054A00EB400302EB46
:103320008303596000EB4000800001231350704775
:10333000008010402DE9F04105460E46174698469C
:103340000023DB8A002242E800F212F4800F0BD146
:10335000102144F252209847044643463A463146EB
:103360002846A047BDE8F081042144F25220984746
:103370000446F2E708B50023DB8A002242E800F2A7
:1033800012F4800F02D11021984708BD04219847FC
:10339000FBE708B5031E04DB41F020003AB141F021
:1033A00030010A460A214FF48170FFF7C3FF01463E
:1033B000F7E70000034BD3F82838002BFAD0BFF30F
:1033C0005F8F704700000E40002207E0054B13445A
:1033D0009B00BFF35F8F002119600132072AF5D9E6
:1033E000704700BF0382031008B5FFF7EDFF08BD6B
:1033F000074B4FF42A621A604FF48D72DA6003F5BE
:103400000053044A1A60024B5B68002BFBDA7047DA
:103410000080044000B0FA0010B5044602E054F801
:10342000043B9847014B9C42F9D310BDD087001054
:103430007047000008B50248FFF7EEFF08BD00BF67
:1034400090870010064B074A1A6003F58053064A1E
:103450001A60064B9A68044B9343FAD1704700BF39
:10346000002002407F3BEFEFF6FFF3030000024035
:10347000054BDB6CB3F5004F00D07047034B4FF4A6
:103480008022DA64F9E700BF0000115000201150DB
:103490004FF0E022D2F8881D034B0B43C2F8883D61
:1034A00010EE3004704700BF03033000054B6FF08F
:1034B00060421A60044B9B68DB4333F06043F9D1F0
:1034C000704700BF003002400000024008B545F2DE
:1034D0005320FFF74FFF03460420984708BD08B567
:1034E00045F25320FFF746FF03460120984708BDE9
:1034F00008B5FEF7A1FD08BD10B50C490C4A521ADB
:1035000092101446442A28BF44229200094805F02C
:1035100063F804E0084A074B43F824200134432CA5
:10352000F8D9044A054B9A6010BD00BF0000001096
:1035300010010010000000201101001000ED00E05B
:1035400038B50420FFF7F8FD064BA3FB0035AD0CA2
:10355000002404E02946E0B2FFF7DEFE0134052C2A
:10356000F8DD38BD83DE1B4330B583B0264B002227
:10357000C3F88420FFF73CFF244B0122DA63224B7F
:103580005B6C012BFBD1214B03221A631E4B9B6BFF
:10359000012BFBD10224009405231D4A01211D4863
:1035A000FFF7D0FD052500952B461B4A01211B483E
:1035B000FFF7C8FD1A4B002221460420FFF7B2FD99
:1035C000184C2346002201212846FFF7ABFD164D7B
:1035D0002B46002211460820FFF7A4FD2B460022AF
:1035E00011460920FFF79EFD2346002211460620C2
:1035F000FFF798FD2346002211460720FFF792FDB2
:10360000FFF79EFF03B030BD0000014000300140D5
:10361000002F685900000540008C86470080054057
:10362000001BB70080D1F008006CDC0286B003B448
:1036300051FC0804CDE9020151FC0904CDE9040163
:1036400051EC0A04CDE9060103BCF047BDE8005087
:103650004EEC00C4BDE800504EEC01C4BDE8005083
:103660004EEC02C400BD000000B5FFF7DFFF02E032
:1036700010FE30F4F8D441EC100443EC112400EEB9
:10368000010410EE010480EE200451EC1004704798
:1036900000B5FFF7CBFF02E010FE30F4F8D441ECA8
:1036A000100443EC112400EE010410EE210480EE1E
:1036B000200451EC3004704700B5FFF7B7FF02E07B
:1036C00010FE30F4F8D410B541EC100443EC112492
:1036D00051EC040453EC0524A0FB024C5FF0000EF7
:1036E000E0FB03CEE1FB02CE4CEC20440024E1FBE6
:1036F00003E444EC30E480EE200451EC5004BDE8D7
:103700001040704700B5FFF791FF02E010FE30F463
:10371000F8D441EC100443EC112451EC2104A0FB3B
:1037200001126FEA820252FB100052FB12F252FBAE
:103730001000A0EBD07C53EC04245CFB13F153ECA1
:103740001524A1FB022001FB030053EC4424A2EB4F
:10375000000050FB1CF24FEA111312EB017043EB17
:10376000E27140EA515020EA915020F0070053ECFA
:103770007524A0FB023C53EC752400FB03CC01FB39
:1037800002CC53EC0424ACEB824C40EA5C70A0F118
:10379000010041EC400480EE200451EC70047047BD
:1037A00000B5FFF743FF02E010FE30F4F8D440EC20
:1037B000700400EE010410EE210480EE200451ECB0
:1037C0003004704700B5FFF731FF02E010FE30F41F
:1037D000F8D440EC600400EE010410EE210480EE09
:1037E000200451EC3004704700B5FFF71FFF02E0E2
:1037F00010FE30F4F8D441EC800400EE010410EE29
:10380000010480EE400410EE1304704700B5FFF78A
:103810000DFF02E010FE30F4F8D441EC800400EE1D
:10382000010410EE010480EE400410EE33047047F2
:1038300000B5FFF7FBFE02E010FE30F4F8D441ECD7
:10384000100443EC112400EE010410EE3004C0F328
:103850000070704700B5FFF7E9FE02E010FE30F49B
:10386000F8D443EC102441EC110400EE010410EEF6
:1038700030F48CBF01200020704700BF00B5FFF777
:10388000D5FE02E010FE30F4F8D443EC102441ECF5
:10389000110400EE010410EE30F42CBF01200020D2
:1038A000704700BF00B5FFF7C1FE02E010FE30F424
:1038B000F8D441EC100443EC112400EE010410EEA6
:1038C00030F42CBF01200020704700BF00B5FFF787
:1038D000ADFE02E010FE30F4F8D441EC100443ECED
:1038E000112400EE010410EE30F48CBF0120002002
:1038F000704700BF9A4200D288547047704720B189
:1039000008B50A684968904708BD7047014600201D
:1039100008E000EB8000531C0B60137803EB4003BE
:10392000A3F130000A681378303BDBB2092BF0D9E1
:1039300070472DE9F04F83B005460E4693461F466B
:10394000DDF830800D9CDDF838900F9B13F00202FB
:10395000009228D113F0010F0FD05A461BE002F15C
:10396000010B3B4631462020A8470AF1010A5A467E
:10397000CA45F4D3DDF804B00DE0A2465A46CDF8AE
:1039800004B0F5E7013C02F1010A3B46314618F864
:103990000400A8475246002CF4D1009B5BB91046A6
:1039A00003B0BDE8F08F5A46F5E7541C3B4631465C
:1039B0002020A8472246A2EB0B034B45F5D3EEE7A8
:1039C0002DE9F04184B004460D4616461F46DDF849
:1039D00028E0DDF82CC09DF830301A4698460E9845
:1039E0000F99109B13F0020F21D169B113F0010F51
:1039F0000AD012B913F00C0F06D0013904E03022BE
:103A00000EF80C200CF1010C844502D2BCF11F0F02
:103A1000F5D913F0010F0AD08C4508D2BCF11F0F65
:103A200005D830220EF80C200CF1010CF1E713F050
:103A3000100F17D013F4806F06D1BCF1000F03D024
:103A4000844529D08C4527D00D9A102A3CD00D9A58
:103A5000022A47D0BCF11F0F0FD830220EF80C20DD
:103A60000CF1010CBCF11F0F07D84246002A42D0CE
:103A70002D220EF80C200CF1010C03930291CDF8CD
:103A800004C0CDF800E03B46324629462046FFF709
:103A900050FF04B0BDE8F081BCF1010220D00D98C8
:103AA00010280FD094460D9A102AD0D113F0200F71
:103AB000CDD0BCF11F0FCAD858220EF80C200CF143
:103AC000010CC7E7ACF1020C13F0200FEBD1BCF1F5
:103AD0001F0FE8D878220EF80C200CF1010CB9E782
:103AE0009446B1E7BCF11F0FC7D862220EF80C2034
:103AF0000CF1010CAEE713F0040F05D02B220EF8E9
:103B00000C200CF1010CB8E713F0080FB5D02022FF
:103B10000EF80C200CF1010CAFE7F0B591B00D469A
:103B200016461F46169B189A1B990BB921F01001D7
:103B300011F4806E1DD063B34FF0000E19E011F048
:103B4000200F24D04124A4445FFA8CFCACF10A0C71
:103B50005FFA8CFC0EF101040EF1400EEE440EF8FB
:103B600020CCB3FBF2FC934214D31F2C12D8A646F0
:103B70006346B3FBF2FC02FB1C3C5FFA8CFCBCF11D
:103B8000090FDCD80CF1300C5FFA8CFCE2E7612401
:103B9000D9E71C4606911A9B0593199B049303923F
:103BA0009DF85C300293019408AB00933B4632468B
:103BB0002946FFF705FF11B0F0BD2DE9F04F95B094
:103BC000834609910A920B931E9F1F9DDDF8888002
:103BD000DDF88C90DDF898A057EA050301D12AF0B2
:103BE000100A1AF4806422D057EA05032DD000246D
:103BF0001DE01AF0200F26D041231344DBB20A3B0C
:103C0000DBB2661C04F150020DEB020404F8203C08
:103C100042464B463846294604F09AFD474575EB27
:103C2000090513D31F2E11D8344607460D464246C8
:103C30004B463846294604F08BFDD2B2092AD8D823
:103C40003032D3B2DDE76123D7E70026CDF818A0E4
:103C5000259B0593249B0493CDF80C809DF8803020
:103C6000029301960CAB00930B9B0A9A0999584654
:103C7000FFF7A6FE15B0BDE8F08F000000000000C1
:103C80002DE9F04F93B004460D460E921E46DDE935
:103C90001C8942464B4640464946FFF7CDFD002869
:103CA00040F0FE804FF0FF32B54B40464946FFF7EB
:103CB00011FE002840F0F4804FF0FF326FF48013C3
:103CC00040464946FFF7CAFD002840F0E98000223F
:103CD000002340464946FFF7C1FD002840F0F1802F
:103CE000CDE90689209B13F480630F9301D106234D
:103CF0001E93DDE906AB52465B46CDE90A23079BDE
:103D00005AEA030100F0E780C3F30A50C3F3130338
:103D10004FF0000A4FF0000BCDE908AB089243F0DA
:103D20007F53099343F440130993A0F2FF30FFF748
:103D30003BFD81A3D3E90023FFF7C2FC80A3D3E9B5
:103D40000023FFF795FC82468B4600228D4BDDE970
:103D50000801FFF7A1FC7CA3D3E90023FFF7B0FC27
:103D600002460B4650465946FFF782FCFFF740FDDE
:103D70000890FFF719FD82468B4675A3D3E900230F
:103D8000FFF79EFC0022804BFFF772FCFFF730FD2F
:103D9000074671A3D3E9002350465946FFF790FC2C
:103DA00082468B463846FFF7FFFC6DA3D3E900231C
:103DB000FFF786FC02460B4650465946FFF76CFC5F
:103DC00002460B4682468B46FFF77AFCCDE90C0192
:103DD00007F2FF3300210022CDE90A121B050B93E5
:103DE00000230A935046594652465B46FFF740FC73
:103DF000CDE9100152465B4600204FF08041FFF7AD
:103E00004BFC82468B460022604BDDE90C01FFF73C
:103E10007DFC00225E4BFFF72BFC02460B46DDE9E2
:103E20000C01FFF773FC00225A4BFFF721FC0246FE
:103E30000B46DDE90C01FFF769FC02460B465046D4
:103E40005946FFF715FC02460B46DDE91001FFF766
:103E50005DFC0022504BFFF70BFCDDE90A23FFF766
:103E60002FFC02460B46CDE90C23DDE90CABCDE976
:103E70000AABDDE90623FFF72DFD50B1089B013B9E
:103E800008930022424BDDE90C01FFF73FFCCDE92E
:103E90000A01089B6333C62B48D804231F461EE043
:103EA000209B04931F9B03931E9B0293CDE90089E3
:103EB00033460E9A2946204600F002F913B0BDE8B9
:103EC000F08F9FED297B8DED067BCDF8188009F1F1
:103ED0000043079306E70023089304231F46209B13
:103EE00013F4006F63D0DDE90A1213460B4315D0BB
:103EF0001FA3D3E90023DDE906AB50465946FFF77F
:103F0000D5FC002800F0B6801BA3D3E9002350465F
:103F10005946FFF7A3FC002800F0AC801E9A089BCE
:103F20009A423BDDD31A013B1E9339E005231F461D
:103F3000D5E700BFAFF30080FB799F501344D33F18
:103F4000B3C8608B288AC63F61436F63A787D23F9F
:103F500071A379094F930A401655B5BBB16B024066
:103F6000EF39FAFE422EE63F00000000000000009C
:103F70002D431CEBE2361A3F0000000080842E41E6
:103F8000FFFFEF7F0000F83F0000E03F00002C4003
:103F900000002440000018400000F03F00231E9362
:103FA000209B43F48063209300231F4608931F9AAD
:103FB000974269D2D31B9A46209B13F002039B467B
:103FC00002D00FB100239A46089B3BB1DDE90A23DA
:103FD000DDE90601FFF79AFBCDE906010022002387
:103FE00040464946FFF73AFC002850D1209B23F475
:103FF00000630493CDF80CA01E9B02939DED067BFD
:104000008DED007B33460E9A2946204600F058F885
:10401000002F3FF453AF209B13F0200F3FD04FF001
:10402000450C00F101083346024629466046A04788
:10403000089981EAE172A2EBE172052305937B1EE8
:104040000493002303930A230293CB0F019300925E
:104050003346424629462046FFF75FFD5B46002B6C
:104060003FF42CAF0246DDF8389037462E46254601
:104070001F9C1EE01E9B002B99D00F9B002B96D0FF
:104080001E9B013B1E9392E700239A4694E7DDE9CD
:104090000601024601F10043CDE90623A6E74FF0F1
:1040A000650CBEE702F101083B4631462020A847D7
:1040B0004246A2EB0903A342F4D31046FEE600BF3A
:1040C0002DE9F04F2DED028B95B0079008910992E4
:1040D0000A93DDE92089229D42464B4640464946E7
:1040E000FFF7AAFB002834D14FF0FF326FF48013A2
:1040F00040464946FFF7B2FB002839D14FF0FF3266
:10410000A94B40464946FFF7E5FB00283FD1A2A353
:10411000D3E9002340464946FFF7DCFB00284CD199
:104120009FA3D3E9002340464946FFF797FB0028A9
:1041300043D10022002340464946FFF78FFB002869
:1041400049D10B90249B13F4806F00F0B5800024BC
:1041500054E0249B0393239B029303230193934BEB
:1041600000930A9B099A08990798FFF7E2FB50E130
:10417000249B0393239B0293042301938C4B009372
:104180000A9B099A08990798FFF7D3FB41E1249B02
:1041900013F0040F0ED0874B042224990391239926
:1041A0000291019200930A9B099A08990798FFF7D8
:1041B000C0FB2EE1804B0322EFE7249B0493239B5B
:1041C00003930295CDE900890A9B099A08990798FB
:1041D000FFF756FD1DE142464B4600200021FFF748
:1041E0005BFA8046894601230B93ABE704F1500349
:1041F0006B44302203F8202C013D01341F2C01D8E0
:10420000092DF3D840464946FFF7F2FA0646FFF774
:10421000CBFA02460B4640464946FFF73DFA674B4C
:1042200003EBC50393ED007BB0EE478AF0EE678A9F
:1042300053EC172BFFF744FA82468B46FFF7EAFA56
:104240000746FFF7C3FA02460B4650465946FFF7AA
:1042500023FA82468B460022594BFFF73BFB68B39B
:1042600001373846FFF7B2FA02460B4651EC180BFD
:10427000FFF708FB08B1013600276DBB3046FFF79A
:1042800093FA02460B4640464946FFF705FA804638
:10429000894600224A4BFFF7E1FA00284CD1002260
:1042A000474B40464946FFF715FB002844D116F01E
:1042B000010F41D001363FE0062548E70022404B80
:1042C00050465946FFF7CAFA0028D6D117B117F061
:1042D000010FD2D00137D0E71F2C17D8013D394B41
:1042E000A3FB0723DB08194603EB8303A7EB430378
:1042F000621C303304F150000DEB000404F8203C44
:10430000092F02D90F461446E6E714461F2C0AD897
:104310006B1E45B104F150026A44302102F8201CA2
:104320001D460134F2E71F2C06D804F150036B44FC
:104330002E2203F8202C01341F2C17D8224A82FB8E
:104340000632F317C3EBA2031A4603EB8303A6EB73
:104350004303611C303304F150000DEB000404F8FA
:10436000203C16460AB10C46E6E70C46249B13F0A7
:10437000020F36D113F0010F33D0239B002B4DD009
:104380000B9B1BB9249B13F00C0F49D0239B013BC3
:104390002393194621E000BF0000000065CDCD4108
:1043A0000000000065CDCDC1FFFFEF7F50940010ED
:1043B00054940010449400104C940010E0990010A4
:1043C0000000E03FCDCCCCCC6766666604F15003BC
:1043D0006B44302203F8202C01348C4201D21F2C74
:1043E000F4D91F2C08D80B9BE3B104F150036B44A4
:1043F0002D2203F8202C0134249B0393239B02934A
:1044000001940CAB00930A9B099A08990798FFF74F
:1044100090FA15B0BDEC028BBDE8F08F2399DCE774
:104420002399DAE7249B13F0040F07D004F150031B
:104430006B442B2203F8202C0134DDE7249B13F07E
:10444000080FD9D004F150036B44202203F8202C2C
:104450000134D1E72DE9F04F8FB0804617460D9318
:104460008946002900F0F68200260D9B1878002866
:1044700000F0F382252809D0741C3B463246494699
:10448000C0470D9B01330D932646EEE701330D9394
:10449000002511E0202A24D0232A05D145F010055B
:1044A00001330D93012306E0002304E045F00205EB
:1044B00001330D930123E3B10D9B1A782B2A0AD007
:1044C000E8D92D2AF2D0302A11D145F00105013367
:1044D0000D930123EFE745F0040501330D9301230C
:1044E000E9E745F0080501330D930123E3E70023D5
:1044F000E1E70A930D9B1A78A2F13003DBB2092B96
:1045000015D92A2A18D0DDF828B00D9B1A782E2A42
:1045100022D00D9B1A786C2A43D039D9742A5CD0EA
:104520007A2A5ED145F4807501330D9359E00DA8C8
:10453000FFF7ECF98346E8E7189B1A1D18921B68F1
:10454000002B04DB9B460D9B01330D93DDE745F00B
:104550000205C3F1000BF6E745F480655A1C0D9285
:104560005A78A2F13003DBB2092B0CD92A2AD0D118
:10457000189B1A1D18921C6824EAE4730A930D9B79
:1045800001330D93C5E70DA8FFF7C0F90A90C0E706
:10459000682A14D06A2A24D145F4007501330D939A
:1045A0001FE045F480715A1C0D925A786C2A01D094
:1045B0000D4616E045F4407502330D9311E045F0C9
:1045C00080015A1C0D925A78682A01D00D4608E0E5
:1045D00045F0C00502330D9303E045F480750133C7
:1045E0000D930D9B187865283DD071D8462800F0B2
:1045F000878018D963282FD115F0020500F0A48117
:1046000001241898031D189306F1010A3B4632460F
:1046100049460078C047002D40F099810D9B013339
:104620000D93564621E725280AD1741C3B46324695
:1046300049462520C0470D9B01330D93264614E7BC
:10464000452810D0741C3B4632464946C0470D9B56
:1046500001330D93264608E72CD858282CD0622821
:104660002AD04728EED1672801D0472801D145F448
:104670000065452801D0472801D145F02005189B49
:10468000073323F0070303F1080218920495CDF8CD
:104690000CB00A9A0292D3E90023CDE900233B46ED
:1046A000324649464046FFF7EBFA06460D9B01337A
:1046B0000D93DAE66428C5D178284BD058287CD0F1
:1046C0006F287CD062287CD025F010050A2342E0B8
:1046D000702800F0A4810ED9732834D1189B1A1DBC
:1046E0001892D3F800A00A9B002B40F05A814FF09B
:1046F000FF3253463BE16728B5D01FD86628A1D1C9
:10470000462800F01181189B073323F0070303F1BB
:10471000080218920495CDF80CB00A9A0292D3E9D7
:104720000023CDE900233B46324649464046FFF789
:10473000C7FC06460D9B01330D9396E66928BBD056
:104740006F28B9D07EE7FFF47DAF7528B4D0782804
:10475000B2D077E71023582835D0692803D06428D1
:1047600001D025F00C0515F4806F01D025F001056E
:1047700069282BD0642829D015F4007F40F096805A
:1047800015F4807F40F0AE8015F0400F00F0BF8040
:10479000189A111D189112780595CDF810B00A9944
:1047A000039102930023019300923B46324649460F
:1047B0004046FFF7B2F9064629E01023CBE708236D
:1047C000C9E70223C7E745F02005C6E715F4007FD7
:1047D00021D115F4807F42D115F0400F58D0189A9E
:1047E000111D1891127882EAE271A1EBE271059530
:1047F000CDF810B00A9803900293D20F0192009165
:104800003B46324649464046FFF787F906460D9B30
:1048100001330D9329E6189A073222F0070202F1BC
:1048200008011891516812680846002913DB0895A1
:10483000CDF81CB00A9C0694049300230593C90F7D
:104840000291009201903B46324649464046FFF7AE
:10485000B4F90646DBE7524261EB4100E7E7189AFC
:10486000111D1891126882EAE271A1EBE2710595BF
:10487000CDF810B00A9803900293D20F01920091E4
:104880003B46324649464046FFF747F90646BEE7F3
:1048900015F0800F05D0189A111D1891B2F900205B
:1048A000A1E7189A111D189112689CE7189A07320F
:1048B00022F0070202F1080118910895CDF81CB00A
:1048C0000A9906910021049305910291D2E90023EF
:1048D000CDE900233B46324649464046FFF76DF995
:1048E000064694E7189A111D18910595CDF810B059
:1048F0000A990391029300230193136800933B46A6
:10490000324649464046FFF708F906467FE715F06C
:10491000800F04D0189A111D189112883CE7189A3C
:10492000111D1891126837E745F02005EBE602F1FA
:10493000010A3B4649462020C047234652465C1C9C
:104940009B45F4D816465CE601233246F7E752460B
:1049500006E0561C3B4649462020C0472C463246BE
:10496000651CA345F5D8924658E601330A461978E6
:1049700011B1511E002AF8D1A3EB0A0315F480628D
:104980000B9203D00A9A934228BF134615F00204F3
:1049900009D032460B9E0B94CDF830B00A9D9B4651
:1049A0001FE00A9AA5E63246264606E0541C3B461E
:1049B00049462020C0472B4622465D1C9B45F5D822
:1049C00034462B460B9E0B94CDF830B00A9D9B4687
:1049D00007E01D460AF1010A541C3B464946C04700
:1049E00022469AF8000020B1002EF3D06B1E002D55
:1049F000EFD116460B9C5B46DDF830B054B90D9BE9
:104A000001330D9331E5551C3B4649462020C047F4
:104A100023462A465C1C9B45F5D81646EFE745F031
:104A20002105189B1A1D18921B68059508220492EF
:104A30000A9A0392102202920022019200933B46AE
:104A4000324649464046FFF768F806460D9B01335B
:104A50000D930AE5DFF81C8006E5BE4208D37A1EF6
:104A60003B4649460020C04730460FB0BDE8F08FB6
:104A70003246F5E7FD3800100CB400B585B00A46A3
:104A800006AB53F8041B039300930B4601460448FE
:104A9000FFF7E0FC05B05DF804EB02B0704700BF23
:104AA000F538001000B585B00290039100931346CD
:104AB0004FF0FF3202A90248FFF7CCFC05B000BD61
:104AC000FF38001000BEFDE708B5FFF7FBFF000050
:104AD00000B583B08C46194662B19646074BCDF8B7
:104AE00004E0009363460246054800F0AFF9012058
:104AF000FFF7E8FF034B9E46F1E700BF5C94001010
:104B00006C9400108C89001010B5EFF30583DBB2B4
:104B100003B100BEFEF78EFC044C02E054F8043BE7
:104B20009847034B9C42F9D310BD00BFD0870010BB
:104B3000D887001008B5034608461B6811469847F9
:104B400008BD0000F8B507460D461646437D13B173
:104B5000002420460CE003681146284698472CE0C4
:104B60003B7D0FE03B68022114489847601C0134EC
:104B7000B44213DA002CF3DD631EEB5C0D2B14BF83
:104B8000002301232A5D0A2AF1D1002BEFD1A04294
:104B9000E8DA3B68211A28449847E3E7B04203DA91
:104BA0003B68311A28449847002E06DD013EAB5D74
:104BB0000D2B14BF002301233B75F8BD4C9A001048
:104BC00038B50368B3B105460B4B1C6806E02946AF
:104BD00051F8042B2046FFF7B5FF24694CB1236838
:104BE000002BFAD0054B1B68002BF0D0A342F4D168
:104BF000EDE72C6038BD00BFEC1D0020F81D002043
:104C000038B505460C460B68802B05D023685A1C26
:104C100022601C44257138BD0846FFF7D1FFF5E737
:104C200008B5FEF755F9074A821841F10003002B39
:104C300003DB054803F09CFD08BD4FF0FF326FF029
:104C40000043F6E740420F00D814002008B50248A0
:104C500003F082FD08BD00BFD81400202DE9F04309
:104C600083B006460D4690461C46FFF7D9FF8146A5
:104C7000B5F1FF3F04D044B1164F174B1C6807E055
:104C8000304603F01FFD0546F5E7144FF5E72469AC
:104C9000BCB12368002BFAD0114B1B680BB1A342A7
:104CA000F5D12A4631462046B847B8F1000FEED07C
:104CB0000A238DF8073001220DF107012046B8477D
:104CC000E5E74B461BB9284603B0BDE8F083FFF784
:104CD000BDFFF8E7454B0010EC1D0020354B0010E0
:104CE000F81D00202DE9F04106460D4690461F466E
:104CF000144B1C6807E0A36823B129463046984747
:104D000000281CDC246934B10F4B1B68002BF2D047
:104D1000A342F7D1EFE70D4B5B6A9F4208D80B4ADD
:104D2000926A424509D29F4202D06FF0010006E02C
:104D300001200021FEF7D4F8DAE76FF00100BDE8AA
:104D4000F08100BFEC1D0020F81D002000000B408A
:104D5000084A136802E003F110021B693BB11368B3
:104D60008342F8D129B9036913600161704701B129
:104D700010607047EC1D002010B5054B1C6800E06A
:104D8000246924B16368002BFAD09847F8E710BD76
:104D9000EC1D002008B500F0DFF908BD10B582B0A9
:104DA0000446FEF795F8221841F10003002B0ADBB8
:104DB000012101A8FFF796FF002802DB40B19DF812
:104DC000040002B010BD4FF0FF326FF00043EFE778
:104DD000034B044A40F203110348FFF779FE00BF7A
:104DE0009C940010309A0010A094001038B505462D
:104DF00003F068FC044601231A4601462846FFF7E3
:104E00002DFFFFF7B9FF204638BD0000F0B5A3B075
:104E100007460E46FFF704FF05460023019301AC49
:104E200033463A4621460848FFF73CFE06462046F0
:104E3000FFF7C6FEFFF7A0FF15B9304623B0F0BD5F
:104E4000FFF704FFF9E700BF014C00100FB400B5F5
:104E500083B004A951F8040B0191FFF7D7FF03B009
:104E60005DF804EB04B0704770470000014B00226E
:104E70001A707047C02200204B79FF2B0BD18B7921
:104E80005BB9CB79012B0AD1082A0AD98A78064B5B
:104E90001A700920704700207047002070470020DA
:104EA00070470020704700BFC022002001207047DB
:104EB000012923D108B59188114B1B78994201D063
:104EC000002008BD5378012B03D0022B0FD0002007
:104ED000F7E7518811F4807F06D0480AC1F34022D9
:104EE00001F07F01FEF755FA4FF0FF30F6E764223C
:104EF00000210846FEF7EAF90120E2E701207047A9
:104F0000C022002000487047189B001001290FD1D3
:104F100008B594465378012B0CD19388072B01D008
:104F2000002008E0A623044A614601F03BFC02E0B1
:104F300001207047002008BD709A00100123037003
:104F400000487047509A001008B50B68B3F5966F8B
:104F500000D008BD002211464FF0FF30FEF719FACD
:104F6000024B1860024B1960704700BF581D0020AB
:104F70005C1D002008B5FDF7ABFF0E4A821841F119
:104F80000003002B11DB0C4803F0F2FB60B10021A1
:104F90004FF0FF3001F090FA002001F08FFD002863
:104FA000F5D1054803F0D8FB08BD4FF0FF326FF094
:104FB0000043E8E740420F009822002038B51B4B21
:104FC0001B68002B27D0EFF3108272B6D3E8CF0F07
:104FD00001210028FAD1C3E8401F0028F6D1BFF311
:104FE0005F8F12494A600023114803700968C1E8C5
:104FF0008F3F82F310880022002314461D460D4B7C
:105000001878FDF789F860B90022002314461D4680
:105010002046294638BD4FF47A72002314461D46B7
:10502000EDE7044B1878FDF7A1F8F1E764220020C2
:10503000C2220020C122002008B5024B1878FDF7DB
:1050400095F808BDC122002070B584B0064615460B
:105050001C46FDF73DFF2A1844EB0103002B0BDB38
:105060009DF8281002910999019108990091304604
:10507000FDF762FD04B070BD4FF0FF326FF00043EA
:10508000EEE7F0B585B007460E4615461C46FDF71F
:10509000DFFC9DF828300293019400953A46334690
:1050A000FFF7D2FF05B0F0BD10B582B00021244853
:1050B00003F066FB002822D1224B1B68EBB1EFF313
:1050C000108272B6D3E8CF0F01210028FAD1C3E8CD
:1050D000401F0028F6D1BFF35F8F1A494A601A4873
:1050E0000378DBB24FF0010C80F800C008680021A3
:1050F000C0E88F1F82F31088BBB102B010BD002141
:105100004FF0FF3001F0D8F9002001F0B1FC044667
:105110000B4803F021FB002CEFD00C4B1B68002B3D
:10512000EBD00B4A10689847E7E7CDF800C00B4674
:10513000084A4FF47A700021FFF7A3FFDDE700BFB4
:105140009822002064220020C2220020581D002046
:105150005C1D0020BD4F001010B582B04FF05043D1
:105160001C68FDF775FCFDF757FDA0422DD1244BBF
:105170001B780021084602F045F9224B1B6853B307
:105180000120FDF7DDF9C0B21F4C20701F49FDF76B
:105190000DF801212078FCF7DFFF0E20FCF7FAFF65
:1051A0000446E0B10120FCF72FFF01461848FDF747
:1051B00023FA002217490E20FDF728F8012116488E
:1051C000FFF7C6FD204602B010BD144B144AC6219D
:1051D0001448FFF77DFC0B48FDF7CCF9D0E70C4AEB
:1051E000034610605060012200920F4A4FF47A701B
:1051F0000021FFF746FFC443E40F002CE2D0DDE7B7
:105200009C9F001098220020C1220020A95000106D
:1052100064220020395000108C120020E494001009
:10522000489B0010EC940010BD4F001008B5002002
:1052300001F004FC08BD000038B504460D46FFF738
:10524000F5FFA0B3002001F013FCA0B3FDF740FE72
:105250001D4A821841F10003002B17DB1B4803F0A5
:1052600087FA60B3FFF7E2FF18B1002001F000FCFD
:1052700088B901464FF0FF3001F01EF96FF00203CC
:105280001C46124803F068FA204638BD4FF0FF3242
:105290006FF00043E2E72A462146002001F0F4FBCC
:1052A00004460028EDD16FF002031C46E9E76FF0D9
:1052B00002031C46E8E76FF002031C46E4E76FF0C8
:1052C00002031C46E0E700BF40420F009822002086
:1052D000F8B507460D46FDF7FBFD2E4A821841F151
:1052E0000003002B04DB2C4803F042FA28B9F8BD78
:1052F0004FF0FF326FF00043F5E7FFF797FF00280C
:1053000045D1264B00200021C3E90001224803F0CB
:1053100023FAECE701464FF0FF3001F0CDF8002012
:1053200001F0CCFBFFF782FF0028EFD0002001F056
:1053300043FCF8B1AC42E9DA2E1B002001F03CFC42
:10534000864200DC30460028E4D0024639190020AD
:1053500001F010FC064600214FF0FF3001F0ACF8E0
:10536000002001F0ABFB3444FDF7B2FD0B4BC3E969
:105370000001DFE7FDF7ACFD084A13685268084EEC
:105380009B1942F1000283428A41D3D2BEE7002436
:10539000D0E700BF40420F00982200206016002096
:1053A00020A1070000487047C49B001000487047C8
:1053B000709B001010B50446144B1B786BB18CB970
:1053C000134B40F209425A80012301335B009BB228
:1053D0000F4843F44073038010BD11210B4800F0C7
:1053E00045F8ECE7052C0ED80A4B53F824000023AF
:1053F000122BEAD8C25C002AE7D00133044921F815
:105400001320DBB2F4E70020E6E700BFA42200206F
:10541000C41D0020589B001000B58BB045F24730EA
:10542000FDF7A8FF03460122092101A89847042897
:1054300001D100230EE0094B094A2F210948FFF74B
:1054400047FBC3F10F0228326A4412F8241C064AB3
:10545000D1540133072BF4DD0BB000BD789500105B
:10546000F89B0010809500108C22002008B511B127
:105470008C46002208E0104B104A3B211048FFF7F1
:1054800027FB3733835401320CF1FF3393420FD99A
:105490000F2A0DD853080B49CB5CD14301F0010111
:1054A00089000B4103F00F03092BEADC3033E9E7F5
:1054B0000023835408BD00BFCC950010D89B00107A
:1054C000809500108C22002000B500F07F0C4FEA80
:1054D0004C0E0EEBD01E2A4B03EB4E139870C009F6
:1054E0000CBF4FF0010E4FF0000E83F801E04FF0BB
:1054F000000E83F803E01983DA76F0B94FEACC03A3
:10550000204A1A4400EB4C011D4B03EB41139A60F7
:1055100000EB4C021A4B03EB42139B6800221A600B
:10552000BCF1000F13D100EB4C00154B03EB401006
:10553000C0F804C0144BC36000BD144A02EBCC0297
:1055400000EB4C010E4B03EB41139A60E0E758B9B6
:105550000CF1FF33DB000E4A1A4400EB4C00084B01
:1055600003EB40135A60E7E70CF1FF33094A02EB03
:10557000C30200EB4C00024B03EB40104260DBE740
:10558000441E002084001050000110508000105074
:105590000C0010500800105008B5038B3F339B09D6
:1055A0009901C27E022A08D0084A1368C3600B44DE
:1055B0001360074A934202D808BDD901F4E7054BAE
:1055C000054A52210548FFF783FA00BF4822002010
:1055D000FF0F1050D4950010449C00101896001036
:1055E00070B500F07F044FEA440C0CEBD013DFF8E9
:1055F00034C00CEB43131E46FFF766FF04B970BDC1
:10560000318B3046FFF7C8FFF27EF36883F0A0438A
:1056100083F4801343EA826343F0004372681360AB
:10562000EDE700BF441E002008B500F07F035B00DB
:1056300003EBD010024B03EB401000F01DF908BD46
:10564000441E002008B520B901210E20FCF784FD7E
:1056500008BD034B034A40F297110348FFF738FA9D
:1056600088960010349C00101896001008B528B9D0
:10567000024601468020FFF7D7FF08BD034B044ACE
:1056800040F2A1110348FFF723FA00BF88960010EB
:10569000249C001018960010024B4FF48032DA64FC
:1056A000704700BF0020115070B548BB064600F09F
:1056B000C3F8174C0C23A367FF2216490E20FCF7F2
:1056C000A5FD40252A460021134802F029FE0022AC
:1056D00029461046FFF784FF002229468020FFF765
:1056E0007FFF03F031F8012525644FF00053E36498
:1056F0000A4BC4F890303046FFF7CEFF284670BD05
:10570000074B084A40F263110748FFF7E1F900BF71
:10571000000011509D030020441E002010D0010005
:1057200088960010589C001018960010044B1970B1
:1057300021B1044B4FF40032C3F89020704700BFF2
:10574000BB220020002011500B7813F01F0F05D151
:1057500013F0600F02D14B78052B00D070474B88B7
:10576000DBB2014A1360F9E700001150CA7802F079
:105770000302012A09D008B50B468988C1F30A0142
:105780009878FFF72DFF012008BD0020704708B56D
:1057900002F0DAFF08BD000008B530B9084611462E
:1057A0001A46FFF741FF012008BD034B034A4FF49F
:1057B00001710348FFF78CF988960010149C0010C3
:1057C0001896001008B511F07F0304D1CA090ED154
:1057D0000220084A90665B0003EBD1134FF400628D
:1057E0000021054800EB431002F0BEFF08BD012078
:1057F000EFE700BF00201150441E002008B511F053
:105800007F0300D108BD5B0003EBD113044800EB1C
:1058100043100022C2706FF4006102F0A5FFF1E7AF
:10582000441E002004E011F8012B00F8012B1A4659
:10583000531E002AF7D1704708B54FF080530A4A2B
:10584000136002F580521360084B9B6813F0805F71
:10585000FAD04FF480520021054802F061FD054B5B
:1058600009225A6708BD00BF002002400000024024
:10587000000010500000115070B504460D46164649
:10588000837EABB9A6820023E3820123A376256140
:10589000204602F079FF20B10B4B4FF40032C3F8E1
:1058A0009020204602F068FF50B10123237770BD9D
:1058B00081780648FFF7CAFA204602F035FFE1E793
:1058C000204602F039FFF2E70020115078970010CF
:1058D00038B50546002408E0D21A1B4B03EB4213EF
:1058E000DB68284698470134E4B2184B1B782246FF
:1058F000591CA14215DBA342EED9154B1B6813EBD3
:105900004413EDD140F2252212491348FFF79EFAC5
:105910004FF0E023D3F8F03D13F0010F13D000BE99
:1059200011E00E4C54220021204602F0F9FC4FF009
:10593000FF336360A360E36023612022FF2104F151
:10594000140002F0EDFC38BD2C9D0010BA2200209E
:10595000A0170020F89C0010B097001070190020CC
:1059600008B5FFF7B5FF00F075FF08BD70B5064636
:105970000C461546486900F077FF63692A46012105
:105980003046984770BD00002DE9F04F83B0824645
:10599000481EC0B2FFF70AFD20B183464378019349
:1059A000022B11D040F2D63262496348FFF74EFA1B
:1059B0004FF0E023D3F8F03D13F0010F00D000BE0C
:1059C000002003B0BDE8F08FC279C2F340105B4BFA
:1059D000197860F304111970C2F38012C9B262F32E
:1059E000451119700BF10908BBF802309B447BE0AC
:1059F00098F8033098F8002090447DE040F2F132AE
:105A00004C494D48FFF722FA4FF0E023D3F8F03D20
:105A100013F0010F00D000BE0020D2E7F31A484A6D
:105A200002EB4319D9F810302A46414650469847B0
:105A3000082801D985421ED20134E4B2414B1B78BB
:105A400026465A1CA2424ADBA342E7D93E4B1B68BA
:105A500013EB4419E6D140F2FA3236493648FFF7E3
:105A6000F5F94FF0E023D3F8F03D13F0010F00D02B
:105A700000BE0020A5E73B464F468146012B11D0D2
:105A800000218B4224D998F802200A44D2B22B4834
:105A900010440079FF280BD12848024414710131C9
:105AA000C9B2EEE73969294A9142E9D1019BE7E79A
:105AB00040F219421F492048FFF7C8F94FF0E02390
:105AC000D3F8F03D13F0010F00D000BE002078E7BE
:105AD00023464A4641461E4801F0AAFDC844194BD8
