:020000041000EA
:10000000002008205D0100101B0100101D010010E0
:100010001101001011010010110100101101001058
:100020001901001019010010190100101F01001022
:10003000110100101901001021010010230100100E
:100040001101001011010010110100101101001028
:100050001101001011010010110100101101001018
:100060001101001011010010110100101101001008
:1000700011010010110100101101001011010010F8
:1000800011010010110100101101001011010010E8
:1000900011010010110100101101001011010010D8
:1000A00011010010110100101101001011010010C8
:1000B00011010010110100101101001011010010B8
:1000C00011010010110100101101001011010010A8
:1000D0001101001011010010110100101101001098
:1000E0001101001011010010110100101101001088
:1000F0001101001011010010110100101101001078
:100100001101001011010010110100101101001067
:10011000EFF30580103800BE00BE00BE00BE00BE7A
:1001200000BE00BEF2EB8871AC490010CC49001053
:10013000A001001090A31AE7D3DEFFFF42012110B7
:10014000FF01000008560000793512AB4FF00000A7
:100150001E49086006C881F3088810474FF05040D8
:10016000006810B14FF00000F2E70DA40ECC00299A
:1001700002D000F012F8F9E71549164A002000E015
:1001800001C19142FCD11449884714498847144958
:10019000884700BEFDE701C901C29A42FBD3704700
:1001A000CC49001010010020840E002040570010A0
:1001B0000000082000000820405700100010082010
:1001C00000100820000000007047000008ED00E06B
:1001D000840E0020B41A0020D1180010350200103F
:1001E000C9180010F8B500BF064B0749C91A891095
:1001F00048BF0131491003D0044B0BB101481847E7
:10020000704700BF840E0020840E00200000000014
:1002100008B5054B1BB105490548AFF30080BDE8A3
:100220000840FFF7E1BF00BF00000000401A0020B7
:100230000846001080B501F04BFC4FF4FA6000F066
:10024000B7FE1F4801F088FC4FF4E1311D4800F073
:10025000FFFF0221002000F03FF80221012000F002
:100260003BF8194D194E174C502100230D27B5F9B5
:100270000000174AC3B988421DD0A3699B06FCD46D
:10028000216012F8013BA3F10D03B3FA83F3B242EC
:1002900011784FEA5313EDD10E4801F05DFC4FF495
:1002A0007A7000F085FEDFE7A3699B06E8D5A369B5
:1002B0009B06F9D4E4E7A3699B06FCD42760DCE73E
:1002C0001046001000000740941A00200D46001050
:1002D00008460010244600104FF4807C0C4B00B5FB
:1002E00053F8202003EB8003C00082F0400200F1AD
:1002F000804003F5805E02F0C00200F5203003F577
:100300004053CEF800204160C3F800C000BD00BFDC
:10031000048003400FB400B5084883B001F01CFC12
:10032000049B3BB105A91846019101F0B3FA0448BA
:1003300001F012FC012001F0C5FA00BF3C4600109C
:100340004C46001070B51646EFF3108472B6DFF815
:1003500048E0DEE8CF2F0123002AFAD1CEE8423F61
:10036000002AF6D1BFF35F8F012301F0070CCA0802
:1003700003FA0CF310F802C01CEA030508D14CEA9A
:10038000030C00F802C0CEE88F5F84F3108870BDC4
:100390003046FFF7BFFF00BFBF110020F8B50F4682
:1003A0001946EFF3108672B61C4DD5E8CF4F0123E6
:1003B000002CFAD1C5E8443F002CF6D1BFF35F8F83
:1003C0008A421BD8012402E00132914222D3D30891
:1003D00010F803E002F0070C04FA0CFC1EEA0C0F04
:1003E000F2D14EEA0C0E00F803E010460023C5E8F7
:1003F0008F3F86F31088984207DBF8BD0023C5E8DD
:100400008F3F86F310884FF0FF30002FF5D006980D
:10041000FFF780FF4FF0FF30E8E700BFBF1100207B
:10042000044A1078431CDBB2182B28BF102313702A
:10043000704700BFE00D002000B5DFF81CC083B09E
:1004400001461F231822CDF800C00248FFF7A6FF7F
:1004500003B000BDD0150020504600104FF0E02240
:10046000936843F000539360704700BF0021044B32
:1004700003F12002C3E88F1F01339342FAD1704782
:10048000B41100204FF0E0234FF08032C3F8002475
:10049000C3F80424C3F80824C3F80C24C3F81024B8
:1004A000C3F81424C3F81824C3F81C24C3F8202468
:1004B000C3F82424C3F82824C3F82C24C3F8302418
:1004C00062B67047012300F01F029340400941B11A
:1004D000800000F1604000F56140C0F880310360A9
:1004E0007047024A203042F82030704700E100E0B7
:1004F0000123064A410952F8212000F01F008340E1
:10050000134214BF01200020704700BF00E100E04B
:1005100001224309034900F01F008240403341F8A3
:100520002320704700E100E0054A10309268054B37
:1005300052F82000C01A2F288CBF002001207047DD
:1005400000ED00E0E40D002010B582B0EFF3108460
:1005500072B6164BD3E8CFCF0122BCF1000FF9D110
:10056000C3E84C2FBCF1000FF4D1BFF35F8F104AEA
:1005700010309268DFF83CC052F82020624508D065
:10058000914206D0CDE9000101F06EF80199074BC8
:100590000098074A926842F82010BFF35F8F00224C
:1005A000C3E88F2F84F3108802B010BDBD11002066
:1005B00000ED00E0110100102DE9F04F06468A46DB
:1005C000154683B0EFF3108872B6714FD7E8CF2F7E
:1005D0000123002AFAD1C7E8423F002AF6D1BFF32F
:1005E0005F8F6C4991F90020002A7BDB6A4802EB9F
:1005F000420400EB840393F806C0103681F800C073
:100600006649A40089684FEA420B51F826E0AEEB38
:1006100000012F292ED962498E4540F0848043F095
:10062000010E604B02340444043B1B1BC3F34A031A
:100630006FEAC3434FF421416FEAD3435A4420F891
:10064000221000EB820253804BF601539380FF236C
:10065000D571C2F808A09371504B9B6843F826E00F
:10066000BFF35F8F0023C7E88F3F88F3108803B084
:10067000BDE8F08F2EF0010C9CF80710A9425AD962
:10068000B14601941E4603E0CB79AB4230D98C468B
:100690009CF9064004EB4401002C00EB8101F3DAE5
:1006A00000944BF6015433464E460CF10409043BCA
:1006B000A3EB0903C3F34A036FEAC3436FEAD343CF
:1006C000ACF80430384B0BEB02018CF8062040F8F4
:1006D0002130009B00EB810294809371D571C2F8A8
:1006E00008A0B9E700F0C0FF2A4991F900207DE792
:1006F0006FF007010094019C33460C1B6146241ADD
:10070000019431F8044F4E4644F30A04023401EBDD
:100710004404894601990C44C4F34A046FEAC44472
:100720006FEAD444C3E7CDE9002300F09DFFDDE983
:100730000023194873E71B4AA11CDD710144043AE8
:10074000251D521A0544ACF10401491BC1F34A01AD
:100750006FEAC141C2F34A026FEAC2426FEAD14175
:100760004FF4214E6FEAD24299800F4920F804E0FD
:100770005A804AF6AA256246121A524155432D0D57
:10078000C3F808A09D7143F0010ECCF8001063E798
:10079000BD110020AC1A0020E40D002000ED00E0A7
:1007A00011010010140E0020014880472DE9F0418E
:1007B000EFF30583DBB29E46EFF3108572B629494D
:1007C000D1E8CF2F0123002AFAD1C1E8423F002A05
:1007D000F6D1BFF35F8FDFF89C8040F00106D8F8B8
:1007E00008704AF6AA2357F82E7004461E4AA41A27
:1007F000644163431B0DB7425BB21ED092F90640C1
:100800009C4220D092F912409C4227D092F91E407F
:100810009C4225D092F92A409C4208BF032413D061
:10082000124A002492F800C0137080F806C0C1E894
:100830008F4F85F31088BDE8F081D8F808200C4C64
:1008400042F82E40ECE7002404EB440402EB84025F
:10085000FF2494714BF601549480E1E70124F3E7FF
:100860000224F1E7BD110020E40D0020AC1A0020A5
:100870001101001000ED00E000B5DFF824C083B0E6
:10088000014605230022CDF800C00448FFF786FD8D
:100890000028A8BFC0F1330003B000BDB01A00208B
:1008A0006C460010014B0B4403607047B4110020EC
:1008B00070B5104C104DAC420ED2FF26236863B1C8
:1008C000FFF7AEFD01462046FFF7ECFFA680BFF321
:1008D0005F8F0834AC42F1D370BDFFF7A1FD014634
:1008E0002046FFF7DFFF2671BFF35F8F0834AC426D
:1008F000E4D370BD7C0E0020840E002010B50446A9
:10090000FFF78EFD01462046FFF7CCFFFF23237142
:10091000BFF35F8F10BD00BF10B504460120FFF785
:100920008BFD034B03442360BFF35F8F10BD00BFFB
:10093000B4110020024B0B440360BFF35F8F70477C
:10094000B41100200D4B1A68EFF3108172B6D2E893
:10095000CFCF0120BCF1000FF9D1C2E84C0FBCF1A0
:10096000000FF4D1BFF35F8F00221B68C3E88F2F05
:1009700081F3108840BF002000217047881A0020B2
:100980002DE9F04F2DED028B85B0EFF30583DBB23F
:10099000103B9A0818BF01224FF0010103F0030B2E
:1009A00018BFA94CA94B08BFA94C0BEB820253F806
:1009B000225001FA0BF204F541539FEDA18B0292F4
:1009C0005A602FE0AB88190440F19480AB79002B7A
:1009D00040F0DE80B5F90860002EC0F21C816B6922
:1009E00006EB460603EBC603D3E90267B7F1FF3F08
:1009F00008BFB6F1FF3F0ED004EB8B01A36A0A6972
:100A0000D21AF31A934205D30123226A03FA0BF395
:100A1000134200D10E61204600F0C6FBB042B9413E
:100A2000C0F2F980B5F90860029B002EE363C9DBD0
:100A3000D5F8149006EB460A09EBCA07BB682046B6
:100A4000D7F80C80019300F0AFFB019B984271EB4B
:100A50000801B7DBB8F1000FC0F2C080D7E904315C
:100A60007C4A934200F0F8807A88B5F9080092B287
:100A700042EA0040984702460B4652EA030100F062
:100A8000AD80002B80F2CD800199B1EB020E68EBB6
:100A9000030839F93A30C7E902E8002B92DB6869AC
:100AA00003EB430200EBC202D2E90271BE4578EBD0
:100AB000010C4FEA430285DBAC462CF8083F06E008
:100AC00003EB430100EBC1015A00D1E90271BE45BD
:100AD00078EB01011A4405DB30F9323000EBC20C2F
:100AE000002BEDDA29F83A30ACF80060AB88190435
:100AF0003FF56CAF2B69EFF3108272B6D3E8CF0FDE
:100B000001210028FAD1C3E8401F0028F6D1BFF325
:100B10005F8F4FF6FF76A8880023296900B2AE8068
:100B2000C1E88F3F82F310889842FFF64FAF074627
:100B3000A1466E6905F10808B5F9083007EB470EC4
:100B4000002BC44606EBCE0215DBD2E90240AA46D2
:100B5000019704E036F935309446002B09DB03EBAE
:100B6000430506EBC502D2E90271BC4270EB0101FC
:100B7000F0DA5546019FACF8007036F93E7026F861
:100B80003E30002FD8DAAB794C46002B3FF422AF31
:100B90000023AB71B5F90860721C33463BD068691D
:100BA00005F1080E03E08E465A1C3FF415AF03EB27
:100BB000430200EBC2014F889C463F0430F93230BB
:100BC000F1D5664581ED028BEED0AEF80030298973
:100BD000664620F83210A5F808C0E5E739F83A3043
:100BE0002B812B69EFF3108272B6D3E8CF0F01216E
:100BF0000028FAD1C3E8401F0028F6D1BFF35F8F69
:100C00006B88296929F83A3000236E80C1E88F3F4C
:100C100082F31088D6E640BF05B0BDEC028BBDE87C
:100C2000F08F20460393019200F0BEFA019A039BD5
:100C300010EB020E43EB01082BE700BFAFF300807F
:100C4000FFFFFFFFFFFFFFFF00800B40601A002047
:100C500000000B408109001008460B69039198477A
:100C60000028BBD00399D1E9002306E738B5384BFB
:100C70001C692CB1BDE838400A213648FFF712BE86
:100C80000321354800F07EFA334D314BDD60FFF72C
:100C9000C7FB324A4FF0504E024403202C4B4FF01A
:100CA0000F0C18701A61DEF800204FF6FF715A70B1
:100CB0005A69A3F802C014834FF00204A2F8484016
:100CC0004FF00404A2F878404FF00504A2F89040D9
:100CD0004FF00604A2F8A8404FF00704A2F8C04065
:100CE0004FF00904A2F8F0404FF00A04A2F80841BE
:100CF0004FF00B04A2F820414FF00C04A2F8384149
:100D00004FF0010414864FF00804A2F8D840144CA8
:100D10004FF00D0E4FF00E0C9C6008249980A2F845
:100D200050E1A2F868C1A2F8600011800D4A2C625F
:100D30000D49D360FFF708FC01210320FFF7C2FB38
:100D40000A4B0A211C640348BDE83840FFF7AABDDE
:100D50002C0E0020881A002000000B40B411002047
:100D6000FFFF1000601A00208109001000200B40D6
:100D7000004870472C0E0020F0B583B09DF8284045
:100D80001D46034654B9CDE9000200F015FA019A58
:100D9000009B824265EB0101A1425BDB1969EFF325
:100DA000108072B6D1E8CF6F0124002EFAD1C1E8CD
:100DB000464F002EF6D1BFF35F8FB3F902401F6993
:100DC000002C3EDBD3F814C004EB440E3CF83E107C
:100DD000002659800CEBCE01C7E88F6F80F3108896
:100DE0004888C1E902250130C0F30E00012838BF50
:100DF0000120089A48800A61099A40EA04404A6141
:100E00001A69EFF3108172B6D2E8CF7F0125002F67
:100E1000FAD1C2E8475F002FF6D1BFF35F8F9A88FF
:100E20002CF83E201A699C80C2E88F6F81F31088ED
:100E300001211C78DA68A14002F50153596003B022
:100E4000F0BD0023C7E88F3F80F310884FF0FF30DC
:100E500003B0F0BD204603B0F0BD00BFF0B51646AC
:100E60001F4602690346EFF3108072B6D2E8CF4FF7
:100E70000121002CFAD1C2E8441F002CF6D1BFF3A7
:100E80005F8FB3F902101D69002945DBD3F814E028
:100E900001EB41023EF832400EEBC20C5C800024B4
:100EA000C5E88F4F80F3108805983546CCF81000C0
:100EB00006983E46CCF81400BCF80200CCE9025675
:100EC0000130C0F30E00012838BF0120ACF8020049
:100ED00040EA0140D3F810C0EFF3108572B6DCE8A9
:100EE000CF7F0126002FFAD1CCE8476F002FF6D133
:100EF000BFF35F8FB3F804C02EF832C099801A692F
:100F0000C2E88F4F85F3108801211C78DA68A14070
:100F100002F501535960F0BD0023C5E88F3F80F30F
:100F200010884FF0FF30F0BD03464089B0EB214FF1
:100F30003ADD58690A1402EB420210B5D3F810C02A
:100F400000EBC200EFF3108E72B6DCE8CF4F012247
:100F5000002CFAD1CCE8442F002CF6D1BFF35F8FE0
:100F6000428889B292B28A4207D000221B69C3E844
:100F70008F2F8EF31088002010BD6FEA42426FEA77
:100F8000524242800121002218699971C0E88F2FD6
:100F90008EF3108893F800C0DA68084602F5015312
:100FA00001FA0CF1596010BD00207047407870477D
:100FB0002DE9F04182B0064600F0FEF84FF47A7356
:100FC00004464FF0FF306FF00042E6FB0341A042C1
:100FD00072EB01033ABF044615460D46A61F45F1C4
:100FE000FF37B44275EB07033CBF0026374600F0DD
:100FF000E3F8301A67EB0101012871F1000106DA0C
:101000002046294602B0BDE8F04100F00FB900F0DB
:10101000D3F8864267EB010100290ADB0021174B58
:101020003246009316483B460191FFF717FF013007
:10103000E6D04FF0000C134A1349536A9F4204D87C
:10104000906AB042DCD29F42DAD10B68EFF3108095
:1010500072B6D3E8CF8F5FF0010EB8F1000FF8D170
:10106000C3E848EFB8F1000FF3D1BFF35F8F0B680F
:10107000C3E88FCF80F3108820BFDEE7450900105A
:101080002C0E002000000B40881A0020EFF3058290
:10109000D2B282B1384B5A6A8A4202D2002210463A
:1010A000704714BF012200229B6A834228BF42F08E
:1010B00001021046704770B584B003922F4A06466D
:1010C000D368157818460C46029300F06DF8029B21
:1010D00005F1040C53F82CC0039AACEB000C301A49
:1010E00064EB0101604571F100010FDB20BF224B71
:1010F000596AA14207D314BF012200229B6AB3425E
:1011000028BF42F00102104604B070BD029200F008
:1011100053F8864264EB01010029029A1BDB18494F
:101120002346CDE9001215483246FFF797FE011E0F
:1011300011DD114B5A6AA2421CD39B6AB34217D3EA
:101140000E48FFF7F1FE0C4B5A6AA242D3D200229E
:10115000104604B070BD084B5A6AA242F7D3121B66
:1011600018BF01229B6AB34228BF42F00102CAE7BE
:10117000A242E5D120BFE3E700000B402C0E002087
:101180004509001010B4054B054C064AA04214BF97
:101190001846581C10BCFFF7D5B800BFD415002066
:1011A00000800B40884600100346416A0A46986A50
:1011B000596A8A42FAD17047034B596A0A46986ABB
:1011C000596A9142FAD1704700000B4000B58E4633
:1011D000154A536A9C46916A536A6345FAD140188E
:1011E00053EB0E034FF0000228BF0122BAB10E4BA1
:1011F0005A6A531C08BF104608D04FF0FF331846F8
:1012000009494A6A9A42FCD39A4207D1064B02E046
:10121000596A914202D1996A8142F9D300BD024ACA
:10122000526A9342ECD8EFE700000B40074A536A3A
:101230009942FCD8994207D1044B02E05A6A914284
:1012400002D19A6A9042F9D8704700BF00000B4063
:1012500070B5044682B006200E4600F0EFF8002874
:1012600044D0384A3848944214BF4FF080624FF05F
:101270000062364B364902601A608D6832EA050515
:10128000FBD1304A4FF48070A21AB2FA82F231498F
:10129000520921F81200062000F0D0F8C200B2FB7B
:1012A000F6F20132D10923D1402601236362A16203
:1012B000256BEB0725D42346002153F82C2F06205D
:1012C00003F5805211602563019200F0B7F840F2F7
:1012D000013503218000B0FBF6F0E36A019A83F048
:1012E000700303F07E0313602563A16402B070BD38
:1012F0004FF6FE7081421DD929464FF6FF73164EF8
:10130000D4E740F2013204F540531A63636AA26ADB
:10131000062002EB8312019200F090F80F4B019A25
:10132000A3FB00139002DB0AB0FBF3F00021FFF7F0
:101330004DFFC0E7C2F345020B4602EB8116114692
:10134000B4E700BF008007400020024000300240A8
:1013500000000240941A0020C0FF3F00757B2B8FD5
:1013600000EB400C4FEA8C0C0CF1804C0CF5803CEF
:1013700070B51E46DCF80430041FB3F5803F38BF5B
:101380004FF48033E4B238BFCCF80430012C2ED9AE
:101390004FF40065284B0CF5405ECEF8005053F832
:1013A00020E0BEF1000F17D1DCF800E0012C8EEA3E
:1013B000421202F0E0020CF5805ECEF800202BD93C
:1013C0004FF4006143F820604FF480330CF5005275
:1013D0001160CCF8043070BD5D69B5FBFEFE0EF106
:1013E000010E0EEB4E0EBEF1030EFCD2DCE701291E
:1013F000CED103240CF540531C60DCF80830DB0729
:10140000FBD5DCF800300CF5805E83EA421303F074
:10141000E003CEF80030084B0122DCF800404C40DD
:1014200004F00304CEF8004002FA01F1DCF80820D1
:101430000A42FBD0C4E700BFD8150020014B53F887
:1014400020007047D815002010B5029C8E464FEA48
:10145000043C4CEA034C1C4BB3FBF1F30168B2FBB8
:10146000F3F4002920DB194A194B904214BF4FF4C2
:1014700080424FF4004217491A6003F580531A6006
:101480008B6832EA0303FBD1212200F54053043379
:10149000C0F800E084601A600268002AFCDA0822C2
:1014A000C0F80CC01A6010BD036803F03F03734519
:1014B000D9D18368C3F30B03A342D4D1C36803F427
:1014C000EE236345CFD110BD001BB700008005405F
:1014D00000200240000002404FF0804C214B00B53C
:1014E000C3F800C0002839D0DFF888C0A3F5405306
:1014F000C3F81CC0DFF880C040F0010080EA0C0C8B
:10150000C3F820C0596298624FF0804E4FF0E061FE
:10151000144B1548DFF864C0C3F800E0C0F808C0F9
:1015200019602AB94FF00042A3F580531A6000BD3C
:101530004FF47A7303FB02F2B2F1807F2ABF6FF09F
:101540007F4313461A464FF08041DFF834C0074806
:10155000CCF80030064B4260196000BD034BD861E7
:10156000D2E700BF00B00D4000A0014000800D4058
:1015700000A00D40D3C007B02D3FF84FF3FFFF018F
:10158000381A0020012300EB4000800000F1804069
:1015900000F5841041600360704700BF10B500245F
:1015A00082B00B46E48A002141E800F1CDE9000356
:1015B0004B0254BF1021042144F25220A047DDE920
:1015C000002386460A214FF48170F44602B0BDE83C
:1015D000104060470023DB8A002242E800F25202FA
:1015E00001D4102118470421184700BF08B503464D
:1015F0000846191E02DB1AB140F03000FFF7CEFF9B
:1016000040F02000FAE700BF034AD2F82838002B48
:10161000FBD0BFF35F8F704700000E400021044BEA
:10162000044ABFF35F8F43F8041B9342F9D170471C
:101630000C080E402C080E404FF42A6C4FF48D70AD
:10164000054A064B0649C2F800C0D06019605368CD
:10165000002BFCDA704700BF0080044000A004406B
:1016600000B0FA00704700BF08B50148FEF752FE0F
:10167000AC46001038B5054C054DAC4204D254F8C8
:10168000043B9847AC42FAD338BD00BFC0450010B8
:10169000004600100648DFF828C0064B064A0749F6
:1016A000C0F800C01A608B6832EA0303FBD17047B0
:1016B0000020024000300240F6FFF3030000024029
:1016C0007F3BEFEF044BDB6CB3F5004F03D14FF4DE
:1016D0008022024BDA647047000011500020115044
:1016E0004FF0E022044BD2F8881D0B43C2F8883D2E
:1016F00010EE3004704700BF030330006FF060410C
:10170000044B054A19609368DB4333F06043FAD118
:10171000704700BF003002400000024010B545F2A3
:101720005320FFF757FFBDE8104003460420184739
:1017300010B545F25320FFF74DFFBDE810400346BA
:1017400001201847FEF792BE1449154B70B55C1A7C
:10175000A610442E324628BF4422124D920028463D
:1017600002F062FEB4F5867F13D80F4A14D0C6F19A
:1017700044002B19410803EBC101C3E900220833DF
:101780009942FAD1C30704D520F00100304445F84E
:101790002020064B9D6070BD4320F8E7000000103C
:1017A00010010010000000201101001000ED00E009
:1017B000002370B52B4C82B0C4F88430FFF73CFF97
:1017C0000122294BDA63636C012BFCD10321264AE9
:1017D000244B11639C6B012CFCD10226052521466C
:1017E0000523224A22480096FFF72EFE21462B466B
:1017F000204A21480095FFF727FE002204203146A9
:101800001E4BFFF7ADFD2146284600221C4BFFF77B
:10181000A7FD0022082011461A4BFFF7A1FD002268
:1018200009201146174BFFF79BFD002206201146A9
:10183000134BFFF795FD0022114B07201146FFF7D0
:101840008FFD0420FFF7FAFD00240F4BA3FB0035AA
:10185000AD0CE0B229460134FFF794FE062CF8D116
:1018600002B070BD0000014000300140002F6859F7
:1018700000000540008C864700800540001BB70033
:1018800080D1F008006CDC0283DE1B4300B9704796
:1018900000F020B910B5094A84B014684CB1034671
:1018A00000914FF0FF3203A90548A047012004B082
:1018B00010BD00F051F9204604B010BD341A0020CC
:1018C0008D18001000BEFDE708B5FFF7FBFF00BF55
:1018D00038B5064C064DFFF7CDFEAC4204D254F8A5
:1018E000043B9847AC42FAD338BD00BF0046001015
:1018F00008460010036808461146184770B50546AB
:101900000846697D82B000294FD0002A25DD037882
:1019100014460A2B064622D0012C4FF0000E0DD0A3
:101920003246012312F801CF1946BCF10A0F03F128
:10193000010320D09C42F5D1744505DD2B68A4EB52
:101940000E0106EB0E009847311911F8013CA3F186
:101950000D03B3FA83F35B092B7502B070BD2B7DC9
:10196000002BD9D102212B6813489847012CEBD0CA
:101970004FF0010ED4E712F8010C0D28DAD08E4595
:1019800006EB0E00A1EB0E0105DACDE900322B6863
:101990009847DDE90032CDE9003202212B68064884
:1019A0009847009B019A9E46C4E711462B6802B0F7
:1019B000BDE87040184700BFE84700102DE9F04728
:1019C00082B090461C460D460746FFF7F5FB4FF0E8
:1019D000FF3C6FF000462E4A821841F10003944507
:1019E00076EB03013CBF624633462A4802F0E0FD35
:1019F0006B1C824640D00CB3274E284B1C68B4B1F8
:101A0000B8F1000F1CD1DFF89C8001E0246974B1AB
:101A10002368002BFAD0D8F800300BB19C42F5D1E6
:101A200020462A463946B0472469002CF0D1BAF145
:101A3000000F26D1284602B0BDE8F087184EDCE73B
:101A40004FF00A09DFF85C8002E02469002CEED038
:101A50002368002BF9D0D8F800300BB1A342F4D1A1
:101A60002A4639462046B047012220460DF107019B
:101A70008DF80790B047E8E7384602F04BFD054681
:101A8000B9E7044802F088FD284602B0BDE8F087B7
:101A900040420F007C0E0020FD1800102816002088
:101AA000F518001030160020084A136823B90AE020
:101AB00003F110021B6933B18342F9D129B91869C6
:101AC00010601961704701B110607047281600203E
:101AD00000F074BAF0B583B006468DF80700FFF742
:101AE0006BFB4FF0FF356FF00044174A821841F14D
:101AF0000003954274EB03013CBF23462A4613487A
:101B000002F056FD124B07461C689CB1114D01E0D6
:101B100024697CB12368002BFAD02B680BB19C425E
:101B2000F6D1204601220DF10701FFF7E7FE2469F7
:101B3000002CEFD117B9304603B0F0BD034802F0D6
:101B40002BFD304603B0F0BD40420F007C0E00205C
:101B5000281600203016002038B5044602F0DAFCC2
:101B6000012305461A4620462946FFF727FF084B62
:101B70001C682CB163682BB198472469002CF9D1FB
:101B8000284638BD2469002CF4D1284638BD00BF52
:101B900028160020704700BF0022014B1A707047C2
:101BA000AD1A00204B79FF2B0BD1887948B9CB793E
:101BB000012B07D1082A05D9034B8A7809201A700E
:101BC00070470020704700BFAD1A00200120704709
:101BD000012901D00120704708B5104B91881B786E
:101BE000994201D0002008BD5378012B08D0022B68
:101BF000F8D1002164220846FFF76EFC012008BDE1
:101C00005188CB0548BF480AC1F3402258BF4FF066
:101C1000FF3001F07F01FFF7E9FC00BFAD1A0020A3
:101C200000487047B4480010012907D15378012BB0
:101C300002D19388072B03D0002070470120704702
:101C40001146A623014A01F08DBA00BF0C480010CE
:101C50000346012201481A70704700BFEC4700108C
:101C600008B50B68B3F5966F00D008BD00224FF0A1
:101C7000FF301146FFF7BAFC024A034B10601960AF
:101C8000704700BFC8150020CC150020184B70B558
:101C90001A68002A28D0EFF3108172B6D2E8CF4F2D
:101CA0000120002CFAD1C2E8440F002CF6D1BFF37A
:101CB0005F8F00220F4C186859602270C0E88F2F88
:101CC00081F31088002400250B4E3078FEF710FCBD
:101CD00020B9002400252046294670BD3078FEF743
:101CE00017FC2046294670BD4FF47A740025EBE7B7
:101CF000581A0020AF1A0020AE1A0020014B1878A5
:101D0000FEF706BCAE1A002038B5044600200D468A
:101D100001F062FBA8B3002001F074FB88B3FFF769
:101D20004BFA4FF0FF3E6FF0004C174A821841F11A
:101D3000000396457CEB03013CBF724663461348A3
:101D400002F036FCE8B1002001F046FB58B901462C
:101D50004FF0FF3000F02AFD6FF002040B4802F054
:101D60001BFC204638BD002001F04CFB0028EED0C3
:101D700021462A46002001F04FFB04460028EDD101
:101D8000EAE76FF00204ECE740420F008C1A0020F3
:101D900008B5FFF711FA4FF0FF3E6FF0004C0F4A05
:101DA000821841F1000396457CEB03013CBF72466B
:101DB00063460B4802F0FCFB70B14FF0FF3000218E
:101DC00000F0F4FC002001F06DFB0028F5D1BDE827
:101DD0000840034802F0E0BB08BD00BF40420F00CE
:101DE0008C1A00202DE9F04107460E46FFF7E4F972
:101DF0004FF0FF356FF00044324A821841F1000382
:101E0000954274EB03013CBF2A4623462E4802F05C
:101E1000CFFB08B9BDE8F081002001F0DDFA002811
:101E200045D0002E3EDD0025DFF8A48012E02246DA
:101E3000002001F081FB002105444FF0FF3000F04D
:101E4000B5FC002001F02EFBFFF7B6F9C8E9000150
:101E5000AE4227DD002001F08DFB741B8442A8BF39
:101E600004467919002CE2D121464FF0FF3000F0F2
:101E70009DFC204601F016FB204601F0ADFA88B12A
:101E8000204601F077FB0028E2D1FFF795F90F4AD1
:101E9000D8F800309B18D8F8042042F100028342A1
:101EA0008A41D5D20848BDE8F04102F075BB002058
:101EB000BDE8F0410021064BC3E90001024802F0F1
:101EC0006BBB00BF40420F008C1A002020A107000E
:101ED000D010002010B5002184B0324802F06CFB15
:101EE00028BB314B1A6802B3EFF3108172B6D2E807
:101EF000CFEF5FF0010CBEF1000FF8D1C2E84ECF7A
:101F0000BEF1000FF3D1BFF35F8FDFF8A8C0D3F8A5
:101F100000E09CF800205960D3B201228CF8002028
:101F2000CEE88F0F81F31088CBB104B010BD002133
:101F30004FF0FF3000F03AFC002001F063FA044655
:101F4000184802F029FB002CEFD0184B1B68002B1F
:101F5000EBD0174A106804B0BDE810401847FEF7F0
:101F600007FF0446FFF728F94FF0FF3E6FF0004CE3
:101F700010F57A7241F1000396457CEB030138BFFE
:101F800063464FF000014FF0010C38BF7246DFF896
:101F900028E02046CDE9011CCDF800E0FEF7ECFE7C
:101FA00004B010BD8C1A0020581A0020C81500205B
:101FB000CC150020AF1A00208D1C00104FF05043AC
:101FC00030B585B01C68FEF7D3FEFEF7EFFFA042E8
:101FD00002D0002005B030BD00212C4B08461B78F4
:101FE00001F0ACFD2A480368002B4BD00120FEF71E
:101FF00043FC0346274C2849C0B22370FEF7A4FADD
:1020000020780121FEF75EFA0E20FEF78DFA60BB04
:10201000224B6FF00044C3E90000FEF7A9FE05461D
:10202000FFF7CAF84FF0FF3C10F57A7241F1000358
:10203000944574EB030138BF23464FF000014FF085
:10204000010438BF6246DFF860C02846CDE90114BC
:10205000CDF800C0FEF790FE0028BADB0121104841
:10206000FFF722FD012005B030BD0120FEF7E4F9A5
:1020700001460A48FEF75EFC00220E200949FEF7E1
:102080009BFAEBE7FEF73AFCB0E700BFC849001047
:102090008C1A0020AE1A0020D51E0010581A0020FD
:1020A000440E0020FD1C00108D1C001000487047DD
:1020B0005049001000487047FC48001000B51C4A09
:1020C0000346117883B031B363B940F209424FF44B
:1020D0004173DFF860C0ACF802201648ACF800305D
:1020E00003B000BD052B20D8134ADFF848C052F8D2
:1020F000231060460023013903E0132B20F8022F40
:1021000010D011F8012F0133DBB2002AF5D15B00AA
:1021100043F44073E1E701901121104600F024F8E8
:10212000019BD1E74FF44A73D7E70020D8E700BFFF
:10213000981A002000160020E448001000B545F26F
:1021400047308BB0FFF746FA01220346092101A868
:102150009847DDE90332034912BA1BBAC1E90023EB
:102160000BB000BD801A0020012900F0BB80614A3D
:10217000013913784FEA231CBCF1090FCCBF0CF1D5
:10218000370C0CF1300C012980F800C000F0AD8054
:1021900003F00F03092B8CBF373330330229437010
:1021A00000F0A38053784FEA231CBCF1090FCCBF89
:1021B0000CF1370C0CF1300C032980F802C000F050
:1021C000948003F00F03092B8CBF3733303304297D
:1021D000C37000F08A8093784FEA231CBCF1090F8A
:1021E000CCBF0CF1370C0CF1300C052980F804C081
:1021F0007BD003F00F03092B8CBF37333033062914
:10220000437172D0D3784FEA231CBCF1090FCCBFC5
:102210000CF1370C0CF1300C072980F806C064D0A3
:1022200003F00F03092B8CBF373330330829C371F8
:102230005BD013794FEA231CBCF1090FCCBF0CF122
:10224000370C0CF1300C092980F808C04DD003F090
:102250000F03092B8CBF373330330A29437244D024
:1022600053794FEA231CBCF1090FCCBF0CF1370C9A
:102270000CF1300C0B2980F80AC036D003F00F03A4
:10228000092B8CBF373330330C29C3722DD093798F
:102290004FEA231CBCF1090FCCBF0CF1370C0CF139
:1022A000300C0D2980F80CC01FD003F00F03092B50
:1022B0008CBF373330330E29437316D0D3791A11BC
:1022C000092ACCBF373230320F2982730DD003F088
:1022D0000F03092B94BF303337331029C37318BF52
:1022E000103002D0002303707047002308440370AD
:1022F000704700BF801A002010B500F039F90C2398
:102300001C4CFF22A3670E201B49FEF755F9402203
:1023100000211A4802F044F84FF0800C0120174ABF
:102320000023A2F822C050701046402214490283B4
:102330000287144A81604360C2F88430C2F880305A
:1023400080F8213080F83B3043620F4BC360C3629A
:10235000803B836202F010F94FF0005C4FF4803252
:1023600001200A490A4B2064C4F84CC0C4F89010FC
:10237000DA6410BD000011509903002034160020CB
:1023800084001050000010500001105010D00100C7
:102390000020115001210E20FEF794B800220248BF
:1023A000114600F005B900BF54160020044B197007
:1023B00021B14FF40032034BC3F89020704700BFA7
:1023C000AA1A0020002011500B785B0600D070473D
:1023D0004B78052BFBD14B88014ADBB21360F6E743
:1023E00000001150CB7803F0030CBCF1010FC3F3D4
:1023F000010062D02DE9F041002691F802E0364C50
:102400000EF07F0253008988984603EBDE1304EB3D
:1024100043134FEADE15D876C1F30A0185F00100B7
:1024200083F802E019835870DE70D300002D32D19A
:102430002A48043304EB821E1F18CEF808701E5081
:1024400092B3274B03EBC203CEF804303F31890926
:10245000BCF1020F14BF8B01CB01224908EB05062A
:102460000A6804EB461613440B601F49F2608B4266
:102470002DD808EB050304EB4314E17E82F0A04263
:1024800082F48012636842EA816242F000420120D5
:102490001A60BDE8F081114804EB821E0344CEF8B7
:1024A000283040F8326052B91346104A04EB451404
:1024B0000120E2606360BDE8F08100207047D20037
:1024C00002F1A04202F58012CEF82420BEE7FFF709
:1024D000CBF8F268CDE700BF341600208000105022
:1024E000040010503C1A0020FF0F10500001105043
:1024F00002F042B808B59646DFF81CC001F07F0232
:10250000C80900EB42000CEB40101A46714600F07F
:102510004FF8012008BD00BF3416002011F07F02E3
:1025200005D100290CBF02200120064B9866C9097D
:10253000054B01EB420003EB40104FF40062002119
:1025400002F032B8002011503416002011F07F0341
:1025500000D17047002205485B0003EBD11300EB6C
:1025600043106FF40061C27002F01EB834160020F0
:102570004FF0805209480A4908B50A4B02600A60C8
:102580009968C94311F08051FAD14FF4805206483E
:1025900001F006FF0922054B5A6708BD00200240E2
:1025A00000300240000002400000105000001150B6
:1025B00000234FF0010C10B5016180F81AC082822F
:1025C000C382044601F0E0FF20B14FF40032074B14
:1025D000C3F89020204601F0E3FF10B101232377D8
:1025E00010BD2046BDE8104001F0D2BF00201150C0
:1025F0002DE9F04100241C4D064623462A78DFF8D9
:1026000078801A4F0DE03B6813EB441323D0DB684E
:10261000304698472A780134E4B2511CA14223463F
:1026200006DBA242A3EB0203EDD808EB4313EEE76F
:10263000542200210E4801F0B3FE4FF0FF330C4C42
:102640002022C4E90133C4E90333FF21BDE8F0418E
:10265000084801F0A5BE4FF0E023D3F8F03DDB07BA
:1026600000D500BEBDE8F081A91A0020D8100020D6
:10267000E0110020F411002064490010704700BFF1
:10268000704700BF0020704700207047704700BFB0
:10269000704700BF704700BF704700BF024B5878BB
:1026A000003818BF01207047E0110020024B187855
:1026B000C0F38000704700BFE01100202DE9F04713
:1026C000DFF8E48098F80030FF2B53D100293CD08C
:1026D00054228A4681460021284801F061FE0022EA
:1026E000274C284B20461A70FEF708F9264B27483E
:1026F0001C60274CFEF710F9204601F017FE254A12
:10270000254B146023B12548FFF7A2FA244B18602B
:102710000024224D23462A78224F214E0DE03368B3
:1027200013EB441311D05B687BB198472A780134CE
:10273000E4B2511CA142234611DBA242EFD89B1AFE
:1027400007EB43135B68002BEFD14FF0E023D3F886
:10275000F03DDB0700D500BE0020BDE8F087514604
:10276000484688F80090FFF7C7FD0028EDD048469E
:10277000FFF710FE0120BDE8F08700BFE011002048
:10278000D8110020AB1A002034120020700E002057
:102790005C0E002038120020511C0010A91A0020E5
:1027A000D810002064490010780E0020954B1B784B
:1027B000FF2B00F019812DE9F04F934C934DDFF87A
:1027C0006082934F8BB026687369EFF3108272B604
:1027D000D3E8CF0F01210028FAD1C3E8401F002819
:1027E000F6D1BFF35F8FB261304607A901F0E4FB79
:1027F00000237269C2E88F3FB36983F31088002811
:1028000000F0CA809DF81D30013B072B00F29E832B
:10281000DFE803F0A5AF939B8C350A04089B002BDF
:10282000D1D009989847CEE79DF8201001F07F0697
:1028300005EB460000EBD11090F8343023F0010393
:1028400080F8343090F8343023F0040380F83430CA
:10285000002E00F0A480037D98F80020934280F0C1
:1028600091806C4A126812EB431300F08E809E69CF
:102870009DF82120099B9DF81C00B047A3E73B78F9
:10288000002B00F082803B78013B3B703B7803F0EB
:10289000FF00002B97D1DFF874A19DF81CB09AF8C7
:1028A000003043F001038AF800309AF8343060F3C6
:1028B00000038AF834309AF8343060F382038AF8DF
:1028C00034309AF8353060F300038AF835309AF8DE
:1028D000353060F382038AF8353000F0A7FC9DF8AC
:1028E000203003F06002602A6CD0402A7DD003F0D3
:1028F0001F03012B00F0C380022B00F09380002BFC
:1029000060D1202A00F00282002A5BD19DF821309C
:10291000092B57D8DFE813F0BF01AF015600D101F2
:102920005600A001760156006A01F9002B78D907FC
:102930007FF549AFFFF7B0FE45E7EB78DA077FF5A3
:1029400042AF0898FFF79CFE3DE72B78D8077FF54C
:102950003AAF2878C0F3C000FFF79CFE33E79DF83C
:102960001C00FFF745FE00F057FC9DF82030AB70CF
:1029700029E79DF81C00FFF73BFE00F04DFCFFF738
:1029800087FE20E7501C984211DA4FF0E023D3F87D
:10299000F03DDC0700D500BE0BB0BDE8F08F099B11
:1029A0009DF821209DF81C0000F054FC0BE79B1AB9
:1029B000194A02EB43135AE7FFF77CFB0246002853
:1029C00040F094814FF0E023D3F8F03DDE0700D5CE
:1029D00000BE9DF81C000021FFF7A0FD80219DF89E
:1029E0001C00FFF79BFDEEE670470C4800F01EFC54
:1029F0000121584608AAFFF717F900287FF4E3AE33
:102A0000E7E700BF780E002038120020E011002018
:102A1000AB1A0020D810002064490010291C0010B7
:102A2000A91A00209DF8241011F0700FCAD1B448E3
:102A300001F07F0390F800C00AEB430000EBD110D7
:102A4000007D60454DD30CF1010E8645C0F27081CA
:102A5000A0EB0C00DFF8ACC20CEB40100090002A99
:102A600000F06A81009E706900F0E0FB0121584689
:102A7000736908AA984700287FF4A5AEA9E79DF8D6
:102A800024300F2BA5D89E4A53441B7912789342C9
:102A900035D3511C99429CDB9A4E9B1A06EB431688
:102AA000706900F0C3FB01215846736908AA984772
:102AB00000287FF488AE9DF8203013F0600688D19E
:102AC0009DF821300A3B012B83D800F0AFFB9DF825
:102AD00021300A2B00F01382584608A900F026FB8B
:102AE00071E6DFF824C2DCF800C00CEB4010009067
:102AF000002A00F0218100283FF46BAFB2E7824A40
:102B0000166816EB4316CBD163E79AF801209DF8BF
:102B10002230934200F064819AF80120002A40F0AC
:102B2000D8818AF80130002B00F05881013BD8B2DF
:102B3000FFF7C0FA002800F074814378022B40F0C0
:102B40007081C2799AF80010C2F340131B01C2F3DE
:102B5000801221F0300143EA42130B438AF800301F
:102B6000438800F10901C3180293029B8B4240F293
:102B7000C3814B780B2B00F0CC810120042B40F05B
:102B800050810022029B00925B1A1FFA83F95C4B72
:102B900001921B7803901FE05B4B1B6813EB421301
:102BA00000F03F814A461E69584605910493B0479C
:102BB0000246009B082A059903F1010003D99145BB
:102BC000049B80F012814E4BC0B21B7800905A1CBF
:102BD0009042019000F32581009A01989342A0EB66
:102BE0000303D9D8474A02EB4313DBE79AF80130D5
:102BF00058468DF81A300DF11A02012308A900F089
:102C0000B1FAE0E5BDF82200030A5A1EC0B20E2A4E
:102C10003FF6DFAE01A151F822F000BF552E0010A3
:102C2000DB2C0010912E0010D3290010D3290010A6
:102C3000732E0010DB2C0010D3290010D3290010B4
:102C4000D3290010D3290010D3290010D329001054
:102C5000D3290010472E001008A800F0EDFA5846BE
:102C60009DF82210FFF79AFB9AF8003043F0020318
:102C70008AF80030A7E5BDF82230012B7FF4A9AE19
:102C80009AF80030584623F0080308A98AF8003063
:102C900000F04CFA97E558469AF800309A0802F08E
:102CA0000202C3F340131343ADF81A300DF11A02B8
:102CB000022308A900F056FA85E5BDF82230012B61
:102CC0007FF487AE9AF80030584643F0080308A90D
:102CD0008AF8003000F02AFA75E5022B3FF46CAE5A
:102CE000FFF7D2FC024600283FF473AE58465388E3
:102CF00008A900F037FA00287FF465AD69E600BF47
:102D0000A91A002064490010D81000209DF8243032
:102D10000F2B3FF65EAE924A53441B7912789342D2
:102D20001ED2904A166816EB43167FF49CAE50E60E
:102D3000002A7FF44EAE00929DF821C00CF0FD02F7
:102D4000012A16D0BCF1000F7FF43CAE0AEB43031E
:102D500003EBD11393F834305846C3F34003A3E791
:102D6000511C9942FFF635AE7F4E9B1A06EB431677
:102D700079E6BDF82220DAB97C48BCF1010F007871
:102D800000F08E80CDE90113FFF7C8FB029B01998B
:102D90000AEB430303EBD11393F8342042F0020211
:102DA00083F8342093F8342042F0010283F8342071
:102DB000009B002B3FF407AD1E46586900F036FA21
:102DC0007369012108AA58469847002000F02EFA9E
:102DD0009AF83530DB073FF5F6AC7DE6FFF758FC97
:102DE000584608A900F0A2F9EDE40398012800F084
:102DF000A680002800F09280002391F802E007E00E
:102E0000009E8CF804605FFA83FC604540F2868087
:102E10000EEB030C5AFA8CFC9CF804600133FF2E75
:102E2000EED04FF0E023D3F8F03DD90700D500BE37
:102E30004FF0E023D3F8F03DDA0700D500BE0023C1
:102E40008AF80130C5E5FEF7EBFE024600287FF464
:102E50004DAFBEE5FFF72AF9024600283FF4B2ADB8
:102E60005846122308A900F07DF900287FF4ABAC86
:102E7000AFE5FFF707FC024600283FF4AAAD58462D
:102E8000137808A900F06EF900287FF49CACA0E547
:102E9000BDF82410FFF712F902460028EFD198E59B
:102EA000CDE902320191FFF751FB029B01990AEB38
:102EB000430303EBD11393F83410039A62F34101F7
:102EC00083F8341093F8341062F3000183F834105F
:102ED0006EE7002158460193FFF768FA5846FFF75E
:102EE00007FB9AF8022058460092FFF781FB009AF0
:102EF000019B8AF8022014E6FFF7C8FB70E75846EA
:102F0000012308A90DF11A028DF81A6000F02AF9C0
:102F100059E40B78C87819444B782FE6009B144885
:102F20000392009100F0BCFE0D4B039A00991B78B0
:102F30001144019A01339342BFF617AE71E7D3F8FB
:102F400010C00C4B9C4508BF022055E74FF0E02312
:102F5000D3F8F03DDB077FF536AC00BE33E400BFAD
:102F6000A91A0020D810002064490010780E002013
:102F7000F41100207D3600102DE9F84F0A9F002A39
:102F800040D00C461E4615464FF0000BDFF88090EF
:102F9000DFF8808016E0204698F8021099F800A02B
:102FA00000F04EFED0B121465046FFF71BFAE0B1CB
:102FB000A3780BF1010BDA0920D1AB453B7021D08E
:102FC00023781C446378052B0FD1E17801F00301CD
:102FD000B1420AD1A37813F0700FDCD04FF0E02398
:102FE000D3F8F03DDA0700D500BE4FF0E023D3F868
:102FF000F03DDB0709D40020BDE8F88F0B9AAB4504
:103000001370DDD10120BDE8F88F00BEF3E700BFEB
:10301000780E0020E01100208B7813F0700F08D09C
:103020004FF0E023D3F8F03DDA0700D500BE0020D2
:10303000704710B582B0084601910C490C4A897856
:10304000147800F0FDFD48B94FF0E023D3F8F03DCF
:10305000DB0700D500BE002002B010BD204601995C
:1030600002B0BDE81040FFF7BDB900BFE01100207D
:10307000780E00200A46064B06481968D3093433F7
:1030800002F07F0203EB4203184400F08DBD00BF45
:1030900034120020E01100200A46064B0648196849
:1030A000D309343302F07F0203EB4203184400F0EB
:1030B000ABBD00BF34120020E011002010B519484C
:1030C00001F07F0400EB440000EBD11090F834C015
:1030D0001CF0010F08D04FF0E023D3F8F03DDA07E1
:1030E00000D500BE002010BD00F1300494F804C0EB
:1030F0000D484CF0010C007884F804C0FFF7FAF991
:103100000028F0D14FF0E021227960F30002227113
:10311000227960F382022271D1F8F03DDB07E1D51C
:1031200000BEDFE7E0110020780E0020DFF830C09D
:103130000023624610B58E46044608684968CCF8FC
:103140000C3003C29EF800102046BDE8104081F00C
:10315000FF011A4601F08001CCF80830FFF7AEBF3E
:10316000A0110020DFF8ACC070B5154662460024FF
:103170008E4606460868496882B003C2CCF80850FB
:10318000ACF80E40BEF80620934228BF1346ACF8B8
:103190000C308AB133B3DDB19CF90020402B28BF3D
:1031A0004023002A29DB21463046194AFFF786FFD3
:1031B00070B1012002B070BD9EF80010134681F07E
:1031C000FF01304601F08001FFF778FF0028F0D1C1
:1031D0004FF0E023D3F8F03DDB0700D500BE002020
:1031E00002B070BD1A469CF8001001F08001304614
:1031F000FFF764FF0028DCD1EAE71A4629460448B5
:10320000019301F011F98021014A019BEFE700BF12
:1032100060110020A01100200022034BC3E900220E
:10322000C3E902221A617047A0110020014B186106
:10323000704700BFA01100200146054A4FF0000C66
:10324000134600684968C2E902CC03C3704700BF57
:10325000A011002030B53E4CC90922780546B1EBDB
:10326000D21F83B017D053B14FF0E023D3F8F03D15
:10327000DB0702D4002003B030BD00BEFAE72146D0
:10328000FFF7A2F823691BB122460321284698477D
:10329000012003B030BD94F90020002A08DBA068AB
:1032A0000028E7D01A462B49019301F0BDF8019B95
:1032B000E089A168E288184480B219448242E08122
:1032C000A16016D03F2B14D9A28994F90040131A9B
:1032D0009BB2402B28BF4023002C28DB90424FF0AC
:1032E000000132D01B4A2846FFF7E8FE0028CFD164
:1032F000BAE7236923B102212846154A984768B1E5
:1033000000232178284681F0FF011A4601F0800150
:10331000FFF7D4FE0028A7D00120BAE701462846CF
:10332000FFF7FCF880212846FFF7F8F8B0E7904255
:1033300008D01A460748019301F076F88021054A23
:10334000019BD0E780210022CDE70A46CBE700BFF2
:10335000A01100206011002070B582B00446FFF774
:103360009DF908B902B070BDFFF7A0F90246002828
:10337000F8D1C82304FB03F315492546CC18E0789F
:103380000028EFD010335E183046019200F002FEA4
:103390003F28E7D9E1780198FFF76CFE0028E1D0DB
:1033A000304600F0F7FD3F28E1780AD94023DFF8E6
:1033B00024C001980CEBC51202B0BDE87040FFF7C5
:1033C0007DBE019802B0BDE87040FFF765BE00BF4A
:1033D000880E0020DC10002010B50446FFF75EF9CF
:1033E00008B9002010BDFFF761F90028F9D1C82203
:1033F000034B02FB0433187900F0010010BD00BF3D
:10340000880E0020C82208B5024B02FB003000F0F5
:10341000A7FD08BD980E00204FF6FF732DE9F0417F
:10342000C8249A4228BF1A4600FB04F41B4D04F13D
:10343000100382B0804692B258195F1900F00AFE5C
:103440000646FFF72BF918B9304602B0BDE8F08107
:10345000FFF72CF90028F7D12544EA78002AF3D0A9
:103460000190384600F096FD3F28EDD90198E978A3
:10347000FFF700FE0028E7D0384600F08BFD3F281C
:10348000E97807D9064A4023019802EBC812FFF7F2
:1034900015FED9E70198FFF7FFFDD5E7880E00205C
:1034A000DC100020F0B583B00546FFF7F7F810B93F
:1034B000002003B0F0BDFFF7F9F804460028F7D16B
:1034C000C82305FB03F31A4A03F124018F18384679
:1034D000009300F045FD0028EAD0154A009B2046E5
:1034E000D618B178FFF7C6FD0028E1D0114938465B
:1034F00001EBC5114022009100F0ACFD96F802C02E
:10350000034670B1019061462046009AFFF7D6FD50
:1035100058B94FF0E023D3F8F03DDB07C8D500BE23
:10352000C6E76146FFF7B8FDC2E70198C1E700BFF3
:10353000880E00201C11002070B505464FF6FF7064
:10354000C823824228BF0246094C92B203FB0544BD
:10355000204600F043FE0646204600F001FD3F28CD
:1035600001D8304670BD2846FFF79CFF304670BD3D
:10357000AC0E0020C82208B5024B02FB003000F060
:1035800009FD08BDAC0E002070B5002482B0C82231
:103590000021184800F004FFFF234FF4E131082216
:1035A0001548047013480094064643718160827385
:1035B00000F1380101234022103000F0A1FC01236A
:1035C000402206F17801009306F1B80506F12400C7
:1035D00000F096FC2846FDF791F906F1C000FDF7D2
:1035E0008DF906F1C000C6E90745C6E90C0402B032
:1035F00070BD00BF880E00205C1100200A4B196BC3
:103600001A6A61B13AB10022C3E90C22DA610022E0
:103610001A62012070470120C3E90C227047002A7A
:10362000F7D0D961F3E700BF880E002000221049CF
:1036300008B510480B7802600271DA0707D59B07BE
:103640000CD5BDE8084001210B4800F08BBE1030BE
:1036500000F06CFE06490B789B07F2D4064800F098
:1036600065FEBDE808400121034800F07BBE00BFB5
:103670005C110020880E0020AC0E002070B54B7944
:1036800084B0022B02D18B79022B03D00024204678
:1036900004B070BD2B4B9B783BB14FF0E023D3F8C7
:1036A000F03DDB07F2D500BEF0E78B7805462548F4
:1036B00003700B78194491F801C0BCF1240F08BFC6
:1036C000092409D03BE00B78194491F801C0234448
:1036D000BCF1240F9CB207D19442F4D90020FFF72B
:1036E0003BFE204604B070BD6346BCF1050F16D00A
:1036F000042BF3D14B790A2BF0D1134B0A780193A9
:103700000133009302231646114428461A46FFF758
:1037100033FC0028C1D00E3433199CB2DEE72846B2
:103720000391FFF779FC03990028B6D08B78054AFE
:1037300053700B781A1919444B7894B2D8E7634642
:103740000924D2E7880E00208A0E0020137803F0A7
:103750006003202B0BD100B5DFF8BCC093889CF828
:1037600000E083B09E4504D0002003B000BD0020DF
:1037700070475378203B032BF6D8DFE803F02C2763
:103780000D02012933D0032922D11E4B03B300209F
:103790005188AFF300801BE0012928D0032917D1FD
:1037A0005288194802F0010383F0010101938CF85B
:1037B0000420009200F0D6FD144949B1009A00207F
:1037C0000199C2F34002AFF3008001E0012912D059
:1037D000012003B000BD01290DD00329F8D10C4B05
:1037E000002BF5D000200B49FEF73AFAF0E711461E
:1037F000FFF79CFCECE711460723064AFFF7B2FCF3
:10380000E6E700BF00000000AC0E00200000000052
:10381000611C0010900E0020880E00202DE9F04160
:10382000354C0D46E27807468A421E4682B02FD0BC
:10383000A3788B4209D04FF0E023D3F8F03DDB07AB
:1038400024D4002002B0BDE8F0812C4B13B100203D
:10385000AFF300800020FFF725FE002847D128485D
:1038600000F07EFB002842D1002E40D016F03F052C
:103870003DD13846A178FFF7FDFB002837D02B4615
:103880002A463846A178FFF719FC30E000BED8E799
:103890009AB21C4904F1100000F0A0FC1A4BD3B1FD
:1038A0006279FF2A17D0B6B1164B03EB060802E087
:1038B000434510D0627913F8011B9142F8D11348A7
:1038C000019300F05DFB019B0028F1D16179AFF31A
:1038D0000080019BECE70E4B1BB10C4800F050FB45
:1038E00038B10020FFF738FDA378AB42ADD00120FE
:1038F000A8E7AFF30080F4E7880E00200000000086
:10390000AC0E0020DC10002000000000980E00200B
:1039100000000000F0B54FF4137285B0002112488A
:1039200000F03EFD402600234FF480750E4F0F4CF3
:1039300007F5A6721946CDE90246009201951A468E
:1039400007F5947000F0D6F9002307F128013444FC
:10395000009101221946CDE902460195381D00F07B
:10396000C9F905B0F0BD00BF7C130020FC12002097
:1039700008B5044800F0EAF9034800F0E7F901202F
:1039800008BD00BFA41400208013002038B5002516
:10399000064C04F59870257000F0C8FC04F10C008A
:1039A00000F0C4FC84F82951657138BD7C130020F7
:1039B0002DE9F8434B79FF2B05D1354F7E7997F8E8
:1039C00029311E4302D00020BDE8F8838B780C78A3
:1039D0003B700B79814688460C44002B34D0A518E7
:1039E00003E0AC4230D223781C446378052BF8D135
:1039F000AC4229D221464846FFF70EFB00283ED0B4
:103A0000A378DB0925D1234800F090FCA37897F830
:103A1000282187F82931A3884846C3F30A03A3F570
:103A20000073B3FA83F35B0963F341021A4987F821
:103A3000282100F0FDF910B3237898F8042001360E
:103A40001C44F3B29A42D0D8A4EB080080B2BDE87F
:103A5000F883124800F06AFCA3783A797B71A38856
:103A60000F49C3F30A03A3F50073B3FA83F35B09A9
:103A700063F3410200203A7100F0A0F9DCE74FF057
:103A8000E023D3F8F03DDB079DD500BE9BE700BFE8
:103A90007C130020AC140020A41400208813002004
:103AA0008013002010B5DFF890C004469CF829214F
:103AB00082B08A421AD09CF805208A4202D00020A7
:103AC00002B010BD174A2AB199B200200193AFF39A
:103AD0000080019B20461449019300F06FF998B9CA
:103AE0002046019A104900F033F90DE0BCF834216A
:103AF0006AB90E4A22B100200D499AB2AFF3008094
:103B000020460C4900F094F9012002B010BD9AB291
:103B1000DCF82C110CF59870019300F05FFB019B11
:103B2000E7E700BF00000000801300200000000055
:103B3000FC120020A41400207C13002000B583B0E8
:103B4000D9B101280ED80B7863B1DFF858C0012B2A
:103B50000CF8003002D0012003B000BDFEF7AEFD2E
:103B60000028F8D14FF0E023D3F8F03DDB0702D472
:103B7000002003B000BD00BEFAE70122084601A9FB
:103B8000ADF80420FEF79AFD012238B94FF0E0238A
:103B9000D3F8F03DDA07ECD500BEEAE7014B1A7026
:103BA000E7E700BFD4110020037813F001031ED112
:103BB00030B50246007883B00446400702D5184667
:103BC00003B030BD08460D464FF0FF31019200F0C2
:103BD000D7FC019A137813F001030BD11178490730
:103BE0000AD41178012341F00401117004E000238C
:103BF00018467047C4F380032846019300F0CCFCBC
:103C0000019B184603B030BD70B50D4604464FF019
:103C1000FF31284600F0B4FC2378C3F380065B072D
:103C200008D5237813F0010311BF0026227863F32F
:103C300082022270284600F0AFFC304670BD00BF03
:103C4000C378828803F003000228C2F30A0215D069
:103C500003280AD001281CD1022940F2FF3308BFF3
:103C60004FF4806393420DD37047022914BF402361
:103C70004FF48063934205D30120704702290AD094
:103C8000402AF9D94FF0E023D3F8F03DDB0700D507
:103C900000BE00207047B2F5007FEDD0F2E700BF14
:103CA0000A44914225D291F801C0BCF1050F05D01C
:103CB00091F800C061448A42F5D8704700B591F888
:103CC00002C00CF07F0E00EB4E0E4FEADC1C0EF82B
:103CD0000C3091F800C061448A4209D991F801C0C2
:103CE000BCF1050FEBD091F800C061448A42F5D8D1
:103CF00000BD704770B584B0009390F800C01646C0
:103D000061F3000CBDF8242004460123089900F853
:103D100008CBBDF82C50039200F0F2F8089B0BB1D1
:103D2000039A2AB901200A9B6580636004B070BDC4
:103D300004F11C000390FCF7E1FD03981EB9334623
:103D4000C4E90530EEE703460020F9E7012070479B
:103D500070B50646084640F2FF130C4610F8081BE3
:103D600082B011F0020F01920CBF3F251D4600F0FA
:103D7000F7F8019A28B922B1154202D12378DA075F
:103D800002D5002002B070BD30466178FFF772F9AD
:103D90000028F6D0237813F0010307D04FF0E0237A
:103DA000D3F8F03DDB07ECD500BEEAE71A46304613
:103DB0006178FFF783F90028E4D1EFE770B5054695
:103DC00082B001F108000C4600F0CAF810B1237867
:103DD000DA0702D5002002B070BD28466178FFF7EF
:103DE00049F90028F6D06288616804F1080000F003
:103DF00031F92278034602F0010240B172B14FF06E
:103E0000E023D3F8F03DDB07E4D500BEE2E7002A6B
:103E1000E0D128466178FFF73FF9DBE7019062685F
:103E200028466178FFF74AF90028E8D00198D2E7E0
:103E30002DE9F0418A890C4605460B7882B02AB9F3
:103E4000DE0737D5002002B0BDE8F081990704F104
:103E5000080047BF4FF47E484FF400764FF6C07815
:103E6000402600F097F8864204F10807EAD8237844
:103E7000DA07E7D428466178FFF7FCF80028E1D09C
:103E8000384600F087F82378864203F001032ED8E5
:103E9000C3B9638808EA0002934228BF13466178D9
:103EA000002B2BD0626828460193FFF707F948B131
:103EB0000198C8E74978FFF7DDF80028C2D02378D9
:103EC000D80707D54FF0E023D3F8F03DDB07B9D58D
:103ED00000BEB7E7638861783BB162682846FFF7A8
:103EE000EDF80028EED06088ADE71A46F6E7002B23
:103EF000A8D128466178FFF7CFF8A3E71A46D2E7A2
:103F00002DE9F041B2F5004F9DF8185024D8044631
:103F1000C06898460F46164618B14FF0FF3100F0C2
:103F20002FFB206918B14FF0FF3100F029FB002270
:103F3000C8F30E03E06843EAC53362812760A680B8
:103F4000E380228108B100F027FB206908B100F06E
:103F500023FB0120BDE8F0810020BDE8F08100BF17
:103F6000038942899BB292B28088934236BFC2EBEA
:103F700040029B1A9B189BB2984228BF1846704774
:103F80000289438990B29BB2C01AB0FA80F040090E
:103F9000704700BF038942899BB2808892B29342E6
:103FA00036BFC2EB40029B1A9B189BB2984286BF59
:103FB000C01A80B20020704730B5044600690D4633
:103FC00083B018B14FF0FF3100F0DAFA228961892D
:103FD00092B289B2A3888A4236BFC1EB4300501A1D
:103FE000801880B268B3834209D29A422CBFD21A99
:103FF000D21891B28B42618103D8C91A89B28B421F
:10400000FBD9E2882368C2F30E0202FB0131284685
:1040100000F00AFA6289A38892B2511C89B28A42DE
:104020004FF0010210D9002103FA02F0091A2069A9
:10403000618118B1019200F0AFFA019A104603B005
:1040400030BD0246618989B2B1EB430F4FEA4300AC
:10405000EDDBEBE72DE9F04105460069884682B0CB
:1040600028B14FF0FF31009200F08AFA009A2989B6
:104070006B8989B29BB2AC88994236BFC3EB4406C8
:10408000CE1A7618B6B2002E4BD0B44241D3B2420B
:1040900028BF32469C4296B203D81B1B9BB29C425F
:1040A000FBD9B5F806C0E01A296880B2CCF30E023D
:1040B0008642174602FB031125D910FB02F2404647
:1040C00092B20193009200F0AFF9019B009A341B69
:1040D000234408EB020013FB07F2296892B200F0B8
:1040E000A3F96A89AC8892B293199BB29A421AD901
:1040F00062009B1A28696B8108B100F04DFA3046C6
:1041000002B0BDE8F081404606FB02F200F08CF9F7
:10411000E7E7A1422CBF091B09198BB226466B8128
:10412000B5E76B899BB2B3EB440F4FEA4402E1DB86
:10413000DFE700BF70B50446C0680E4682B018B114
:104140004FF0FF3100F01CFA2589238961899BB269
:1041500089B2A2888B4236BFC1EB42015B1A5B1861
:104160009BB29A42ADB20BD8E179C90908D1E06897
:1041700018B1019100F010FA0199084602B070BD23
:10418000954228BF2B4617D39B1A9BB29342FBD272
:10419000E2882068C2F30E0202FB0300314600F001
:1041A00043F96B1C9BB29D42A28811D90023510098
:1041B0005B1A01212381DAE7E2882068C2F30E024C
:1041C00005FB0200314600F02FF90135A288ABB2A1
:1041D000B3EB420F4FEA4201EBDBE9E72DE9F04791
:1041E000154682B0002A4AD00446C068884618B1F5
:1041F0004FF0FF3100F0C4F9E17926896389C909DC
:10420000A288B6B29BB23ED19E4236BFC3EB4203F8
:10421000F31A9B199BB2934253D2D31A9BB2AB426F
:1042200028BF2B469DB27319B4F806C01FFA83F954
:10423000A5EB020A9642334603D39B1A9BB29342E4
:10424000FBD2D21A91B22068CCF30E02A9421746D3
:1042500002FB030052D3414605FB02F200F0E4F8F2
:10426000A3884E454FEA430202D8B9EB430F01DB66
:10427000A9EB0209E0682A46A4F8089028BB10467A
:1042800002B0BDE8F087954227D29E4236BFC3EB0D
:104290004201F11A891989B250002944AF1A8142AA
:1042A000BA4608DB991889B24E1BB6B2B3428946AA
:1042B00038D9301A86B2AB191FFA83F9B4F806C0A0
:1042C000B8E70022E0680028D9D0009200F064F935
:1042D000009A104602B0BDE8F087002AF2D0B4F888
:1042E00006C0AD1A99181E46CCF30E0303FB0588D1
:1042F0004FF0000A15461FFA81F99BE711FB02F205
:10430000414692B20193009200F08EF8019B009A10
:10431000534413FB07F308EB020120689AB200F044
:1043200083F89DE7B042C4DDC8E700BF10B504467E
:10433000C06818B14FF0FF3100F022F9206918B1C0
:104340004FF0FF3100F01CF90023E0686381238106
:1043500008B100F021F9206908B100F01DF9012031
:1043600010BD00BF38B50446C0680D4618B14FF007
:10437000FF3100F005F9206918B14FF0FF3100F06E
:10438000FFF8E379E06865F3C713E37108B100F063
:1043900003F9206908B100F0FFF8012038BD00BF23
:1043A00030B584078646034606D0A2B303F8011B46
:1043B000980702F1FF32F8D1032A26D95FFA81FC6F
:1043C0000F2A0CEB0C2C0CEB0C402AD922F00F0C12
:1043D0009C44C3E90000C3E9020010336345F8D1EF
:1043E00012F00C0F02F00F0517D04FEA950C1A4689
:1043F0000CF1FF3403EB8C0C42F8040B6245FBD14B
:10440000043305F0030203EB840322B11A4403F8DA
:10441000011B9A42FBD1704630BD2A46002AF5D1D5
:10442000F9E71546E1E700BF844641EA000313F0CF
:10443000030349D1403A23D30B6803604B684360C0
:104440008B688360CB68C3600B6903614B69436110
:104450008B698361CB69C3610B6A03624B6A4362F8
:104460008B6A8362CB6AC3620B6B03634B6B4363E0
:104470008B6B8363CB6BC36340304031403ADBD2FC
:1044800030320BD30B6803604B6843608B688360EA
:10449000CB68C36010301031103AF3D20C3205D320
:1044A00051F8043B40F8043B043AF9D2043208D0F6
:1044B000D2071CBF11F8013B00F8013B01D30B8868
:1044C00003806046704700BF082A13D38B07B1D022
:1044D00010F00303AED0C3F10403D21ADB071CBFF4
:1044E00011F8013B00F8013BA4D331F8023B20F85E
:1044F000023B9FE7043AD9D3013A11F8013B00F897
:10450000013BF9D20B7803704B7843708B78837042
:104510006046704720F0030110F00300C0F1000076
:1045200051F8043B00F1040C4FEACC0C6FF0000290
:104530001CBF22FA0CF213434FF0010C4CEA0C2C76
:104540004CEA0C4CA3EB0C0222EA030212EACC1256
:1045500004BF51F8043B0430F4D0C2F1000102EA78
:104560000102B2FA82F2C2F11F0200EBD2007047E0
:10457000F8B500BF000000005FF800F0A9020020BD
:104580005FF800F0350200205FF800F0550A0020C7
:104590005FF800F0F90A00205FF800F06D020020DB
:1045A0005FF800F07D0A00205FF800F0B10A0020FB
:1045B0005FF800F0CD0100205FF800F0110100204D
:1045C0001D17001095160010C5160010B117001029
:1045D000FD1600101D1600104517001009160010DA
:1045E000B1080010491700106D0C0010651600107E
:1045F00031170010E11600105D0400108504001052
:084600003D2100101102001021
:1046080050494E470A00000073656E736F722D6E35
:104618006F646520726561647900000073656E736C
:104628006F722D6E6F64652074783A2050494E473A
:10463800000000000A2A2A2A2050414E4943202A15
:104648002A2A0A000A0000004E6F207370696E6CF7
:104658006F636B732061726520617661696C61625A
:104668006C6500004E6F2075736572204952517356
:104678002061726520617661696C61626C65000019
:10468800486172647761726520616C61726D202582
:104698006420616C726561647920636C61696D6521
:1046A800640000004861726420617373657274006D
:1046B80052656C6561736500626F6F74325F773243
:1046C8003571303830000000322E322E30000000B4
:1046D8007069636F3200000073656E736F725F6E8E
:1046E8006F646500417072203134203230323600F8
:1046F80055534220737464696E202F207374646F5D
:104708007574000052617370626572727920506925
:10471800000000005069636F00000000426F617282
:104728006420434443000000526573657400000030
:10473800556E68616E646C6564204952512030780A
:1047480025780A006570202530325820776173205B
:10475800616C726561647920617661696C61626C13
:104768006500000043616E277420636F6E74696E84
:1047780075652078666572206F6E20696E61637456
:104788006976652065702025303258000600525041
:10479800D3F07542B846001006005250E182887F77
:1047A800C046001006005250ABB36053D04600100C
:1047B80006005250BBFF3CB6D846001006005250C7
:1047C800861C0302E0460010060052505422A29DA7
:1047D800EC46001005005250DE65F468545700108E
:1047E8000D0A000000000000951B001000000000EA
:1047F800991B0010A51B0010D11B0010CD1B001029
:10480800000000000A00000000000306A6000800DF
:10481800020002009C001400030057494E55534201
:1048280000000000000000000000800004000100FB
:1048380028004400650076006900630065004900AF
:104848006E00740065007200660061006300650018
:10485800470055004900440000004E007B006200FC
:1048680063003700330039003800630031002D0041
:1048780037003300630064002D00340063006200D9
:1048880037002D0039003800620038002D0039004B
:1048980031003300610038006600630061003700B2
:1048A8006200660036007D0000000000050F210050
:1048B800011C100500DF60DDD88945C74C9CD26516
:1048C8009D9E648A9F00000306A600010000000068
:1048D8000600525053B4F4A1F8460010000000003E
:1048E8000C4700101C470010981A0020244700109D
:1048F8003047001009025400030100807D080B00B6
:10490800020202000009040000010202000405245A
:1049180000200105240100010424020605240600E4
:10492800010705810308001009040100020A0000BC
:104938000007050202400000070582024000000946
:1049480004020000FF00010512011002EF020140FD
:104958008A2E090000010102030100000000000086
:1049680089350010FD3500102D3600107D360010F9
:104978004D3700101D380010000000000000000036
:1049880015390010713900108D390010B139001037
:0C499800291C0010A53A001000000000CF
:0849A40084FAFF7F010000000E
:1049AC0094470010A0470010AC470010B847001007
:1049BC00C4470010D0470010DC470010D848001046
:1049CC00034600B50268EFF3108C72B6D2E8CFEF55
:1049DC000120BEF1000FF9D1C2E84E0FBEF1000F5D
:1049EC00F4D1BFF35F8F93F90420002A09DB01B1E6
:1049FC000A60002000221B68C3E88F2F8CF31088FC
:104A0C0000BD4FF05042126801201A71F2E700BF4E
:104A1C004FF050412DE9F0411F460B6804461646F5
:104A2C000025984608E0C3E88F5F82F31088304673
:104A3C00394600F019FEE8B92368EFF3108272B61C
:104A4C00D3E8CF0F01210028FAD1C3E8401F00287A
:104A5C00F6D1BFF35F8F94F9041023680029E2DAD2
:104A6C00002184F80480C3E88F1F82F31088012092
:104A7C00BDE8F0810020BDE8F08100BF10B50168F1
:104A8C00EFF3108E72B6D1E8CFCF0124BCF1000F3A
:104A9C00F9D1C1E84C4FBCF1000FF4D1BFF35F8FDB
:104AAC0090F904C00468BCF1000F10DB0021C4E8CD
:104ABC008F1F8EF310884FF0504494F900406445DA
:104ACC0001D1084610BDBDE81040FFF7A1BF4FF063
:104ADC005042126800230271C4E88F3F8EF3108895
:104AEC00012010BD70B505460C4600F0CDFD024608
:104AFC000B464FF47A704FF0FF3E6FF0004CE4FB26
:104B0C00002396457CEB030138BF72462846BDE86E
:104B1C00704038BF6346FFF77BBF00BF0368EFF3FD
:104B2C00108272B6D3E8CFCF0121BCF1000FF9D1BE
:104B3C00C3E84C1FBCF1000FF4D1BFF35F8F4FF0F3
:104B4C00FF0C0023016880F804C0C1E88F3F82F39A
:104B5C00108840BF704700BF002108B5134B4FF4BD
:104B6C00707299601248D960196159619961D96163
:104B7C00196259629962D962196359639963D9634D
:104B8C00196459649964D964196559659965D9652D
:104B9C00196659669966D966196759679967D9670D
:104BAC0000F066FD034B044A1A6008BD000010506B
:104BBC00741600203C1A0020800110502DE9F0479B
:104BCC001E4B84B0D3F858A0BAF1000F21D00024AA
:104BDC0001254FF4E069DFF86C80194F05E00134D2
:104BEC00E4B2202C4FEA450513D01AEA050FF6D093
:104BFC00E34304F0FE0603F001031E4407EB4616E4
:104C0C003046C8F8585000F001FC28B93AEA050AB9
:104C1C00E5D104B0BDE8F087B378F28A8DF808309E
:104C2C00002301A80121ADF8049003928DF80930FE
:104C3C0000F00AFC304600F08DFBE7E70000115055
:104C4C00341600200030115070B5B24B86B0D3F83A
:104C5C00984014F4003574D0AF4AB04B906A93F876
:104C6C003B20AF49022A086000F0E680002593F84B
:104C7C007B20022A00F0B28193F8BB20022A00F0BC
:104C8C00A28193F8FB20022A00F0928193F83B2139
:104C9C00022A00F0818193F87B21022A00F07181B5
:104CAC0093F8BB21022A00F0618193F8FB21022AC0
:104CBC0000F0508193F83B22022A00F03F8193F8D8
:104CCC007B22022A00F01A8193F8BB22022A00F000
:104CDC00098193F8FB22022A00F0F88093F83B2319
:104CEC00022A00F0E78093F87B23022A00F0B780B9
:104CFC0093F8BB23022A00F07C8193F8FB23022A51
:104D0C0000F0C7803DB9874B1B7823B94FF40032B4
:104D1C00854BC3F890204FF440727E4B01219B6C65
:104D2C0003A8C3F30A030493ADF80C2000F08CFB2A
:104D3C00E3064FF400357D4E07D5FFF73FFF3546B0
:104D4C0003E0E3064FF01006F7D4E0031DD57348DB
:104D5C000226837E45F4803533BB4FF00103012ED0
:104D6C00C37000F120001BD14FF4C062704BADF842
:104D7C000C2093E80300CDE90401314603A800F0B0
:104D8C0063FB4FF40032684B1A65E1043ED46204B5
:104D9C002ED423041DD4A54240F0BB8106B070BDB7
:104DAC00837E0126002BD8D0624B5A4A1E66536E66
:104DBC0036EA0303FBD14FF440520021019000F07E
:104DCC00CFFA019800F0C6FA574B01985E661E6642
:104DDC00C3E74FF4A063012103A8ADF80C3000F039
:104DEC0033FB4FF40062504B45F400451A65D2E793
:104DFC004FF48063012103A8ADF80C3000F024FBC4
:104E0C001022494B45F480451A65C2E70026414BF8
:104E1C0045F480551E60FFF79FFE4FF4807301210F
:104E2C0003A8ADF80C308DF8106000F00DFB4FF4BA
:104E3C0000223D4B1A65AAE793F83A50002D3FF437
:104E4C0016AF93F83C20002A3FF411AF002203F177
:104E5C00200083F83C2000F0A7FA304B07E793F8CA
:104E6C007A63002E3FF444AF93F87C23002A40F081
:104E7C00408193F8BB23022A40F0C48093F8BA23F4
:104E8C00002A40F0BB8093F8FB23022A7FF443AF47
:104E9C00354693F8FA23002A3FF434AF93F8FC23F9
:104EAC00002A3FF438AF0022234883F8FC2300F09B
:104EBC007BFA30E793F83A63002E3FF414AF93F883
:104ECC003C23002A40F0A98035460CE793F8FA629F
:104EDC00002E3FF403AF93F8FC22002A40F0AF8081
:104EEC003546FBE693F8BA62002E3FF4F2AE93F827
:104EFC00BC22002A40F09A803546EAE693F87A62A2
:104F0C00002E3FF4E1AE93F87C22002A40F0CD80D5
:104F1C003546D9E60000115000000B403416002035
:104F2C002C160020AA1A002000301150100002008C
:104F3C000000105000201150141A002093F83A620F
:104F4C00002E3FF4BCAE93F83C22002A40F0A48023
:104F5C003546B4E693F8FA61002E3FF4ABAE93F805
:104F6C00FC21002A40F08F803546A3E693F8BA6105
:104F7C00002E3FF49AAE93F8BC21002A7AD1354624
:104F8C0093E693F87A61002E3FF48AAE93F87C2175
:104F9C00002A66D1354683E693F83A61002E3FF439
:104FAC007AAE93F83C21002A40F09180354672E6A7
:104FBC0093F8FA60002E3FF469AE93F8FC20002AB7
:104FCC007CD1354662E693F8BA60002E3FF459AEB8
:104FDC0093F8BC20002A3BD1354652E693F87A6010
:104FEC00002E3FF449AE93F87C20002A78D1354648
:104FFC0042E693F8BA23002A3FF47FAE93F8BC2321
:10500C00002A7ED193F8FB23022A7FF484AE93F816
:10501C00FA23002A3FF47FAE40E700223F4883F892
:10502C003C23354600F0C0F93D4B5CE600223D4880
:10503C0083F8BC22354600F0B7F9394B49E600221B
:10504C00394883F8FC22354600F0AEF9344B45E67E
:10505C000022364883F8BC20354600F0A5F9304BC9
:10506C000FE60022324883F87C21354600F09CF98B
:10507C002B4B15E600222F4883F8BC21354600F057
:10508C0093F9274B11E600222B4883F8FC21354677
:10509C0000F08AF9224B0DE60022284883F83C22C6
:1050AC00354600F081F91E4B09E60022244883F8AE
:1050BC007C22354600F078F9194B05E60022214890
:1050CC0083F8FC20354600F06FF9154BDEE5002225
:1050DC001D4883F83C21354600F066F9104BDAE5A3
:1050EC0000221A4883F87C20354600F05DF90C4B01
:1050FC00C2E50022164883F87C2300F055F9084BD2
:10510C00B7E60022134883F8BC2300F04DF9044B9A
:10511C0078E7114885EA040100F0B2FA541900202E
:10512C0034160020D418002014190020D4160020A6
:10513C0094170020D41700201418002054180020B5
:10514C0094180020141700205417002094160020E7
:10515C0094190020D4190020384700102DE9F04391
:10516C00828AB0F818E003469645C07828BF964668
:10517C00041E18BF012480F001000D46A2EB0E02A4
:10518C005978D87092B24EF480609A8240EA4430DA
:10519C00A1BB1969BEF1000F2CD00EF1FF34DA68F7
:1051AC00052CA14602EB85182FD9A8EB0104013C74
:1051BC00022CC4460A4628D94FEA9E0701EB870603
:1051CC0052F8044B96424CF8044BF9D1BEEB870FC6
:1051DC000ED011F82720B9EB870108F8272008EB2F
:1051EC00870205D074780129547001D0B178917080
:1051FC0019699A8A7144196140F400400AB940F463
:10520C00804005B10004BDE8F08308F1FF3201EBEA
:10521C000E0611F8014BB14202F8014FF9D1E7E744
:10522C0083682DE9F0410546186801B1000C6A78D5
:10523C00C0F309004AB9EB8A0344EB822B8B8342FF
:10524C0084BF0023AB82BDE8F081D5F810C088B3D1
:10525C00421EEB68052A164603EB811E31D98901E3
:10526C004C1C1C44ACEB0404022C624629D900F4FF
:10527C007F7173460F464FEA90085C1853F8041B75
:10528C00A34242F8041BF9D1B84211D01EF82830C1
:10529C00BE440CF82830F31BBC4409D09EF8012006
:1052AC00012B8CF8012003D09EF802308CF80230D0
:1052BC00D5F810C0EA8A0CEB00030244EA822B6199
:1052CC00BCE70CF1FF3C0EEB00021EF8013B7245F3
:1052DC000CF8013FF9D1EBE710B5044683680021C7
:1052EC001B68FFF79DFF63681B685B0002D5238B6F
:1052FC00834200D010BD2046BDE810400121FFF7CD
:10530C008FBF00BF084B1B6C13F0020302D18278D5
:10531C00D20901D100207047C07EA0F10200B0FA82
:10532C0080F04009704700BF0000115008B5FFF72E
:10533C00E9FF50B1054A064B906A1B68A0F548700E
:10534C00C01AC6288CBF0020012008BD00000B40ED
:10535C002C1600200023C0E904338376704700BF6D
:10536C0008B5836819B1D3F800C001EA0C018AB101
:10537C00114352050ED51A6852050DD4084A21F472
:10538C00806CC3F800C0126C920703D40C23033B4F
:10539C00FDD28368196008BD8178024800F070F96D
:1053AC00000011504C47001030B54368002183B009
:1053BC0005461C68FFF7D2FE134B40F48052196C63
:1053CC00AB7889070ED55B060ED024F0A04444F0D0
:1053DC000054002128466B681C6003B0BDE83040C7
:1053EC00FFF7BEBFDB09F0D0AB8A002BEDD001215B
:1053FC0028460192FFF7B2FE019A24F000540243B2
:10540C0044F0A044E5E700BF0000115038B5857E9C
:10541C00044695B1FFF760FFA38A0BB9284638BD47
:10542C002046FFF783FF20B1012323770025284670
:10543C0038BD2046FFF7B8FFF8E78178014800F047
:10544C001FF900BF6C47001070B543780446023B4F
:10545C000E4686B0042B13D8DFE803F003496972BB
:10546C0044000021784B1A7822F001021A701A7845
:10547C0022F002021A7059701A7861F382021A70C3
:10548C00724B1B685A69EFF3108072B6D2E8CFCF1B
:10549C000121BCF1000FF9D1C2E84C1FBCF1000F87
:1054AC00F4D1BFF35F8F214698611846019300F049
:1054BC00D7F8019B00225969C1E88F2F9B6983F3B0
:1054CC00108840B94FF0E023D3F8F03DDB0707D547
:1054DC0000BE06B070BD32466178207800F0CCF882
:1054EC0006B070BD5A4A137801331370C8E7002315
:1054FC00584A10781A4613E0574A126812EB4312B6
:10550C0008D0D26932B12078616801939047514B31
:10551C001878019B0133DBB2411C99421A4618DB07
:10552C009842E9D84D49121A01EB4212E9E7464B71
:10553C001A78D207D4D51A7842F004021A709FE771
:10554C00414B1A78D507CBD51A7822F004021A7081
:10555C0096E73D4B1A78500733D4DB78DA07BFD582
:10556C0003223A4B207861681B688DF80C008DF88B
:10557C000D205A690491EFF3108172B6D2E8CF4F27
:10558C000120002CFAD1C2E8440F002CF6D1BFF355
:10559C005F8F9961184603A9019300F061F8019B94
:1055AC0000225969C1E88F2F9B6983F3108800286A
:1055BC0088D032469DF80D109DF80C0000F05CF878
:1055CC008EE7002505201978CDE9045521F004015A
:1055DC00039519708DF80D001C4A217812688DF80E
:1055EC000C105169EFF3108072B6D1E8CFEF5FF079
:1055FC00010CBEF1000FF8D1C1E84ECFBEF1000F87
:10560C00F3D1BFF35F8F906103A91046019200F0B4
:10561C0027F8019A5169C1E88F5F926982F310886B
:10562C00094B38B94FF0E022D2F8F02DD10794D5C0
:10563C0000BE92E732469DF80D109DF80C0000F06C
:10564C001BF8014B89E700BFE01100203812002045
:10565C00AB1A0020A91A0020D810002064490010B1
:10566C005FF800F0354100105FF800F08D1000106D
:10567C005FF800F0A14300105FF800F07D260010E9
:10568C005FF800F0150300105FF800F0B91100107E
:10569C0010000000000000000000010000000000ED
:1056AC0000000000000002000000000000000000EC
:1056BC000000030000000000000000000000FF00DC
:1056CC000000000001B5486801318E460047704665
:1056DC0009380149884701BDAD07001000000000E2
:1056EC0000000000000000000000000000000000AE
:1056FC00500F0020E51D0010911D0010091D001019
:10570C00791C001000000000000100003C12002079
:10571C0010000C0000000000000000000000000061
:10572C000000000000000000FF000000000000006E
:04573C000000000069
:10574000D3DEFFFFFE010000FF010000F8A9FFFF0C
:04575000793512ABEA
:040000051000014D99
:00000001FF
