:020000041000EA
:100000007011002091150010AF3A00107D150010FE
:100010007D1500107D1500107D1500107D15001058
:10002000000000000000000000000000C9150010E2
:100030007D15001000000000491700100D1F001072
:1000400091170010911700109117001091170010D0
:1000500091170010911700109117001091170010C0
:1000600091170010911700109117001091170010B0
:1000700091170010911700109117001091170010A0
:100080009117001091170010911700109117001090
:100090009117001091170010911700109117001080
:1000A0009117001091170010911700109117001070
:1000B0009117001091170010911700109117001060
:1000C0009117001091170010911700109117001050
:1000D0009117001091170010911700109117001040
:1000E0009117001091170010911700109117001030
:1000F0009117001091170010911700109117001020
:10010000911700109117001091170010911700100F
:10011000D3DEFFFF420121100302000000000010A7
:0C012000FF03000000000000793512AB66
:10012C0080F0004002E000BF81F0004142001FBFA0
:10013C005FEA410392EA030F7FEA226C7FEA236CA9
:10014C006AD04FEA1262D2EB1363C1BFD21841409E
:10015C0048404140B8BF5B42192B88BF704710F034
:10016C00004F40F4000020F07F4018BF404211F0D7
:10017C00004F41F4000121F07F4118BF494292EA3F
:10018C00030F3FD0A2F1010241FA03FC10EB0C006B
:10019C00C3F1200301FA03F100F0004302D54942F8
:1001AC0060EB4000B0F5000F13D3B0F1807F06D3A5
:1001BC0040084FEA310102F10102FE2A51D2B1F19D
:1001CC00004F40EBC25008BF20F0010040EA030092
:1001DC007047490040EB0000013A28BFB0F5000F12
:1001EC00EDD2B0FA80FCACF1080CB2EB0C0200FAC8
:1001FC000CF0AABF00EBC25052421843BCBFD04017
:10020C001843704792F0000F81F4000106BF80F490
:10021C0000000132013BB5E74FEA41037FEA226C53
:10022C0018BF7FEA236C21D092EA030F04D092F01E
:10023C00000F08BF0846704790EA010F1CBF002052
:10024C00704712F07F4F04D1400028BF40F00040AF
:10025C00704712F100723CBF00F50000704700F0CF
:10026C00004343F0FE4040F4000070477FEA2262F6
:10027C0016BF08467FEA23630146420206BF5FEAC7
:10028C00412390EA010F40F4800070474FF00003C7
:10029C0004E000BF10F0004348BF40425FEA000C8E
:1002AC0008BF704743F0964301464FF000001CE036
:1002BC0050EA010208BF70474FF000030AE000BF8C
:1002CC0050EA010208BF704711F0004302D54042CA
:1002DC0061EB41015FEA010C02BF8446014600203C
:1002EC0043F0B64308BFA3F18053A3F50003BCFA57
:1002FC008CF2083AA3EBC25310DB01FA02FC634404
:10030C0000FA02FCC2F12002BCF1004F20FA02F20A
:10031C0043EB020008BF20F00100704702F12002FD
:10032C0001FA02FCC2F1200250EA4C0021FA02F25E
:10033C0043EB020008BF20EADC7070474FF0FF0C63
:10034C001CEAD0521EBF1CEAD15392EA0C0F93EA5E
:10035C000C0F6FD01A4480EA010C400218BF5FEA00
:10036C0041211ED04FF0006343EA501043EA511173
:10037C00A0FB01310CF00040B1F5000F3EBF49006D
:10038C0041EAD3715B0040EA010062F17F02FD2A71
:10039C001DD8B3F1004F40EBC25008BF20F0010054
:1003AC00704790F0000F0CF0004C08BF49024CEA6B
:1003BC00502040EA51207F3AC2BFD2F1FF0340EAFD
:1003CC00C250704740F400004FF00003013A5DDC6E
:1003DC0012F1190FDCBF00F000407047C2F10002AF
:1003EC00410021FA02F1C2F1200200FA02FC5FEA9C
:1003FC00310040F1000053EA4C0308BF20EADC70E6
:10040C00704792F0000F00F0004C02BF400010F457
:10041C00000F013AF9D040EA0C0093F0000F01F004
:10042C00004C02BF490011F4000F013BF9D041EA26
:10043C000C018FE70CEAD15392EA0C0F18BF93EA28
:10044C000C0F0AD030F0004C18BF31F0004CD8D152
:10045C0080EA010000F00040704790F0000F17BFD9
:10046C0090F0004F084691F0000F91F0004F14D01F
:10047C0092EA0C0F01D142020FD193EA0C0F03D177
:10048C004B0218BF084608D180EA010000F000407A
:10049C0040F0FE4040F40000704740F0FE4040F455
:1004AC00400070474FF0FF0C1CEAD0521EBF1CEAF4
:1004BC00D15392EA0C0F93EA0C0F69D0A2EB030212
:1004CC0080EA010C49024FEA402037D04FF08053AC
:1004DC0043EA111143EA10130CF000408B4238BF71
:1004EC005B0042F17D024FF4000C8B4224BF5B1A7F
:1004FC0040EA0C00B3EB510F24BFA3EB510340EACD
:10050C005C00B3EB910F24BFA3EB910340EA9C007A
:10051C00B3EBD10F24BFA3EBD10340EADC001B01EA
:10052C0018BF5FEA1C1CE0D1FD2A3FF650AF8B428E
:10053C0040EBC25008BF20F0010070470CF0004C9B
:10054C004CEA50207F32C2BFD2F1FF0340EAC250C6
:10055C00704740F400004FF00003013A37E792F087
:10056C00000F00F0004C02BF400010F4000F013AE5
:10057C00F9D040EA0C0093F0000F01F0004C02BFE0
:10058C00490011F4000F013BF9D041EA0C0195E749
:10059C000CEAD15392EA0C0F08D142027FF47DAFE2
:1005AC0093EA0C0F7FF470AF084676E793EA0C0FD2
:1005BC0004D14B023FF44CAF08466EE730F0004CD0
:1005CC0018BF31F0004CCAD130F000427FF45CAF60
:1005DC0031F000437FF43CAF5FE700BF4FEA4002CD
:1005EC00B2F1FE4F0FD34FF09E03B3EB12620DD955
:1005FC004FEA002343F0004310F0004F23FA02F0BF
:10060C0018BF404270474FF00000704712F1610F65
:10061C0001D1420205D110F0004008BF6FF000403C
:10062C0070474FF00000704753B94AB9002908BF12
:10063C0000281CBF4FF0FF314FF0FF3000F00CB81A
:10064C00ADF1080C6DE904CE02F04AFFDDF804E0D0
:10065C00DDE9022304B07047704700BF10F8012B8E
:10066C0011F8013B012A28BF9A42F7D0D01A7047E3
:10067C00034613F8012B002AFBD1181A01387047D6
:10068C0010B503F0CBF8044603F0C8F8001BF928AA
:10069C0000D910BD034803F001F900210A2003F032
:1006AC00B0FEF1E74C4A001010B54FF47A711048C7
:1006BC0003F0F6F80446C8B9FFF7E2FF4FF4FA610D
:1006CC000B4803F0EFF8044680B9FFF7D9FF01217E
:1006DC00074803F0E9F8044640B9FFF7D1FF044896
:1006EC0000F0D8FD044608B9FFF7CAFF204610BD3C
:1006FC004C4A001038B500211B4800F0BFFD00210A
:10070C0042F2107003F07DFE002000F0ADFD1748A2
:10071C0003F011FE154803F0BFF870B9FFF7C4FFE2
:10072C00B0FA80F4640900254CB1104803F0B6F817
:10073C0000210A2003F065FEF6E70024F3E703F03E
:10074C006DF8401BB0F57A7FF2D303F067F80546DD
:10075C00064803F0A1F80028EAD1FFF7A5FFB0FA8C
:10076C0080F46409E4E700BF273800104C4A0010FD
:10077C000122014B1A757047E80100204FF4E27218
:10078C0008B50021044803F0D4FE0123024A537536
:10079C0082F8853108BD00BFE8010020024B5B7D6B
:1007AC000BB9FFF7EBBF7047E80100200FB410B591
:1007BC000D4CB2B0E37D8BB1A3697BB135ABC021DD
:1007CC00349A02A8019302F065FE002806DB002390
:1007DC0002A88DF8C730D4E90631984732B0BDE88D
:1007EC00104004B0704700BFE80100202DE9F84329
:1007FC002B4C054626681EB96FF01200BDE8F88335
:10080C004068FFF735FF8146304603F094FD002821
:10081C00F2D04F46A02F28BFA0272E786B685FFA26
:10082C0087F888EA0606FA18934228D1A521206891
:10083C0002F0FCFF5A21206802F0F8FF29782068AA
:10084C0002F0F4FF4146206802F0F0FF4FF0000880
:10085C004745206817D1314602F0E8FF02F0EEFF61
:10086C00C4F87001A968C4F87C11B9F1000F12D05A
:10087C003A466B680B48FFF799FF0020BEE713F868
:10088C00011B4E40D0E76B6813F8081002F0CEFF46
:10089C0008F10108DCE70448FFF788FFEDE700BF2B
:1008AC00E8010020084C0010164C00101FB5222344
:1008BC00074A8DF80430074B01A8002918BF1346CE
:1008CC000293054B0393FFF791FF05B000BD00BFEA
:1008DC001F4C0010FD4E0010214C00107FB5202243
:1008EC008DF80C20074A0B4605920C21064A6846E7
:1008FC00CDF810D002F06CFA03A8FFF777FF07B021
:10090C0000BD00BF324C0010444C00107FB52122BA
:10091C008DF80C20064A0B4601A808210592054AC1
:10092C00049002F055FA03A8FFF760FF07B000BD72
:10093C00484C00105C4C00102DE9F8430546084665
:10094C00884616461F46FFF793FE2C4681462078B4
:10095C00F8B1AC4203D014F8013C2C2B21D14A46FF
:10096C004146204603F00BFED8B904EB09010446BE
:10097C00104A0B5D0D2B0ED92C2B10D1BC4228BF6D
:10098C0007F1FF342246304603F0C5FD0023012059
:10099C003355BDE8F88342FA03F3DB07EED5013497
:1009AC00E7E72C21204603F0DCFD0028F1D0441CA5
:1009BC00CDE700BFFEDBFFFF2DE9F04387B0154606
:1009CC001C466A461823FFF7B7FF814600285DD006
:1009DC0068462F49FFF742FE00283ED09DF80030B4
:1009EC002D2B3DD14A4601213CE0F043B0FBFCF0FD
:1009FC0098424BD348460CFB036301311DF8017040
:100A0C00A7F13006F6B2092EEFD92E2F38D10127D7
:100A1C0000264FF00A0E01311DF801C0ACF1300C6C
:100A2C005FFA8CFCBCF1090F21D9B0B118316944C3
:100A3C0011F8181C51BB0A21BD4224D8A3FB053563
:100A4C009B1945F1000512B15B4265EB450513F1AD
:100A5C00004245F10005CDB9236007B0BDE8F08335
:100A6C0000210A4600204FF00A0C0346C6E7BD429F
:100A7C00484684BF0EFB06C60EFB07F70131CBE7D9
:100A8C0001270026D1E74E434F43D5E70020E4E78A
:100A9C005F4C001070B571B1084D95F8886146B186
:100AAC000C4605F5C4750FCD0FC40FCD0FC42B68C4
:100ABC002360304670BD0E46FBE700BFE801002006
:100ACC0030B50C4659B1074B93F8AC512DB103F529
:100ADC00D67393E8070084E80700284630BD0D461E
:100AEC00FBE700BFE801002030B50C4659B1074BBD
:100AFC0093F8B8512DB103F5DC7393E8070084E843
:100B0C000700284630BD0D46FBE700BFE80100207A
:100B1C000148FFF76BBE00BFCC4A00100148FFF73D
:100B2C0065BE00BFC04A00100148FFF75FBE00BFA2
:100B3C00B44A00100148FFF759BE00BFA84A001084
:100B4C000148FFF753BE00BF9C4A00102DE9F04F3F
:100B5C0095B0044602F072FE894D0BAE05F5C477D4
:100B6C00C5F874010FCF0FC60FCF0FC63B682046D8
:100B7C003360D5F88C3183490093D5F8903195F8D2
:100B8C0098710193D5F8943195F8A0610293D5F83A
:100B9C009C310393B5F8A231049395F8A4310593D5
:100BAC00B5F8A6A195F8A89103F007FD002840F030
:100BBC008D802046744903F000FD002840F08680AB
:100BCC002046724903F0F9FC00287FD195F8898101
:100BDC00054600232046ADF828306D4902230AAAA9
:100BEC00FFF7AAFE834660B12046694909AA02F0C4
:100BFC002DFE05460746002800F094800127099B2E
:100C0C00039300232046ADF82830624902230AAA38
:100C1C00FFF792FE834660B120465E4909AA02F0B6
:100C2C0015FE0546064600287ED00126BDF8243068
:100C3C0004932046584909AA02F008FE20B101236A
:100C4C000546BDF824A00593204654490AAA02F093
:100C5C00FDFD00286AD1002D6DD1204650490AAA0D
:100C6C0002F0F4FD30B1464B0A9AC3F8BC210122C4
:100C7C0083F8B82120464B490AAA02F0E7FD30B1AF
:100C8C003F4B0A9AA3F8C021012283F8B8212046D1
:100C9C0045490BAA02F0DAFD50B10B9B012B07D88A
:100CAC00374A03F0010382F8C231012382F8B831CC
:100CBC0006222046384903F062FC00287AD12146EE
:100CCC003A4815B0BDE8F04FFFF770BD64222D49CE
:100CDC0006AB2046FFF770FE4FF47A7280462A4925
:100CEC0007AB2046FFF768FE64220546834627497A
:100CFC00204608ABFFF760FEB8F1000F0BD065B1D2
:100D0C0070B1069B05460093079B4FF001080193B9
:100D1C00089B02935DE701255BE74546D84658E7FB
:100D2C00804656E75D466CE75D4682E70A9B012BE1
:100D3C0091D803F0010901238DF82C30009B1C4D38
:100D4C000C93019B8DF844600D93029B8DF82D80C4
:100D5C000E93039B8DF83C701093049BADF84AA046
:100D6C00ADF84630059B8DF84C908DF848300BAEA5
:100D7C000FCE0FC50FCE0FC533682B606DE700BFCC
:100D8C00E8010020634C0010694C00106E4C001000
:100D9C00754C00107A4C0010C34C0010814C0010A4
:100DAC00884C0010954C0010A64C0010B14C001053
:100DBC007003002006222046474903F0E0FB002880
:100DCC004DD1464D204644490BAAB5F8AEA1B5F815
:100DDC00B091B5F8B281D5F8B47102F037FD80B39B
:100DEC000B9E012E2DD820463D490BAA06F001067C
:100DFC0002F02CFD08B1BDF82CA0204639490BAAF5
:100E0C0002F024FD08B1BDF82C90204636490BAAFF
:100E1C0002F01CFD00B10B9F204634490BAA02F0D6
:100E2C0015FD08B1BDF82C80012385F8AD6185F85E
:100E3C00AC31A5F8AEA1A5F8B091A5F8B281C5F872
:100E4C00B47121462A48FFF7B1FC95F8AD311BB1BE
:100E5C000122224B83F8842115B0BDE8F08F0E22BD
:100E6C002046244903F08BFB50B91C4B83F8AD0191
:100E7C0083F8A801204815B0BDE8F04FFFF796BCE9
:100E8C0020461E4903F099FB38B121461C48FFF758
:100E9C008DFC124B93F8A831D9E70322204619494F
:100EAC0003F06DFB28B10C222046174903F067FBB9
:100EBC0010B92146154804E704222046144903F0D2
:100ECC005EFB10B921461348FBE62378002BC3D0F8
:100EDC0021461148F5E600BF814C0010E8010020C6
:100EEC00C34C0010BD4C0010CA4C0010D24C00106A
:100EFC00DA4C0010E64C0010F54C0010634C00105E
:100F0C00064D0010114D0010884C0010154D0010AE
:100F1C00224D0010274D0010334D001073B502F018
:100F2C008DFC834C0646A37D002B00F0FE80002335
:100F3C008DF80430206883681B68002B40F0C48057
:100F4C00D4F88031F31A132B11D96068C4F880617E
:100F5C000569836801A95B68984720B92B680198DB
:100F6C005840C0F3C0300028C4BF0123237594F847
:100F7C008451002D00F0BA806E48FFF737FC002337
:100F8C0084F88431D4F87C11002900F0CE8040F62E
:100F9C00C312D4F87431F31A934240F2C68041F272
:100FAC008732D4F87831F31A934240F2BE8062480B
:100FBC00C4F8786102B0BDE87040FFF7F7BB013DA3
:100FCC00042DB7D8DFE805F003090F243900A3F18D
:100FDC005A02534253415B0085E084F8C93084F8CF
:100FEC006D3103237FE0002194F86D21A02B82EA60
:100FFC00030284F8CA3084F86C1184F86D2102D98C
:10100C0084F8C81096E7002B14BF042305236AE06C
:10101C0094F86C21A11881F8CB3094F86D114B40E9
:10102C0084F86D31531C94F8CA20DBB29A4284F8D0
:10103C006C313FF67FAF052355E0002194F86D210C
:10104C0084F8C8109A427FF475AF94F8CA20A3189C
:10105C0083F8CB1094F8C9307E2B18D1072A11D104
:10106C003649374803F06DFA054658B93548FFF74D
:10107C009DFB00214FF47A7003F0C3F929462846F2
:10108C0003F0EFF87E213048FFF790FB52E72C4835
:10109C00FFF75CFD4EE70D2B3FF44CAF0A2BD4F859
:1010AC00C42008D12244294882F82050FFF74EFD75
:1010BC00C4F8C4503EE79F2AFAD8511C2244C4F805
:1010CC00C41082F8203035E701A9984700287FF436
:1010DC0037AF94F8C8509DF80430002D7FF46FAFF3
:1010EC00A52BD8D1012384F8C83023E7237D23B165
:1010FC001748FFF77BFB257544E7D4F87031F31ADA
:10110C00B3F57A7FFFF43EAF124B94F88501124A87
:10111C0000280CBF10461846FFF768FB94F8853181
:10112C0083F0010384F885312CE702B070BD00BF59
:10113C00E8010020A84A0010814D00103C4D001021
:10114C00B3020020444D00105E4D00100802002038
:10115C00B44A0010CC4A0010C04A001038B5374DC4
:10116C00FFF71CFBAB7D002B59D13548354B286064
:10117C006B6003F0E0F830B93348FFF717FB6FF002
:10118C001204204638BD686803F0D5F808B92F481A
:10119C00F3E7686802698168136823F400431360FD
:1011AC000B682B4A0F219847044628B10F210246A1
:1011BC002848FFF7FBFAE4E7274B6868EB604FF42D
:1011CC0000432B618368DB6953B1012205F10801EF
:1011DC009847044638B121462048FFF7E7FAD0E794
:1011EC006FF05704F7E7686883689C6994B10369EA
:1011FC004FF0A0721B680F2113F4004F14BF4FF077
:10120C0000734FF08063A047044630B122460F2193
:10121C001348CEE76FF05704F8E70123AB7502F0E3
:10122C000DFB0F21C5E95C00C5F87801C5F88001FC
:10123C000C48FFF7BBFA0024A3E700BFE80100202D
:10124C003C47001074470010D44D0010ED4D0010B9
:10125C0020000100064E00107D0700102E4E0010DD
:10126C00534E00107F4E001010B50446FFF796FA4F
:10127C00014BDC7510BD00BFE801002038B50546F8
:10128C000C46FFF78BFA024BC3E9065438BD00BF7E
:10129C00E80100200148FFF7A9BA00BF9C4A0010E2
:1012AC0008B50348034A0021121A02F0ECFB08BDF2
:1012BC00680000202C040020074808B5074A08499C
:1012CC00121A02F0E2FBBDE808400648064A07493C
:1012DC00121A02F0DABB00BF0000002064000020EC
:1012EC00684F00100000002000000020684F001024
:1012FC0030BFFFF7FDBF00BF154B9A6A12F0007F9D
:10130C009A6A14BF1E201D2012F0807F9A6A18BFA3
:10131C001F2012F4801F9A6A18BF202012F4002F8D
:10132C009A6A18BF212012F4802F9A6A18BF2220C3
:10133C0012F4003F9A6A18BF232012F4803F9A6A75
:10134C0018BF24206FEA02426FEA12429A62704779
:10135C0000ED00E010B5184A936A946A13F4805FAC
:10136C0014BF1723162314F4006F946A18BF1823A4
:10137C00A40508D5936A1C0404D518B1936A23F408
:10138C000043936219230C4A906A10F4806F906AA0
:10139C0018BF1A23C0050DD4926A12F4005F18BF4F
:1013AC001C230548826A42F47F428262002218465E
:1013BC000A7010BD1B23F4E700ED00E010B51C4AC9
:1013CC00936A946A13F0100F14BF1123102314F0B6
:1013DC00080F946A18BF1223A40709D5536B936A9C
:1013EC001B0604D518B1936A23F080039362132370
:1013FC000F4A906A10F0010F906A18BF142310F076
:10140C00200F906A18BF1523C40658BF926A084A69
:10141C00906A800642BF506A20F400505062906A75
:10142C0040F0FF009062002218460A7010BD00BF09
:10143C0000ED00E0F0B5474B00265B688BB0C3F3C2
:10144C00080386F31188BFF36F8F02F07F44B4F169
:10145C007F4F13D114070ED512F004050FD00C4694
:10146C0035460022033B8DF80720032B09D8DFE813
:10147C0003F028666A6304460125F2E735462C46DC
:10148C00EFE700239DF80720CAB902AE04F120074C
:10149C00324620686168083403C2BC421646F7D154
:1014AC00099A002D53D0C2F3080121B96FEA5222D8
:1014BC006FEA42220992184602A902F0E8FA0BB030
:1014CC00F0BD244BDA6A9107DBD4DA6A002AD8DB48
:1014DC00DA6A5200D5D55A69A16942F480725A6110
:1014EC00BFF34F8FBFF36F8F5A6931F8021C22F490
:1014FC0080725A61BFF34F8FBFF36F8F4DF602723C
:10150C00914201D12368BDE79A6AD2B232B101206F
:10151C000DF10701FFF752FF0346B3E79A6A12F485
:10152C007F4F05D001200DF10701FFF713FFF3E703
:10153C009B6AB3F5803FA4D3FFF7DEFEECE70020F7
:10154C000DF10701E6E700200DF10701EDE76FF360
:10155C000802AFE700ED00E0044B5A6942F01002BC
:10156C005A615A6922F008025A61704700ED00E096
:10157C00EFF30880EFF3098101B57246FFF75AFFCC
:10158C0001BD00BF0B4880F3088802F0C3FA10209D
:10159C0080F3118808484FF40061401880F30988E3
:1015AC00EFF314800221084380F31488BFF36F8F8C
:1015BC0000F048F870110020300400201EF0040FD9
:1015CC000CBFEFF30880EFF30980816911F8021C5E
:1015DC000229FFD001B5724602F05FFA01BD00BFCF
:1015EC0040B2002807DB01234109034A00F01F0029
:1015FC00834042F82130704700E100E040B20028FF
:10160C00ACBF00F16040074B01F101014FEA011141
:10161C00ABBF00F5614000F00F0080F800131954C7
:10162C00704700BF14ED00E0044B054A23F07F0324
:10163C009360BFF34F8FBFF36F8F704700000010A4
:10164C0000ED00E008B5FFF7EFFF0B4AD2F8883049
:10165C0023F47003C2F88830EFF3148323F00403EF
:10166C0083F31488BFF36F8FFFF71AFEFFF724FE86
:10167C0002F039FA00F034FF00ED00E042F8203CB3
:10168C00009B0B4942F81C3C019B21F0010142F8E4
:10169C00183C029B42F8081C42F8143C4FF0807333
:1016AC0042F8043C0023203A02658366704700BF71
:1016BC007D3A00100A4B00B50E46154698602C4634
:1016CC0086F309880020044B98472046002100220D
:1016DC000023024C20470000CB3A00107D3A00104A
:1016EC00FC0300201022014B1A61704700ED00E052
:1016FC00054B5A699B689A421FBF044A536843F0D2
:10170C0080535360704700BFFC03002000ED00E0E5
:10171C00084B9B6883420BD1EFF3058343B1064B17
:10172C005A6842F080525A605A6A22F400425A6255
:10173C0001F0FAB8FC03002000ED00E00F498A68C4
:10174C004FF030001044EFF3098C80E8F01F1020AC
:10175C0080F31288BFF36F8F094F4FF000664A6910
:10176C008A603E60906E0023936680F3118802F1CC
:10177C00300090E8F01F8CF309887047FC030020C0
:10178C0004ED00E008B5EFF30583064A103B02EBCD
:10179C00C30152F8330049688847BDE80840FFF799
:1017AC00A7BF00BF9047001008B50649064821F0B6
:1017BC000701C1F1202202F5002202F009F90020F4
:1017CC0008BD00BF77110020AC0300200B2936D8D0
:1017DC00DFE801F0060606060F1B24352A2A3A3AE2
:1017EC000C22514303681A4A5B58C3F34313D05677
:1017FC007047184B1A6B1B6B13F0030322D0022B90
:10180C0022D0C2F34313144AF1E7124AD36BD26BC2
:10181C0092071BD0114AC3F34313E8E70D4B104A50
:10182C009B6CC3F34313E2E70C23594301F1804152
:10183C0001F580310B680B4AC3F34313D7E74FF024
:10184C00FF3070470E2070470C2070470420704703
:10185C005D4F0010000001405A4F0010544F001013
:10186C004D4F0010474F00102DE9F04107460C4634
:10187C007D68214628463E6902F08AF900286ED020
:10188C000E2C6CD8DFE804F00B0B0B0B0B0B2D6B39
:10189C000B0B3333086569003248BDE8F0812146F3
:1018AC0028462E68FFF792FF01463846FFF7DCFF0B
:1018BC000C2303FB046305465E68586880B2FEF790
:1018CC00E5FC2949FEF7EEFD0446300CFEF7DEFC84
:1018DC0001462046FEF72AFC01462846FEF7E2FDAB
:1018EC00DBE706212846FFF771FF0446C0E72146D7
:1018FC00D5E9023628460A2C08BF1E46FFF766FFBC
:10190C0001463846FFF7B0FF0446B068FEF7BEFC50
:10191C002146FEF713FDD6F80080044608F03F0080
:10192C00FEF7B4FC01462046FEF7BCFDF768044602
:10193C00C7F30240FEF7AAFC01462046FEF7B2FDB3
:10194C00F5680446C5F30230FEF7A0FC01462046BC
:10195C00C4E73068FEF79AFC9FE77068FAE700204E
:10196C009BE700BF001B374B00FF7F474FF0807297
:10197C00074BDA61A3F54053DA69D20102D56FF057
:10198C00150070470160D86910F08070F7D170476E
:10199C0000B00E402DE9F04F8FB005AA9346446875
:1019AC00A36825680393E368D4F810800493674B0D
:1019BC0003F12007164618685968083303C6BB4262
:1019CC003246F7D11B88624A3380624B1A60624AF6
:1019DC00624B1360A2F54052966833EA0606FBD1BF
:1019EC003746F8B20C21013702F018FC062FF8D15B
:1019FC000023C5F8843000F0FDFB594BDA6B22F064
:101A0C000302DA635A6C012AFCD11A6B22F003022E
:101A1C001A639A6B012AFCD127460DF10C0904F1CB
:101A2C00200A7B6AFA694F4900933B6A4A4359F88A
:101A3C00040BB969103700F083FB5745F1D1112124
:101A4C00584602F0E8F81BF816001BF91610092886
:101A5C0063D90136112EF6D14FF4006305F54052CF
:101A6C001360D36005F5405205F5405593616B62E8
:101A7C00D4F8D81008F1180041F42A61FFF776FF6A
:101A8C00002855D1D4F8DC10404641F47A0141F4D9
:101A9C003041FFF76BFF00284AD1D4F8E010002941
:101AAC004BD01F294CD801F52A4108F11400FFF73F
:101ABC005DFF00283CD1B4F8E41008F1040041F0BB
:101ACC00164141F41601FFF751FF88BBB4F8E6103C
:101ADC0008F1080041F0164141F41601FFF746FFEA
:101AEC0030BB6FF060421C4B1A60A3F540539D68ED
:101AFC00ED4335F06045FAD12946606902AA02F03F
:101B0C0061F900281FDB029B2A461979186802F03C
:101B1C006BF9002817DB00200CE004EB01110B6CB7
:101B2C0000934B6CD1E90E1202F04FFB002890D1C0
:101B3C006FF015000FB0BDE8F08F4AF60121B4E745
:101B4C004FF42A41B1E7831CE5D0F3E7284A001093
:101B5C007F3BEFEF0020024000300240F6FFF30322
:101B6C0000000140001BB7004FF05043084A1968B1
:101B7C00084B002918BF134630331A46106820B999
:101B8C000432D11A1429F9D970470120704700BFCB
:101B9C00908202404882024070B50D461446B2B99C
:101BAC001146284600F06EFB2C4B03EB850253F8D4
:101BBC00253002F5805183F0800303F0C0030B60E5
:101BCC004FF4807302F500521360002070BD06695B
:101BDC00C2F340122846C4F3001100F053FB052158
:101BEC00284600F033FB14F480311BD04FF0000377
:101BFC0043EC4450A303E8D50122A007F36802FA92
:101C0C0005F11BD50B436007F36033690ED50B430D
:101C1C0033614FF0000343EC4050C4F3804444EC78
:101C2C004450D2E7284600F07DFBE3E723EA0103AA
:101C3C00336142EC4050C4F3C044F0E723EA0103A3
:101C4C00F36014F4002304D042EC405042EC4450B6
:101C5C00BBE76103FAD543EC4050F7E7048003403F
:101C6C004FF050432DE9F0471B4F1A681B4B804631
:101C7C00002A18BF1F460024D0F81090DFF860A08F
:101C8C00E30803F10C0257F8221004F0070292004B
:101C9C00D140090704D10134302CF1D1BDE8F087D3
:101CAC000F218C3301FA02F24AF82320D9F80410E0
:101CBC000029F0D001260D68A6400029EBD08A68D7
:101CCC00324002D040464B6898471DB12B682946DC
:101CDC001D46F2E72B46FAE748820240908202400A
:101CEC0000800240054B186801238B40034214BF4F
:101CFC000123002300201370704700BF0000024036
:101D0C000123024A8B4000201360704700200240E0
:101D1C00012303FA01F1044B1960A3F540539868B1
:101D2C0031EA0000FBD1704700300240012303FA76
:101D3C0001F1064B196003F580531960A3F540536C
:101D4C00986831EA0000FBD1704700BF00200240C8
:101D5C002DE9F84FD0F81080064698F808300F4659
:101D6C009246002B40F08A80D0F80490D9F800B04D
:101D7C005AB1DBF8303023F00103CBF83030436834
:101D8C001A68D36A23F01003D3623B79DBF82C403A
:101D9C00012B24F0EE0405D0022B13D023B16FF0ED
:101DAC00850054E044F002047B79012B03D0032B13
:101DBC00F5D144F00804BB79032BF0D8DFE803F02D
:101DCC000705111444F00604EEE744F02004FB79F7
:101DDC006BB1012BE3D173681A68136B43F4404366
:101DEC000AE044F04004F2E744F06004EFE7736863
:101DFC001A68136B23F4404300251363D8F80C10B6
:101E0C003A682B4612018801890EFEF70DFCDFF8AB
:101E1C0074C0B0F1400361F100029C4575EB020205
:101E2C0029D3736882091B6842EA816200F03F0083
:101E3C005A629862BFF35F8F2846DA6ADA62CBF88F
:101E4C002C403B68C8F800307B68C8F80430BAF105
:101E5C00000F0ED099F81C302BB973681A68D36A2E
:101E6C0043F01003D36273681A68136B43F00103D9
:101E7C001363BDE8F88F6FF01500E8E76FF085008D
:101E8C00F7E700BF80FF3F004FF0E0230D4A996950
:101E9C00126818699B69002908BF1146002B08BFFE
:101EAC00134610F4803F084801D1994205D20168CD
:101EBC00114401604FF0E021096900681044C01A18
:101ECC00704700BFD0030020CC0300201022094B28
:101EDC00002083F8232043F69822074B1A60074B07
:101EEC0043F6972218604FF0E0235A61072298615D
:101EFC001A61704700ED00E0D0030020CC030020F5
:101F0C00684620F007018D4619B5FFF7BDFF14494F
:101F1C00144B0868D3E90042001942F10002C3E9EE
:101F2C00000200230B6043F698230F4AD2E90041CC
:101F3C00001BB0FBF3F043431B1941F10001C2E954
:101F4C000031EFF31181102383F31288BFF36F8FED
:101F5C0000F0CAFEFFF7CCFBBDE819408546704780
:101F6C00CC03002070000020680000202DE9F04117
:101F7C00374E89B1421C0AD14FF0E022136923F08D
:101F8C00010313614FF07F433360BDE8F081356886
:101F9C00012806DC00240AE0431C3568F8D140F225
:101FAC005D4040F25E439842A8BF1846441EEFF3D2
:101FBC001187102383F31288BFF36F8FFFF764FF31
:101FCC004FF0E0232349D3F818C0D1E9002380183F
:101FDC004FF0000243F10003C1E900031E4B1A60ED
:101FEC001E4B1A68831A2DD443F6982E43F6972865
:101FFC0014FB0E841C44B4FBFEF4131A0EFB0433C6
:10200C00B3F5806F38BF4FF48063154A934228BFF5
:10201C0013464FF0E0223360013B94695361002377
:10202C00A4459361ACEB0400D1E900320DD2054418
:10203C00EB1842F10002C1E9003287F31188BFF3BB
:10204C006F8FA2E74FF48063E3E7C318F1E700BF9B
:10205C00D003002070000020CC030020680000207A
:10206C0038A9FF0038B5EFF31185102383F31288DC
:10207C00BFF36F8F084B1C68084B1B68E41AFFF703
:10208C0003FF85F31188BFF36F8F43F69823204429
:10209C00B0FBF3F038BD00BF7000002068000020DA
:1020AC00F0B50C24444304F1804404F58034656895
:1020BC00059E071FB542FFB238BF6660012F04F5BD
:1020CC00405528D8012926D14FF0030CC5F800C083
:1020DC00A568ED07FCD5256804F5805C85EA4215FA
:1020EC0005F0E005012FCCF800500AD822684A40D0
:1020FC0002F00302CCF8002001228A40A1681142B0
:10210C00FCD04FF4006104F5005211600B4A66607C
:10211C0042F82030F0BD4FF4006CC5F800C0074DFC
:10212C0055F820C0BCF1000FD5D06D69B5FBFCF59E
:10213C00013505EB4505033DFDD2CCE7D40300206A
:10214C0070B5264D264E5519B542049C01D901F0A7
:10215C00D6FC244DB5FBF1F5B2FBF5F2A2F110055E
:10216C00B5F5987FF3D85D1E062DF0D8651E062DAB
:10217C00EDD8240344EA03430468002C0EDA046807
:10218C0004F03F048C4209D18468C4F30B049442DC
:10219C0004D1C46804F4EE249C421DD0124D0124D9
:1021AC00A84214BF0E250F25AC40104D104E2C60CC
:1021BC0005F580552C60B56834EA0505FBD1016046
:1021CC002121826000F5405204321160016800291F
:1021DC00FCDAC3600823136070BD00BF80E84BD3EA
:1021EC0080F8A932001BB700008005400020024097
:1021FC00000002404FF42A62054B06491A604FF466
:10220C008D72DA60044A11605A68002AFCDA704751
:10221C000080044000B0FA0000A0044030B5C408AF
:10222C0000F0070080008140074804F18C0540F85D
:10223C00251003EB84031AB103F50053196030BD6C
:10224C0003F54053FAE700BF0080024010B50C4B79
:10225C0003EB800253F8203002F5805483F04003E6
:10226C0003F0C00323604FF48073C00000F1804082
:10227C0000F5203002F540524160136010BD00BFE4
:10228C000480034010B5074CC90004EB800354F8DC
:10229C00200041EA8201414001F00C0103F580531A
:1022AC00196010BD04800340054B03EB8000022332
:1022BC0019B100F500500360704700F54050FAE783
:1022CC0004800340054A02EB800352F8202003F5FA
:1022DC008053514001F001011960704704800340A4
:1022EC00064B03EB800253F8203002F5805283EA50
:1022FC00011303F030031360704700BF04800340E8
:10230C004FF0504310B4DFF814C01C68044B002C81
:10231C0008BF634610BCFFF781BF00BF4882024074
:10232C0090820240054B03EB8000402319B100F56D
:10233C0000500360704700F54050FAE704800340FA
:10234C004FF0E022044BD2F8881D0B43C2F8883DB5
:10235C0010EE3004704700BF0303300038B5EFF3C4
:10236C001185102383F31288BFF36F8F064B9C6883
:10237C0001F0F4FF85F31188BFF36F8F2046BDE8A1
:10238C003840FFF7C5B900BFFC03002038B50A4B35
:10239C0053F82040013053F82050A54200D838BDE6
:1023AC00606830B1037EDB0701D401F0ACFF083468
:1023BC00F3E723689847FAE7F04B0010012270B559
:1023CC00284B86B003201A70FFF7E0FF02F0A2F84A
:1023DC000420FFF7DBFF244C244DAC4226460FD3E0
:1023EC0000F0D8F9204CAC4226D300F0E7F9FEF708
:1023FC0081F91F4A938923F00103938106B070BDC4
:10240C00636A3034059354F8103C049354F8143C2C
:10241C00039354F8183C029354F81C3C019354F861
:10242C00203C009354E90A2354E90C0100F0B2F863
:10243C0054F8303C5E65D0E7D4E90A23B3F1FF3F92
:10244C0008BFB2F1FF3F05D052EA0301206803D167
:10245C0001F0F0FF3034C6E70649183000F0B2FB4B
:10246C00F8E700BF28040020304900103049001064
:10247C00E8000020EF430010702370B5134E0122CA
:10248C0003FB0066002386B0CDE904230F220193E1
:10249C00CDE9023214234FF4A0720D4D0D4903FB0C
:1024AC000055044602FB00110B4B3046009500F022
:1024BC0071F8337C2C7423F004033374074B013410
:1024CC0003EBC423EE606B6006B070BD7800002097
:1024DC00FC030020300C00206F430010300400205F
:1024EC007FB50020FFF752FF224B83F308880024AE
:1024FC00F023214D85F82230EC772C766C76AC7677
:10250C006B6A43F4E0236B62FFF726F8FFF7EAF8F7
:10251C004FF0FF331948AB62EB6200F065F8012015
:10252C00FFF734FF0220164DFFF730FF00F070F973
:10253C00144B4FF480625D61134B144905930123D6
:10254C002846CDE90343CDE90144114B009400F03A
:10255C0021F806462B7C284623F004032B7401F04B
:10256C001DFF2046FFF788FF31462846084AFFF733
:10257C00A1F800BF300C002000ED00E05801002055
:10258C00E8000020FC030020334F0010700D0020E9
:10259C00C92300107FB50C9E00F1580586810426D6
:1025AC00C0E9165500250446067407320B9E22F02E
:1025BC00070286738E180A9AC0E906558560C573A2
:1025CC000292099A0192089A00923246FFF756F845
:1025DC00044B65659B6803B15B6E3046636604B063
:1025EC0070BD00BFFC030020012303748381002312
:1025FC004366014B98607047FC0300206FF00A01A2
:10260C00084A9368D966084998664B6843F080532A
:10261C004B60002383F31188BFF36F8F9368D86EE0
:10262C00704700BFFC03002000ED00E070B5037C98
:10263C0013F09F0F2DD11C4C63F07F0322460374C3
:10264C0052F8183F934225D1E169C0E90021086096
:10265C00E0610FE08B42F8D01B68002BF5D093F9AA
:10266C000E6090F90E50AE42F4DD5968C0E90031AD
:10267C0008605860A569954200D005B9E568A36863
:10268C001A7CD20608D1DA897F2A05D9AA691AB927
:10269C00636170BDE169E0E7AB4202D0284600F00F
:1026AC0013FA6561F5E700BFFC03002038B590F91B
:1026BC0010200146002A037C04DA03F07F03037424
:1026CC0001F05AFE0D4D2A4652F8184FAB68944251
:1026DC0000D004B9EC688B4207D01A7CD20604D126
:1026EC00DA897F2A01D9A2692AB1A34202D02046F5
:1026FC0000F0EAF923466B6138BD00BFFC030020F3
:10270C00034648B9EFF3058232B9064A516992681B
:10271C00914201D0FFF772BF83F31188BFF36F8F23
:10272C00704700BFFC03002038B5184CA168E06965
:10273C000B68814214BF1A46002249680B6059602D
:10274C00A368E1692AB9124AC3E900210B60E3616D
:10275C000AE092F90E5093F90E00854212DD516891
:10276C00C3E900210B605360A569094B9D4200D061
:10277C0005B9E568A3689D4202D0284600F0A4F98B
:10278C00656138BD8A42DED01268DBE7FC030020AD
:10279C0014040020EFF31181102383F31288BFF38C
:1027AC006F8F054B9A68D37B013BD37381F31188F0
:1027BC00BFF36F8F704700BFFC03002070B5EFF3C1
:1027CC001186102383F31288BFF36F8F0F4DAB6804
:1027DC00DA7B0132DA732A4652F8184F944200D051
:1027EC0004B9EC681A7CD20604D1DA897F2A01D9A3
:1027FC00A2692AB19C4202D0204600F065F923461A
:10280C006B613046BDE87040FFF77ABFFC030020D7
:10281C00024B03F11802C3E906227047FC030020A7
:10282C0070B5EFF31186102383F31288BFF36F8F0B
:10283C001A4CA168E0690B68814214BF1A46002249
:10284C0049680B605960A368E1692AB9144AC3E965
:10285C0000210B60E3610AE092F90E5093F90E002F
:10286C00854216DD5168C3E900210B605360A569F0
:10287C000B4B9D4200D005B9E568A3689D4202D080
:10288C00284600F021F965613046BDE87040FFF73D
:10289C00B5BE8A42DAD01268D7E700BFFC0300202D
:1028AC0014040020F8B550EA010306460C4603D187
:1028BC00FFF7B6FF0020F8BDEFF31187102383F369
:1028CC001288BFF36F8F124D124BA8681860FFF778
:1028DC00EDFEA868234632460F49183000F072F915
:1028EC00AA680446137C384643F004031374FFF7BC
:1028FC0085FEAB68D3E90A23B3F1004F08BF002A69
:10290C00D8D101F001FE201A20EAE070D3E700BF15
:10291C00FC0300201C040020EF430010014B9868BE
:10292C00704700BFFC0300202DE9F843044687895B
:10293C00EFF31186102383F31288BFF36F8F037CA0
:10294C00190705D586F31188BFF36F8FBDE8F8839F
:10295C00D90907F0010743F008026FD10274A3688C
:10296C0013B1204601F010FD04F1180001F098FDA0
:10297C00A56D04F15808A84511D04FF0000975B1A8
:10298C00284601F001FD05F1180001F089FD2846EB
:10299C00C5F86C90FFF74AFEA56DA845EFD1DFF89E
:1029AC00BC80D8F808309C4250D1EFF30589B9F1BE
:1029BC00000918BF4FF00109D8F81850284A954261
:1029CC0000D00DB9D8F80C50AB4202D0284600F01C
:1029DC007BF82046C8F8145001F06EF8B9F1000FDE
:1029EC0002D02048FFF700FED8F808309C4230D1C6
:1029FC00EFF305836BBB227BD20711D586F31188CD
:102A0C00BFF36F8F83F31188BFF36F8F04231846C6
:102A1C0002DFEFF31186102383F31288BFF36F8F5D
:102A2C003046FFF7EBFD002F90D0002383F3118885
:102A3C00BFF36F8F0423184602DF87E703F07F0391
:102A4C0043F00803037401F097FC88E74FF000098A
:102A5C00B2E786F31188BFF36F8FE4E7FC03002025
:102A6C001404002058010020027C12F01F0211D126
:102A7C000A4B98420ED00A4B1B684BB1C1897F2977
:102A8C000AD8084A90F90E1012689142B8BF002378
:102A9C00184670470023FBE71346F9E7780000203F
:102AAC004C000020200400200122044BC01A044BCF
:102ABC00C0105843034B1A54704700BFC801002084
:102ACC00ABAAAAAA2904002070B50C4B0C4C1E7C96
:102ADC00FFF7CAFF182303FB06440546204601F006
:102AEC00DFFC0022074B9A553DB16A1E2046BDE81B
:102AFC0070400549D31700F065B870BDFC03002089
:102B0C00C801002029040020B52A001038B5EFF3C5
:102B1C001185102383F31288BFF36F8F0F4B104A6C
:102B2C009C681068A04206D1FFF7CEFF85F3118890
:102B3C00BFF36F8F38BD00211B7C1160094AD35C39
:102B4C00002BF3D02046FFF78FFF0028EED0237C1C
:102B5C00DB0601D1FFF7E8FD2046E5E7FC0300208A
:102B6C001C04002029040020024B1868984208BF5E
:102B7C000020704750000020034B1B680BB9FFF777
:102B8C0071BA0020704700BF2404002030B570B12A
:102B9C000B4B5B6898420AD0036843B1D3E904211C
:102BAC00D0E90445121941EB0501C3E90421D0E930
:102BBC00003213605A600023C0E9003330BD00BFFF
:102BCC0050000020B3F1FF3F08BFB2F1FF3F2DE9E9
:102BDC00F84F0546994614461F467BD08160EFF3AB
:102BEC001188102383F31288BFF36F8FB9F1000F94
:102BFC00DFF8E8A03BDADAE900126FF001035B1AA8
:102C0C004FF0FF3161EB02021B1B62EB0902012B3F
:102C1C0072F10001BCBF012300224FF00009C0E992
:102C2C000432FFF7A1FF0346DFF8B4A0DAF804E0A2
:102C3C0083BBC5E900AECEF80050CAF80450FFF7CC
:102C4C0093FF85420BD1274B1B6843B9B9F1000F99
:102C5C003CD0304601F00EFC0021FFF787F988F3D9
:102C6C001188BFF36F8F20463946BDE8F88FFFF708
:102C7C0083FFDAE90027013449F10009241849EBF4
:102C8C00E073C5E90443A41806464FF0010943EB71
:102C9C000707C6E7D3E90420D5E9041C91427CEB75
:102CAC00000B08DB891A6CEB00007345C5E90410B6
:102CBC00BFD01B68BCE7521A60EB0C00C3E90420C0
:102CCC005A68C5E9003215605D60B8E7FFF754FF3C
:102CDC000646BEE700242746C5E700BFE0010020FA
:102CEC0050000020240400202DE9F047DFF8A890C4
:102CFC000246C9F800000D46FFF736FF00260027F4
:102D0C00DFF898804FEAE27ED8E9001350B1D0E9A1
:102D1C00044CA2427EEB0C0A1ADAA41A6CEB0E06D7
:102D2C00C0E904460024521843EB0E032046C8E9C0
:102D3C000023C9F8004001F09DFB2146FFF716F96E
:102D4C0085F31188BFF36F8FBDE8F047FFF7DEBE48
:102D5C00611843EBE473C0E90467C8E90013FFF79B
:102D6C0015FF01224FF00043C0E9042385F31188BD
:102D7C00BFF36F8F83689847EFF31185102383F3AC
:102D8C001288BFF36F8FD9F80020121BC9F80020EE
:102D9C00FFF7EAFEB6E700BF24040020E0010020A4
:102DAC0010B5EFF31184102383F31288BFF36F8FE8
:102DBC00FFF7E2FE054AD2E90031C31841EBE0719E
:102DCC0084F31188BFF36F8F184610BDE00100200B
:102DDC000CB430B58BB004460D462022002102A85D
:102DEC0001F0A7FB02238DF80A300D4B002D039345
:102DFC00069412DB01D06B1E1C440FAA0E9902A87C
:102E0C000794019200F0A6F815B10022069B1A70E7
:102E1C000BB0BDE8304002B070470024EDE700BFB6
:102E2C00B34600102DE9F0410127BA4201DCBDE8A0
:102E3C00F081064633461C781E46002CF7D0252C14
:102E4C0003F10103F7D11D780236252DF2D00024B1
:102E5C00A4462346DFF8F8801F2B31D8A5F1200EAD
:102E6C00BEF1100F06D828FA0EFE1EF0010F64D129
:102E7C002E2D46D02E2D31D8242D3DD02A2D40D0AC
:102E8C00BCF1000FD3D0BC45D4D145F02006A6F13F
:102E9C00650CBCF1020F0C680AD9612E08D0692DA3
:102EAC0002D050D8632D50D01D064ED59B054CD565
:102EBC00E31D23F0070303F108040C600137B4E7AA
:102ECC007F2BD5D96C2D23D01DD8682D2BD06A2DF6
:102EDC0001D04C2DD4D143F4207322E0A5F1300E57
:102EEC00BEF1090FEED80A2303FB04E4202316F8E5
:102EFC00015B002DB0D1C3E7BCF1000F1FD0BC4269
:102F0C001FD00024F3E7742DF1D07A2DEFD0B7E762
:102F1C0043F4007513F0800FADB218BF2B4643F08D
:102F2C0080039BB2E3E743F4007513F4807FADB2EA
:102F3C0018BF2B4643F48073F3E70023D7E7A4466E
:102F4C00DFE76325A1E7732DADE70434B5E700BFD8
:102F5C00892801002DE9F04F8378814699B09807B4
:102F6C00CDE9031216D5D9F80430002501930B4690
:102F7C000792187880B1252815D001330293494661
:102F8C00019B984700280BDA99F8023043F00403B0
:102F9C0089F802304FF0FF35284619B0BDE8F08FA4
:102FAC000135029BE5E793F801809A1CB8F1250FD7
:102FBC000292E4D04FF0000B5E465F465C461F2C3D
:102FCC0024D8A8F12003102B22D8DFE803F0162117
:102FDC00211C2121210C212121142119212109003D
:102FEC0044F00104A4B2029B13F8018B0293B8F1D4
:102FFC00000FE4D116E044F0020444F00404F1E7BD
:10300C0044F00804EEE744F01004EBE77F2C78D88A
:10301C00B8F12E0F59D035D8B8F1240F5BD0B8F1D8
:10302C002A0F40D0BBF1000F06D0049B5A460398E0
:10303C0007A90793FFF7F6FE48F02003002EA3F133
:10304C006502BCBF002624F04004022A02D9612B81
:10305C0040F089800726079BDFF85882073323F05E
:10306C00070308330793200740F1C480444608EB5C
:10307C00060B5C4540F0C080A5EB080804EB080289
:10308C00BF1BBDE1A8F13003092B3AD814F0400F57
:10309C004FF00A0202D002FB0636A4E702FB073708
:1030AC0044F020049EE7BBF1000F9CD1079B610606
:1030BC0003F10402079201D51E6894E71F68002FE4
:1030CC00EEDA7F4244F028048CE763063FF564AFE8
:1030DC0044F0400486E7BBF1000F3FD0049B14F092
:1030EC0040080CBF3A463246039807A90793FFF7EE
:1030FC0099FE079B1A1D0792B8F1000FDCD11F68CF
:10310C0071E7B8F16C0F15D00BD8B8F1680F1BD064
:10311C00B8F16A0F02D0B8F14C0F83D144F420748B
:10312C0060E7B8F1740F3FF45EAFB8F17A0F3FF47B
:10313C005AAF77E744F4007314F0800F9BB218BFBA
:10314C001C4644F080044DE744F4007314F4807F73
:10315C009BB218BF1C4644F4807443E75E46BB46E2
:10316C00344637463FE7A8F16302122A00F2DB80AF
:10317C00DFE812F013004B00D900D900D900D900B8
:10318C004B00D900D900D900D900D900F200D300E6
:10319C00D900D9001D00D900A400079B01261A1DD7
:1031AC0007921B680DF120088DF820305BE7079B18
:1031BC001A1D0792D3F800803F4BB8F1000F08BFDF
:1031CC00984614F0400F14BF31464FF0FF31404683
:1031DC0001F0E7F9064646E749462020019B98474F
:1031EC000028FFF6D1AE013CA642F5D33D442D1B81
:1031FC0027463BE73C46F7E7494614F8010B019B91
:10320C0098470028BFF635AFBEE62106079B2ED5A2
:10321C00A20527D5073323F0070303F10802079211
:10322C00D3E90001002924F0100B30DA404261EBA5
:10323C0041014BF4806B0A2308AC224601F0D3F910
:10324C001BF0400FA0EB040200F09D8096422BF087
:10325C00010440F3A280B8F1000F40F0A0802BF0E5
:10326C0011041EE01A1D07921868C117DAE71A1D1F
:10327C000792E005196801D40846F6E7A2054BBF92
:10328C0048B208B241F3C01141F3C031CAE750EA69
:10329C000103D0D16306CED5002ECCD1324624F01A
:1032AC001104B24640F20641214089B2002971D185
:1032BC0027E000BF3F4F0010384F00100A2324F0C6
:1032CC00100414F0800C079A4CD014F4007115BF44
:1032DC000732101D22F00702079017BF02F10801F8
:1032EC0010680791D2E9000150EA010247D1620649
:1032FC0024F0160B45D5002E43D13246B24624F0AD
:10330C001704230762D4E10705D557457BDDA7EBEE
:10331C000A03BA469E18D34651E010234FF07808A2
:10332C0044F01004CDE7782B04D1C8F1780343F0B6
:10333C001003C6E7622B13D049462520019B984702
:10334C000028FFF621AE49464046019B98470028CD
:10335C00FFF61AAE023524E608234FF00008B0E75A
:10336C000223AEE7111D079114F480711068BBD0D5
:10337C0014F400711ABF6146C0B280B2B4E724F0F5
:10338C00060B08AC59E792465C46E1068AD5B8F1C3
:10339C00000F06D10AF1010AB3E79246F5E7B246EF
:1033AC00F3E70AF1020AACE749462020019B05929B
:1033BC0098470028FFF6E8AD059A0BF1010B5F4525
:1033CC00F2DCA5EB0A03DA4603EB0B05E30627D583
:1033DC0049463020019B059298470028FFF6D4AD52
:1033EC00059AB8F1000F10D101352E44711B8A4299
:1033FC002EDB144608AE002C35D12A44A7EB0A0765
:10340C001546174442E0164685E749464046019B5F
:10341C00059298470028FFF6B7AD0235059AE4E708
:10342C0040F20641214089B20029DED014F0020F8F
:10343C0014BF2B20202014F4806F18BF2D20494678
:10344C00019B059298470028FFF69EAD0135E5E7F4
:10345C0049463020019B059298470028FFF694AD11
:10346C00059A0135C2E7013C4946305D019B059246
:10347C0098470028059ABEDA86E549462020019B2C
:10348C009847002805F10105FFF67EAD7B1B002B4C
:10349C00F3DC86E5F0B589B004460D4616460021EE
:1034AC00202268461F4601F044F802238DF80230B2
:1034BC000A4B002D019304940EDB01D06B1E1C44AF
:1034CC003A46314668460594FFF744FD15B1002293
:1034DC00049B1A7009B0F0BD0024F1E7B34600104C
:1034EC002DE9F047064617460846089AB4460D469D
:1034FC00002B4CD18F42BE4663D9B7FA87F149B144
:10350C00C1F120038D4007FA01FE06FA01FC26FAF0
:10351C0003F31D434FEA1E461FFA8EF04FEA1C437D
:10352C00B5FBF6F406FB145543EA054304FB00F522
:10353C009D4206D91EEB030302D29D4200F24A8142
:10354C00013C5B1B1FFA8CFCB3FBF6F506FB153339
:10355C0005FB00F04CEA034C60450AD91EEB0C0C41
:10356C002CBF01230023604502D9002B00F03581CC
:10357C00013DACEB000C45EA0440002422B12CFACE
:10358C0001F30021C2E900312146BDE8F0878B42EE
:10359C0007D90AB1C2E90061002420462146BDE8E2
:1035AC00F087B3FA83F4002C4DD18B42C0F0058127
:1035BC00B74240F202812046002AE5D0C2E900C59C
:1035CC00E2E7002F00F0A4801946B7FA87F3002B2E
:1035DC0040F0B680C31B1FFA8EF83F0C01244FEA53
:1035EC001C40B3FBF7F507FB153340EA034308FB1C
:1035FC0005F098420AD91EEB03032CBF01260026C6
:10360C00984202D9002E00F0E280013D1B1A1FFAED
:10361C008CFCB3FBF7F007FB10334CEA034C08FBB4
:10362C0000F363450AD91EEB0C0C2CBF01260026B7
:10363C00634502D9002E00F0C7800138ACEB030CB7
:10364C0040EA05409AE7C4F12005A34006FA04FAC3
:10365C00A14027FA05FCE84007FA04F94CEA030CF0
:10366C0026FA05F34FEA1C4643EA01081FFA8CFEC2
:10367C004FEA1841B0FBF6F706FB170041EA004190
:10368C0007FB0EF088420AD91CEB01012CBF012369
:10369C000023884202D9002B00F0B080013F091AA8
:1036AC001FFA88F3B1FBF6F006FB101100FB0EFEBF
:1036BC0043EA01439E450AD91CEB03032CBF0121AD
:1036CC0000219E4502D9002900F09B80013840EA78
:1036DC000740A3EB0E03A0FB09E18B42764688461C
:1036EC0002D307D1F24505D2BEEB090661EB0C0102
:1036FC000138884652B1BAEB060163EB080303FAB2
:10370C0005F5E140E3400D43C2E9005300243BE7DB
:10371C007308B8464908B94643EAC0734FEAC67CF9
:10372C001C0C9BB244EA014443EA0443B4FBF7F497
:10373C00B1FBF7F51F21A3EB090344EA05444EE75F
:10374C00194607FA03FEC3F1200300FA01F44FEA0D
:10375C001E47D84026FA03F31FFA8EF806FA01FC2E
:10376C002343B0FBF7F51C0C07FB150044EA0040A3
:10377C0005FB08F4844247D91EEB00002CBF012640
:10378C000026844200D97EB3001B013DB0FBF7F448
:10379C00A24604FB08F907FB1A009BB243EA00435C
:1037AC004B45C8D21EEB03032CBF012000204B4518
:1037BC0000D2A8B10AF1FF34BDE7B6EB070C60EB01
:1037CC00030301201D46F7E6F444023836E7023DB8
:1037DC0073441BE7023C7344B3E6F444023DC8E671
:1037EC00AAF102047344A6E7AEEB0404023D2044A4
:1037FC00B0FBF7F4A24604FB08F9CCE7023F6144A6
:10380C004DE70238634462E7001BB0FBF7F4A246B5
:10381C0004FB08F9BFE700BF7047704708B500F01C
:10382C0077FE0A220023FCF7FFFE08BD83685B6865
:10383C00184708B5FCF7A2FF002008BD08B500F03A
:10384C0067FE0A220023FCF7EFFE08BD70B586B0B8
:10385C00144618236A46FDF76FF80546D0B19DF85B
:10386C00000038B100206A4601460A2613781BB9BD
:10387C0000B1216006B070BD303BDBB2092B09D81A
:10388C00D843B0FBF6F0884204D3284606FB01313E
:10389C000132EBE70020EDE7FDF760BCFDF73EBB26
:1038AC00FDF734B8FDF71AB8FDF700B8836800EBE4
:1038BC00C101B3F5004F2CBF51F8220031F81200B2
:1038CC00704700EBC1018068B0F5004F2CBF41F888
:1038DC00223021F812307047012208B5FFF7E6FFBD
:1038EC00D04008BD836800EBC101B3F5004F08D38D
:1038FC004B681AB143F001034B60704723F001038E
:10390C00FAE74B881AB143F001034B80704723F060
:10391C000103FAE753000122FFF7D3BF08B5836810
:10392C00B3F5004F06D3FFF7D7FF01288CBF00205B
:10393C00012008BD0020FCE78368B3F5004F28BFC9
:10394C000139B1FA81F0C0F11F0070472DE9F04147
:10395C0004460D46FFF7E2FFC0BB29462046FFF7A1
:10396C00BBFF01462046FFF7E7FF04EB8002166918
:10397C009EB9012303FA00F0E36829460343E36090
:10398C00204615612B460222FFF79BFF0322294696
:10399C002046BDE8F041FFF794BF02223146204695
:1039AC00FFF784FF0746034629462046FFF789FFA9
:1039BC000322334629462046FFF783FF39462B4620
:1039CC002046FFF77EFF02223146E1E7BDE8F08199
:1039DC00B2F5802F34BF042308232DE9F0410026D3
:1039EC00D21A8D18CC1D24F0070425F007052D1BC9
:1039FC00ED08046029462046A560E660FFF79CFFB1
:103A0C00820002F11B07FF083146043204F110005A
:103A1C0000F08FFD3A4631462046FFF77BFF3346D8
:103A2C00324631462046FFF74CFF204631460122F4
:103A3C00FFF758FF3946EA1BFFF76CFF3B4632464F
:103A4C0039462046FFF73DFF29462046FFF762FF27
:103A5C00324629462046EB1BFFF733FF294620460A
:103A6C000122FFF73FFF3946BDE8F041FFF76EBF7B
:103A7C00044608B5084611461A46A047FEF74EFF05
:103A8C00FDF746FE704700F054BD00F044BD012820
:103A9C0001D1EFF30583FEF761BC01460068FFF727
:103AAC00F6BF08B5FDF724FCBDE80840FDF720BEC5
:103ABC0000210120FFF7EBBF6FF08500704761B666
:103ACC0062B680F31188BFF36F8F704772B6002314
:103ADC0083F31188BFF36F8FBFF34F8F30BF62B684
:103AEC00BFF36F8F70470023102103F16042013345
:103AFC0002F56142342B82F80013F6D1704708B5F9
:103B0C0000F000F8002383F31188BFF36F8F0423B8
:103B1C00184602DFFEF714BC49B2102917DC0A293B
:103B2C0043680BD00B2910D00C221B6802FB01330D
:103B3C004FF4006203F500531A6004E09B682D22D9
:103B4C0003F540535A6000207047DB68F7E76FF0CD
:103B5C001500704749B2102917DC0A2943680BD0AD
:103B6C000B2910D00C221B6802FB01334FF40062AE
:103B7C0003F540531A6004E09B682D2203F50053B3
:103B8C005A6000207047DB68F7E76FF0150070474C
:103B9C000E2909D8DFE801F00A0A0A0A22220A08CB
:103BAC000A0A11111D222200002070470C225143D9
:103BBC0003685858C0F3C0207047D0E902230A2983
:103BCC0008BF13465B6813F0290F0CBF01200020BF
:103BDC00704743685868C0F3003070470120704745
:103BEC0049B2102908B505DC4068FFF7D1FF013058
:103BFC00C0B208BDEA20FCE749B2102910B5144642
:103C0C0006DCFDF731FEFCF7E9FC2060002010BD5E
:103C1C006FF01500FBE7F0B500254FF0FF362B4693
:103C2C008B421DD21A4600EB430494F90170B74243
:103C3C000DD100EB430710F913C097F9017030F860
:103C4C0012E020F813E000F812C001336770013263
:103C5C00914204F10204E8D110F915600135DFE757
:103C6C00F0BD10EE183000200B6070470269D3686D
:103C7C0021EA030040EE100012690B4003EA020136
:103C8C0060EE141023EA020340EE1430002070475B
:103C9C000269D36821EA030060EE100012690B4040
:103CAC0003EA020140EE141023EA020360EE143022
:103CBC00002070470369DB6821EA030220EE102024
:103CCC000B4020EE14300020704730B50369586863
:103CDC0000B30024884219D108688CB99C685860DC
:103CEC00A14200D19860002008602AB15A680A608D
:103CFC009A68596002B9996000200FE02846E9E7FC
:103D0C0020609868814208BF9C60ECE70568044617
:103D1C00002DF3D1002AE9D16FF0150030BD08B5A4
:103D2C0043685B6803B19847002008BD70B50D4629
:103D3C0016460F21002228461C46FEF7E1FAB6F57E
:103D4C00001F0DD0F20104F08063C4F3406109D56B
:103D5C0089000BB141F0080101222846FEF7D0FA88
:103D6C00002070BD002BF7D041F00201F4E708B53C
:103D7C00152000220721FDF741FCBDE80840152065
:103D8C00FDF72EBC30B50569EB6810EE104021EA4A
:103D9C0003005440204020EE10000B402C6910EE24
:103DAC001400504003EA040121EA000120EE141033
:103DBC0010EE141023EA04034A40134020EE143092
:103DCC00002030BD30B5036813600579046804EB3E
:103DDC00C504A34202D36FF0010030BD5C790833F7
:103DEC008C42F1D10020F8E770B5044600EB810558
:103DFC00AC4201D1002070BD264616F8040B00F031
:103E0C003F0000F077FA21882078C1F3841100F08C
:103E1C003F00FEF71BFAA1782078C1F3400200F0B6
:103E2C003F0001F00101FEF72DFA61782078C1F313
:103E3C00C30100F03F00FEF753FA61782078C909FE
:103E4C0000F03F00FEF73EFAA1782078C1F3C001E4
:103E5C0000F03F00FEF728FAA1782078C1F380012A
:103E6C0000F03F00FEF75EFAA1782078C1F3011153
:103E7C0000F03F0000F02FFAA1782078C1F38111F7
:103E8C0000F03F0000F018FAE178207801F003010F
:103E9C0000F03F0000F001FAE1782078C1F38101D5
:103EAC0000F03F0000F0EAF93446A1E7002070472B
:103EBC000020704710B5436802691B68127A1C6BAE
:103ECC001AB940F20122A24306D1986910F01000F1
:103EDC0002D11B680B7010BD4FF0FF30FBE743683D
:103EEC001B689A699206FCD41960704743681B687A
:103EFC005B68C3F3C000590748BF40F008009A073D
:103F0C0048BF40F0020003F0010340EA8300704711
:103F1C000B46026992E8030083E803000020704717
:103F2C0010B5436800201B689C69A40602D4141ABF
:103F3C00002C00DC10BD0C5C01301C60F4E710B5EB
:103F4C00436800201B68141A002C02DD9C69E406EF
:103F5C0000D510BD1C680C540130F4E72DE9F0417C
:103F6C00436804691D680646AB6B43F02003AB63E2
:103F7C00237C3BB10023237463691BB11027AB6B0B
:103F8C009B0601D4BDE8F081EFF3118887F312880A
:103F9C00BFF36F8F3046D4E90531984788F3118809
:103FAC00BFF36F8FEBE7012203691A7443681A6839
:103FBC00936B23F020039363704743681B689869E5
:103FCC00C0F3C00080F00100704702694368127AA8
:103FDC001B681AB9186B10F480700BD0986B10F02A
:103FEC00200007D0DA6B920603D49869C0F3C01096
:103FFC0070470120704743681A68936B43F0500375
:10400C009363704743681A68936B23F05003936370
:10401C00704702694368127A1B681AB9186B10F45E
:10402C00007008D0986B10F010001EBF9869C0F398
:10403C00001080F00100704743681A68936B43F4DA
:10404C00F0639363704743681A68936B23F4F063CF
:10405C009363704708B50146FFF7DBFF20B9BDE855
:10406C0008400846FFF7B1BF08BD0120704703693F
:10407C00C3E90512704710B503695A696AB1EFF3C9
:10408C001184102282F31288BFF36F8FD3E90521BC
:10409C00904784F31188BFF36F8F10BD08B52120B2
:1040AC0000220721FDF7AAFABDE808402120FDF700
:1040BC0097BA0122FDF74CBE2DE9F3414468054641
:1040CC000769A0682668002856D1206900285DD1B0
:1040DC0097F80880B8F1000F30D14146606801AA0A
:1040EC00FFF770FE00284EDB019B424619791868D9
:1040FC00FFF77AFE002846D1636A0BB12846984731
:10410C006B681A68136B23F0010313636B681A68EE
:10411C00D36A23F01003D362236A002B45D100220B
:10412C0039462846FDF714FE10237363237F2BB901
:10413C006B681A68D36A43F01003D3620023B3632D
:10414C0040F2FF7373643B7A63B9B364BFF36F8F50
:10415C00336B23F002033363336B43F440733363E9
:10416C00BFF36F8FA3691BB12846984701233B749B
:10417C003B7A03B3002006E0E1688368DB680BB38D
:10418C0098470028A1D002B0BDE8F08183681B6875
:10419C000BB16169984720698368DB68002B97D065
:1041AC00616907F10C02984792E72846F96898472D
:1041BC000028B4D0E7E76B681A68136B43F001036F
:1041CC001363D7E76FF05700DDE72DE9F74390460F
:1041DC000A9A064693420F4601D2FFF790FC1C0C3C
:1041EC001D04284600232146FCF71EFA02460B4606
:1041FC0069B123464FF00009304642463946CDF8A6
:10420C000090FDF74DFF012003B0BDE8F08381461F
:10421C0021462846FCF708FA0346EDE70C235843E1
:10422C00012300F1804000F5841041600360704769
:10423C00002370B505460E46DB8A002242E800F2E8
:10424C00520254BF1021042144F2522098470446D4
:10425C0033462A46A446BDE870400A214FF48170CB
:10426C00604708B50346084619462BB193FAA3F1EB
:10427C00B1FA81F140F02000FFF7DAFFC00000F145
:10428C008040043000F520331B6800F5243083EAAD
:10429C00017303F0405303607047C00000F180408D
:1042AC00043000F520331B6800F5243083EA014309
:1042BC0003F4403303607047C00000F180400430C9
:1042CC0000F520331B6800F5243083EA013303F436
:1042DC00405303607047C00000F18040043000F58B
:1042EC0020331B6800F5243083EA813303F4404308
:1042FC00036070474FF0000343EC440043EC400074
:10430C000521FDF7A3BF10B5436904463BB9002056
:10431C00E2684042537843F00103537010BD984754
:10432C000028F4D00028B8BF4042FF28A8BFFF20C7
:10433C00E3681870ECE740B1C368587810F00100DE
:10434C001EBF1878B0FA80F040097047EFF3118364
:10435C00102383F31288BFF36F8FFEE708B5FFF7C6
:10436C00F5FF102408B5EFF3118384F31288BFF323
:10437C006F8FFFF7ABFBF6E7D0E9003213605A60A2
:10438C000023C0E90033704708B5FFF7F5FF037C45
:10439C0023F0020303740023836008BD10B5EFF310
:1043AC001184102383F31288BFF36F8FFEF73EF94D
:1043BC0084F31188BFF36F8F10BD08B5037C0146E1
:1043CC0003F0280363B983680BB1FFF7DDFF0B7CA7
:1043DC00084623F004030B74BDE80840FEF726B929
:1043EC0008BD10B5EFF31184102383F31288BFF3CB
:1043FC006F8F1838FFF7E1FF84F31188BFF36F8FCD
:10440C0010BD38B505460C46FEF74CFAB4F1FF3F2B
:10441C0008BFB5F1FF3F0AD0C11709304FF00A02AF
:10442C004FF0000341F10001FCF7FEF838BD4FF0EE
:10443C00FF30FBE738B50446EFF31185102383F307
:10444C001288BFF36F8F037C5B070ED5183000F01A
:10445C0027F8237C204623F004032374FEF7E6F8A8
:10446C002846BDE83840FEF74BB985F31188BFF3F9
:10447C006F8F38BD08B50146FEF776FB68B1D0E901
:10448C000432581A62EBE173B0F1004F73F1000281
:10449C0003DA002BB8BF002008BD6FF00040FBE72B
:1044AC0070B50446EFF31185102383F31288BFF324
:1044BC006F8F036893B9D0E90423B3F1004F08BFA1
:1044CC00012A04D100224FF00043C0E904236FF00D
:1044DC00150085F31188BFF36F8F70BDFEF744FB99
:1044EC0006462046FEF752FB00224FF00043B44232
:1044FC00C4E9042306D1FEF73FFBFFF7BBFF002105
:10450C00FDF734FD0020E4E708B5FEF749FC08BDD3
:10451C00FEF746BC70470A44914200F1FF3300D1CC
:10452C00704710B511F8014B914203F8014FF9D1C6
:10453C0010BD03460244934200D1704703F8011B9F
:10454C00F9E710B501390244904201D1002005E091
:10455C00037811F8014FA34201D0181B10BD013094
:10456C00F2E70346C9B21A78184622B18A4203F11F
:10457C000103F8D17047914218BF1046704710B52F
:10458C006AB101398418027811F8013F9A4204D1BA
:10459C000130A04201D0002AF5D1D01A10BD10462E
:1045AC00FCE7024610B501448A42134603D01C783E
:1045BC000132002CF8D1181A10BD0A7870B56AB9FE
:1045CC0070BD9A4209D10C46054614F8013F002BE8
:1045DC00F6D015F8016F9E42F7D001300378002B0E
:1045EC00EFD11846ECE7F0B504461046C3F1370797
:1045FC0003F01F03082B264613D0102B18D0022BC8
:10460C004FEA54054FEA51021ED104F0010645EA67
:10461C00C1741146303654EA010200F8016BE9D13D
:10462C00F0BD04F00706E40844EA4174C908F1E758
:10463C0004F00F06240944EA01740909BA19D2B22C
:10464C00092E88BF1646E5E7A40845EAC17544EA79
:10465C0081742C1942EB9102210941EA0271641810
:10466C0042EB1212210A41EA0261641842EB122257
:10467C00210C41EA0241641842EB1242A41842F1A7
:10468C000002E40844EA4274D10804EB8402A6EB6D
:10469C004206F6B2092EBDD90134A6F10A0641F143
:1046AC000001F6B2CAE7D1E9043293421EBF5A1C8C
:0846BC000A611870704700004C
:0846C40028EEFF7F0100000059
:1046CC00000000000447001000000000204700100C
:1046DC00000000003C470010D91E00100000000034
:1046EC00B517001000000000000000007447001017
:0846FC00000000005847001007
:10470400E54E0010D84A0010644900105A000020F9
:1047140000000020A1190010000000000B4F001041
:1047240000000000544900105E000020000000005A
:104734000000000000000000254F001024000020AD
:10474400804900106000002008000020C5400010CF
:1047540000000000D24E001000000000684A001063
:1047640058000020000000003F3800100000000046
:10477400FF4E0010D04B0010304900105C000020A8
:0C478400B80300202B3D001000000000D6
:1047900000000000BD3A001000000000BD3A00100B
:1047A00000000000BD3A001000000000BD3A0010FB
:1047B00000000000BD3A001000000000BD3A0010EB
:1047C00000000000BD3A001000000000BD3A0010DB
:1047D00000000000BD3A001000000000BD3A0010CB
:1047E00000000000BD3A001000000000BD3A0010BB
:1047F00000000000BD3A001000000000BD3A0010AB
:1048000000000000BD3A001000000000BD3A00109A
:1048100000000000BD3A001000000000BD3A00108A
:1048200000000000BD3A001000000000BD3A00107A
:1048300000000000BD3A0010744700106D1C00100D
:1048400000000000BD3A001000000000BD3A00105A
:1048500000000000BD3A001000000000BD3A00104A
:1048600000000000BD3A001000000000BD3A00103A
:1048700000000000BD3A001000000000BD3A00102A
:1048800000000000BD3A001000000000BD3A00101A
:1048900000000000BD3A00103C47001083400010AB
:1048A00000000000BD3A001000000000BD3A0010FA
:1048B00000000000BD3A001000000000BD3A0010EA
:1048C00000000000BD3A001000000000BD3A0010DA
:1048D00000000000BD3A001000000000BD3A0010CA
:1048E00000000000BD3A001000000000BD3A0010BA
:1048F00000000000BD3A001000000000BD3A0010AA
:1049000000000000BD3A001000000000BD3A001099
:1049100000000000BD3A001000000000BD3A001089
:1049200000000000BD3A001000000000BD3A001079
:10493000A51B00106F3C0010913D0010793C001049
:104940009D3C0010C13C0010393D0010D73C0010C8
:04495000751B0010C3
:10495400F11C00100D1D00101D1D0010391D00104C
:10496400253B0010613B001000000000053C0010D6
:0C497400ED3B00100000000000000000FF
:10498000C13E0010EB3E0010F93E0010BF40001089
:104990001D3F00102D3F00104B3F0010693F0010DD
:1049A000B33F0010D73F001003400010114000102B
:1049B000C73F00101F40001045400010534000103A
:1049C00061400010774000107B40001000000000A4
:1049D00000000000C13E0010EB3E0010F93E001048
:1049E000BF4000101D3F001000000000000000004C
:1049F00000000000000000000000000000000000B7
:104A000000000000000000000000000000000000A6
:104A10000000000000000000000000000000000096
:084A200000000000000000008E
:104A2800000A010A020A030A070A040C050A060515
:104A3800080B090B0A0C0B0C0CFF0DFF0E0D0FFFDA
:104A480010FF00000000000000000000000000004F
:104A5800000000000000000000000000000000004E
:104A680069110010290F00101D0B0010290B0010F0
:104A7800350B0010410B001019090010E90800104F
:104A8800B90800104D0B0010A10A0010CD0A001043
:104A9800F50A001016000000D34D0010A74E0010B4
:104AA80015000000D34D0010E94C00101400000060
:104AB800D34D0010B34E001010000000D34D00106D
:104AC800BE4E001011000000D34D0010C94E00105A
:104AD80000000140008004400000054000800540BF
:104AE80000800E40C84B0010010000007D0000004F
:104AF8000500000002000000010000006400000042
:104B08000500000005000000000000000000000093
:104B180080D1F00880D1F0080000000000000000FB
:104B280080D1F00880D1F0080000000000000000EB
:104B380080D1F00880D1F0080000000000000000DB
:104B480080D1F00880D1F0080200000000000000C9
:104B5800001BB700001BB7000100000000000000A8
:104B680080D1F00880D1F0080000000000000000AB
:104B780080D1F00880D1F00800000000010000009A
:104B880080D1F00880D1F00800000000000000008B
:104B9800006CDC02006CDC02000000000000000079
:104BA800006CDC02006CDC020C000000A00A0000B3
:104BB80010000000000000000000000000000000DD
:104BC800D04B001000000000FFFFFF3F7B3D0010AE
:104BD800E04B001001000000E84B0010020000004C
:104BE8008008000081080400CC460010CC46001064
:104BF800E4460010EC46001004470010044700107B
:104C08005B74785D2025733D252E2A730A005B743A
:104C1800785D2025730A003100454E41424C455FBE
:104C2800494E54455252555054005345545F5341D0
:104C38004D504C494E475F5241544500256C750014
:104C48005345545F464F5243455F54485245534875
:104C58004F4C44002575004552520054454D503D77
:104C68000048554D3D0050524553533D0047415370
:104C78003D004C494748543D004556454E543D007B
:104C880053414D504C494E475F4D533D00464F529E
:104C980043455F5448524553484F4C443D00494EA4
:104CA800544552525550543D005B666F7263655DC2
:104CB8002025730A004556454E545F464F524345DA
:104CC8003D004147455F4D533D00544852455348C8
:104CD8003D005B6576656E745D2025730A004F4B59
:104CE8002C434C4541525F4556454E54005B657612
:104CF800656E745D20636C65617265640A005B644F
:104D08006174615D2025730A004F4B2C005B636F53
:104D18006E6669675D2025730A004552522C005B58
:104D28006572726F725D2025730A005B72785D2070
:104D380025730A00424F4F5453454C005B6D61691F
:104D48006E745D20656E746572696E6720424F4FA0
:104D58005453454C0A005B6D61696E745D20696748
:104D68006E6F726564206672616D65207479706516
:104D78003D3078253032780A005B7761726E5D20AD
:104D88006E6F2073656E736F72207265706C792018
:104D98007965743B206C6173745F74783D25732C5E
:104DA80020636865636B2073656E736F7220545857
:104DB800202D3E206261736520525820616E642068
:104DC800636F6D6D6F6E20474E440A005B657272AB
:104DD8006F725D207561727430206E6F7420726519
:104DE8006164790A005B6572726F725D2067706931
:104DF8006F30206E6F742072656164790A005B659C
:104E080072726F725D206770696F257520636F6EAF
:104E1800666967757265206661696C65642072658C
:104E2800743D25640A005B6572726F725D2067705D
:104E3800696F2063616C6C6261636B206661696C89
:104E48006564207265743D25640A005B6572726F43
:104E5800725D206770696F25752069727120636FB4
:104E68006E666967757265206661696C6564207233
:104E780065743D25640A005B6472697665725D201D
:104E880073656E736F722D6E6F64652072656164F1
:104E980079206972715F6770696F3D25750A0052E4
:104EA8004541445F434F4E46494700524541445FA0
:104EB8004556454E5400524541445F464F5243457E
:104EC80000524541445F414C4C0073656E736F72EC
:104ED8005F6E6F64655F64726976657200636C6F9C
:104EE800636B2D636F6E74726F6C6C6572403430D7
:104EF800303130303030006770696F2D706F7274E8
:104F080040300072657365742D636F6E74726F6CD8
:104F18006C65724034303032303030300075617238
:104F280074403430303730303030006D61696E0095
:104F3800286E756C6C29002A666C6F61742A000BE8
:104F48000A0E0C0F10050A0B0E0C0F100A0B0D0C95
:104F58000F100B0F100A0F100B0E0C050809040098
:104F6800A02E6300A02E630000C201000001030010
:104F78000000000000000000000000000000000029
:104F88000000000000000740D84B0010000000009F
:104F9800000000000447001006000000A9400010AF
:104FA80000000000BD3E0010B93E0010C80000001F
:084FB800500000205000002011
:0C4FC000000000000000000000000000E5
:044FCC0015E015E0F7
:040000051000159141
:00000001FF
