:020000041000EA
:1000000000240020A10C0010395900108D0C0010A4
:100010008D0C00108D0C00108D0C00108D0C00103C
:10002000000000000000000000000000D90C0010DB
:100030008D0C001000000000810E0010A52A001099
:10004000C90E0010C90E0010C90E0010C90E001014
:10005000C90E0010C90E0010C90E0010C90E001004
:10006000C90E0010C90E0010C90E0010C90E0010F4
:10007000C90E0010C90E0010C90E0010C90E0010E4
:10008000C90E0010C90E0010C90E0010C90E0010D4
:10009000C90E0010C90E0010C90E0010C90E0010C4
:1000A000C90E0010C90E0010C90E0010C90E0010B4
:1000B000C90E0010C90E0010C90E0010C90E0010A4
:1000C000C90E0010C90E0010C90E0010C90E001094
:1000D000C90E0010C90E0010C90E0010C90E001084
:1000E000C90E0010C90E0010C90E0010C90E001074
:1000F000C90E0010C90E0010C90E0010C90E001064
:10010000C90E0010C90E0010C90E0010C90E001053
:10011000D3DEFFFF420121100302000000000010A7
:0C012000FF03000000000000793512AB66
:1001300080F0004002E000BF81F0004142001FBF9C
:100140005FEA410392EA030F7FEA226C7FEA236CA5
:100150006AD04FEA1262D2EB1363C1BFD21841409A
:1001600048404140B8BF5B42192B88BF704710F030
:10017000004F40F4000020F07F4018BF404211F0D3
:10018000004F41F4000121F07F4118BF494292EA3B
:10019000030F3FD0A2F1010241FA03FC10EB0C0067
:1001A000C3F1200301FA03F100F0004302D54942F4
:1001B00060EB4000B0F5000F13D3B0F1807F06D3A1
:1001C00040084FEA310102F10102FE2A51D2B1F199
:1001D000004F40EBC25008BF20F0010040EA03008E
:1001E0007047490040EB0000013A28BFB0F5000F0E
:1001F000EDD2B0FA80FCACF1080CB2EB0C0200FAC4
:100200000CF0AABF00EBC25052421843BCBFD04012
:100210001843704792F0000F81F4000106BF80F48C
:1002200000000132013BB5E74FEA41037FEA226C4F
:1002300018BF7FEA236C21D092EA030F04D092F01A
:10024000000F08BF0846704790EA010F1CBF00204E
:10025000704712F07F4F04D1400028BF40F00040AB
:10026000704712F100723CBF00F50000704700F0CB
:10027000004343F0FE4040F4000070477FEA2262F2
:1002800016BF08467FEA23630146420206BF5FEAC3
:10029000412390EA010F40F4800070474FF00003C3
:1002A00004E000BF10F0004348BF40425FEA000C8A
:1002B00008BF704743F0964301464FF000001CE032
:1002C00050EA010208BF70474FF000030AE000BF88
:1002D00050EA010208BF704711F0004302D54042C6
:1002E00061EB41015FEA010C02BF84460146002038
:1002F00043F0B64308BFA3F18053A3F50003BCFA53
:100300008CF2083AA3EBC25310DB01FA02FC6344FF
:1003100000FA02FCC2F12002BCF1004F20FA02F206
:1003200043EB020008BF20F00100704702F12002F9
:1003300001FA02FCC2F1200250EA4C0021FA02F25A
:1003400043EB020008BF20EADC7070474FF0FF0C5F
:100350001CEAD0521EBF1CEAD15392EA0C0F93EA5A
:100360000C0F6FD01A4480EA010C400218BF5FEAFC
:1003700041211ED04FF0006343EA501043EA51116F
:10038000A0FB01310CF00040B1F5000F3EBF490069
:1003900041EAD3715B0040EA010062F17F02FD2A6D
:1003A0001DD8B3F1004F40EBC25008BF20F0010050
:1003B000704790F0000F0CF0004C08BF49024CEA67
:1003C000502040EA51207F3AC2BFD2F1FF0340EAF9
:1003D000C250704740F400004FF00003013A5DDC6A
:1003E00012F1190FDCBF00F000407047C2F10002AB
:1003F000410021FA02F1C2F1200200FA02FC5FEA98
:10040000310040F1000053EA4C0308BF20EADC70E1
:10041000704792F0000F00F0004C02BF400010F453
:10042000000F013AF9D040EA0C0093F0000F01F000
:10043000004C02BF490011F4000F013BF9D041EA22
:100440000C018FE70CEAD15392EA0C0F18BF93EA24
:100450000C0F0AD030F0004C18BF31F0004CD8D14E
:1004600080EA010000F00040704790F0000F17BFD5
:1004700090F0004F084691F0000F91F0004F14D01B
:1004800092EA0C0F01D142020FD193EA0C0F03D173
:100490004B0218BF084608D180EA010000F0004076
:1004A00040F0FE4040F40000704740F0FE4040F451
:1004B000400070474FF0FF0C1CEAD0521EBF1CEAF0
:1004C000D15392EA0C0F93EA0C0F69D0A2EB03020E
:1004D00080EA010C49024FEA402037D04FF08053A8
:1004E00043EA111143EA10130CF000408B4238BF6D
:1004F0005B0042F17D024FF4000C8B4224BF5B1A7B
:1005000040EA0C00B3EB510F24BFA3EB510340EAC8
:100510005C00B3EB910F24BFA3EB910340EA9C0076
:10052000B3EBD10F24BFA3EBD10340EADC001B01E6
:1005300018BF5FEA1C1CE0D1FD2A3FF650AF8B428A
:1005400040EBC25008BF20F0010070470CF0004C97
:100550004CEA50207F32C2BFD2F1FF0340EAC250C2
:10056000704740F400004FF00003013A37E792F083
:10057000000F00F0004C02BF400010F4000F013AE1
:10058000F9D040EA0C0093F0000F01F0004C02BFDC
:10059000490011F4000F013BF9D041EA0C0195E745
:1005A0000CEAD15392EA0C0F08D142027FF47DAFDE
:1005B00093EA0C0F7FF470AF084676E793EA0C0FCE
:1005C00004D14B023FF44CAF08466EE730F0004CCC
:1005D00018BF31F0004CCAD130F000427FF45CAF5C
:1005E00031F000437FF43CAF5FE700BF4FEA4002C9
:1005F000B2F1FE4F0FD34FF09E03B3EB12620DD951
:100600004FEA002343F0004310F0004F23FA02F0BA
:1006100018BF404270474FF00000704712F1610F61
:1006200001D1420205D110F0004008BF6FF0004038
:1006300070474FF00000704753B94AB9002908BF0E
:1006400000281CBF4FF0FF314FF0FF3000F00CB816
:10065000ADF1080C6DE904CE04F076FADDF804E0A3
:10066000DDE9022304B07047704700BF10F8012B8A
:1006700011F8013B012A28BF9A42F7D0D01A7047DF
:100680000023F0B58BB00193244808F003F900284B
:100690003CD0234C019B1BB3002427461F4D21480F
:1006A00004F011FFAE688DF8037033689BB12846E3
:1006B0000DF10301984770B99DF803300A2B1CD146
:1006C00004F128030DEB030404F8200C02A91648DA
:1006D00004F0F9FE00240021642008F089FBE2E721
:1006E000A3681B6D1BB10421204601AA9847002175
:1006F0004FF47A7008F07CFBCCE71E2CEAD804F1AA
:1007000028026A4402F8203C0134E4E7074804F078
:10071000DAFE4FF0FF300BB0F0BD00BF04930010C5
:10072000E8920010749800109198001056980010EC
:10073000014B1B68184700BFD0000020014B186018
:10074000704700BFD000002030B5044685B00D468C
:1007500010220021684608F0F5FC02238DF80230D3
:10076000044B2A4621466846019303F04DFF05B02D
:1007700030BD00BF3107001007B51B491B4805F00D
:1007800057FA70BB1A49194805F052FA48BB194983
:10079000164805F04DFA20BB1749144805F048FAF1
:1007A000F8B90146154A114805F080FDC8B902465E
:1007B000012313490D4805F052FE90B9012301466B
:1007C0000093EF220223094805F040F948B9074891
:1007D00005F065F928B9054803B05DF804EB05F0AC
:1007E0008EB903B000BD00BF480100204C060020B8
:1007F000300100201801002000010020D40000205A
:10080000A698001008B50348034A0021121A05F003
:100810008BF808BDE0060020C0100020074808B58E
:10082000074A0849121A05F081F8BDE80840064851
:10083000064A0749121A05F079B800BF00000020E7
:10084000E00600202C9E0010000000200000002088
:100850002C9E001038B505460C4699B1D1E901230C
:100860000F48096804F02FFED4E90423E1680D481D
:1008700004F029FEE1690C4804F025FEA1690B484B
:1008800004F021FE012D05D1EFF305810848103950
:1008900004F019FE21462846BDE8384002F036BB78
:1008A000BF980010EF9800101F9900102F990010AA
:1008B0005E99001030BFFFF7FDBF00BF10B5204CA0
:1008C000204804F000FEA36A990137D51E4804F0C1
:1008D000FAFD1E20A36ADA0103D51C4804F0F3FDDB
:1008E0001F20174CA36ADB0203D5194804F0EBFD67
:1008F0002020A36A1C0303D5164804F0E4FD212040
:100900000F4CA36A590303D5134804F0DCFD2220E1
:10091000A36A9A0303D5114804F0D5FD2320084C9F
:10092000A36ADB0303D50E4804F0CDFD2420A36A9F
:100930006FEA03436FEA1343A36210BD1D20C9E7AA
:1009400000ED00E0729900108B9900109F99001043
:10095000BA990010E5990010049A00102A9A001024
:10096000459A001070B5244C064624480D4604F004
:10097000AAFDA36AD90435D5214804F0A4FD1720A7
:10098000A36A1A0503D51F4804F09DFD18201A4CD0
:10099000A36A9B050FD51C4804F095FDA16BA36AC3
:1009A000180407D5194804F08EFD1EB1A36A23F47C
:1009B0000043A3621920104CA36A590503D51448BB
:1009C00004F081FD1A20A36ADA050DD5114804F060
:1009D0007AFD1B20084A936A43F47F439362002305
:1009E0002B7070BD1620CBE7A36A9B04F2D50A4892
:1009F00004F069FD1C20EDE700ED00E0719A0010A5
:100A0000889A00109A9A0010AE9A0010C89A0010A6
:100A1000DE9A0010FA9A0010139B001070B5264C55
:100A2000064626480D4604F04EFDA36AD80640D57A
:100A3000234804F048FD1120A36A190703D5214873
:100A400004F041FD12201C4CA36A9A070FD51E48E2
:100A500004F039FD616BA36A1B0607D51B4804F03F
:100A600032FD1EB1A36A23F08003A3621320124C4F
:100A7000A36ADE0703D5164804F025FD1420A36AF7
:100A80009C0603D5134804F01EFD15200A4B9A6AF4
:100A9000D10658BF9A6A9A6A920642BF5A6A22F4ED
:100AA00000525A629A6A42F0FF029A6200232B7047
:100AB00070BD1020C0E700BF00ED00E0439B0010B8
:100AC0005A9B00109A9A00108E9B0010A79B001052
:100AD000BE9B0010139B00102DE9F0415A4B0025DE
:100AE0005F688AB0C7F3080685F31188BFF36F8F7C
:100AF00002F07F43B3F17F4F06D1140717D550079B
:100B000013D4524804F0DFFC00252C464FF00008B7
:100B1000F31E8DF80780092B00F28680DFE803F0D2
:100B20000A7A7E768484848484820C46EEE70446C6
:100B30000125EBE74648444E04F0C5FC8DF80780DC
:100B4000F36A9A0704D5434804F0BDFC002326E06D
:100B5000F36A002B01DA4048F6E7F36A5B00F5D54B
:100B60003E4804F0B0FC7369A26943F4807373617A
:100B7000BFF34F8FBFF36F8F736932F8022C23F4EA
:100B800080737361BFF34F8FBFF36F8F4DF60273A6
:100B90009A4224D12168324804F095FC23689DF8DC
:100BA0000720CAB902AE04F1200732462068616806
:100BB000083403C2BC421646F7D1099A002D3FD033
:100BC000C2F3080121B96FEA52226FEA4222099268
:100BD000184602A9FFF73EFE0AB0BDE8F081B36AED
:100BE000DBB22BB101200DF10701FFF717FF0FE07A
:100BF000B36A13F47F4F05D001200DF10701FFF711
:100C0000B1FE05E0B36AB3F5803F9FD3FFF756FE10
:100C10000346C4E700200DF10701E6E700200DF1CF
:100C20000701ECE70F488FE70F4B17F4F87F0F49E8
:100C30000F4808BF1946A6F1100204F044FC85E7EE
:100C40006FF30802C3E700BF00ED00E00C9C00104A
:100C5000389C0010509C0010729C0010819C001069
:100C6000A19C0010BE9C0010DE9B0010F39B0010A6
:100C7000E39C0010044B5A6942F010025A615A6911
:100C800022F008025A61704700ED00E0EFF308809F
:100C9000EFF3098101B57246FFF71EFF01BD00BFEA
:100CA0000B4880F3088804F0C1FE102080F31188FF
:100CB00008484FF40061401880F30988EFF314806E
:100CC0000221084380F31488BFF36F8F00F05CF8B3
:100CD00000240020C01600201EF0040F0CBFEFF30C
:100CE0000880EFF30980816911F8021C0229FFD006
:100CF00001B5724604F01CFE01BD00BF40B20028E1
:100D000007DB01234109034A00F01F00834042F83A
:100D10002130704700E100E040B200280CDB0122E6
:100D20000649430900F01F008240203341F8232088
:100D3000BFF34F8FBFF36F8F704700BF00E100E03C
:100D400040B20028ACBF00F16040074B01F1010147
:100D50004FEA0111ABBF00F5614000F00F0080F8D1
:100D600000131954704700BF14ED00E0044B054A0E
:100D700023F07F039360BFF34F8FBFF36F8F7047F4
:100D80000000001000ED00E008B5FFF7EFFF0B4A90
:100D9000D2F8883023F47003C2F88830EFF314835C
:100DA00023F0040383F31488BFF36F8FFFF72AFD4A
:100DB000FFF734FD04F0E2FD02F06AF900ED00E017
:100DC00042F8203C009B0B4942F81C3C019B21F05F
:100DD000010142F8183C029B42F8081C42F8143CFE
:100DE0004FF0807342F8043C0023203A0265036709
:100DF000704700BFE15400100A4B00B50E4615467F
:100E000098602C4686F309880020044B98472046BA
:100E1000002100220023024C2047000055590010F9
:100E2000E1540010881000201022014B1A61704715
:100E300000ED00E0054B5A699B689A421FBF044AC7
:100E4000536843F080535360704700BF8810002000
:100E500000ED00E0084B9B6883420BD1EFF3058364
:100E600043B1064B5A6842F080525A605A6A22F4E3
:100E700000425A6203F05CB88810002000ED00E0E8
:100E80000F498A684FF030001044EFF3098C80E876
:100E9000F01F102080F31288BFF36F8F094F4FF0BF
:100EA00000664A698A603E60106F0023136780F312
:100EB000118802F1300090E8F01F8CF30988704728
:100EC0008810002004ED00E008B5EFF30583064A22
:100ED000103B02EBC30152F8330049688847BDE874
:100EE0000840FFF7A7BF00BF5893001008B5024B9A
:100EF0001B689847002008BD200B0020034B044AC4
:100F00001860937843F0020393707047200B002021
:100F10006001002008B5054804F0D5FA002383F3EA
:100F20001188BFF36F8F0423184602DFF79C00106F
:100F300008B50649064821F00701C1F1202202F553
:100F4000002204F01CFA002008BD00BF3F3700203B
:100F5000240B002070B541690446867A0A4D59B1C8
:100F6000437ADB0706D4242303FB0653DB691B68A3
:100F70009B689847002363612420214600FB0650AC
:100F8000BDE8704007F016BE280600202422024B60
:100F900002FB0030704700BF280600202DE9FF4DFE
:100FA0000546684692469B46039108F000F8DDE945
:100FB0000067EFF31188102383F31288BFF36F8F5C
:100FC0006B8A002B41D02A8A9A4225D9002200231D
:100FD000284602F0A1FA0446F0B188F31188BFF365
:100FE0006F8F039B002B41D032463B46684608F08A
:100FF00003F82421A27A264B204601FB0233DB6949
:1010000003A91B681D68DDE90023A847606170BB68
:101010002046FFF79FFF24E0698A4B1E6B8288F30E
:101020001188BFF36F8F2B7D2A8A2C6A1B3323F024
:101030000303521A02FB0344154B164AEB1A9B108A
:101040005343A3722B7DE372CBE788F31188BFF380
:101050006F8F52465B46284602F05EFA044600282F
:10106000BFD10024204604B0BDE8F08D63610123A8
:1010700000252381039B29466382E27A656004F19F
:10108000180008F05FF863692582E360EAE700BFB3
:1010900028060020398EE33870B524250C4C00B9A1
:1010A00070BD037A002BFBD0013BDBB246680372B4
:1010B000002BF5D1C3604360837A05FB03439B6932
:1010C00013B198473046EAE7FFF744FFFAE700BF5D
:1010D000280600202DE9F04F0446087E0D4630F02A
:1010E0008006174691B040F06E847AB10846FFF74B
:1010F000D3FF6B7ED80703D499070FD52B7E6BB92E
:10110000204611B0BDE8F04F04F051BE4B7E9A0767
:1011100012D5802806D12846FFF7BEFF304611B011
:10112000BDE8F08F04F1280850B9DA075ED52B8AA4
:10113000082B2FD0284639E0990704F12808F3D16D
:101140005B0740F1C2800028E5D02846FFF7A4FFE6
:1011500094F83930002BE1D094F82930052B05D1D3
:10116000618DA069C9B204F055FE074694F8293094
:10117000032B0AD1638D022B07D1A18D0022A06918
:10118000C1F3072104F026FE074600233E4684F8FB
:101190003930C3E7EA6829461368C8F80030536855
:1011A000C8F8043004F006FC054610B1FFF774FFE0
:1011B0008BE0404604F0CEFDE28D70B9B2B1294615
:1011C000A06906F0F2F90146002800F0F7832046F6
:1011D00011B0BDE8F04F05F0A2BA3AB11146204671
:1011E00005F098FA0546002800F0E88304F0D5FBE6
:1011F0000023036094F8283013F0600F1E46C3F3F9
:10120000411207D0032A40F0C08104F0C6FB6FF002
:10121000850336E0404604F09DFD94F8293000280F
:1012200040F05C81013B0A2BEFD801A252F823F079
:10123000BF1300100B1200103F1400100B1200100F
:101240005D1200100B1200100B1200100B12001098
:10125000111300100B12001079130010618D7F29FB
:10126000D3D8A38D002BD0D1E38D002BCDD1F306A5
:10127000CBD194F83030022B05D104F08EFB4FF027
:10128000FF33036040E0A069036993F880301E07D4
:101290002FD5C9B204F0BEFD064668B304F07DFB4D
:1012A00003681BB104F079FB04F077FB002E40F0DB
:1012B000998304F072FB0368002B40F0888304F0EC
:1012C0006CFB0368002B00F04983404604F042FDAC
:1012D0000346A069002B40F07483E38D002B00F0DF
:1012E000708317F10C0118BF0121C90106F07BF8CA
:1012F00006E7012384F8393094F83030012B05D10A
:10130000638D1BB984F830300026C7E70123F9E765
:10131000204604F096FB628D0146FF2A3FF675AF2A
:10132000E38D002B7FF471AF94F82830D8067FF45A
:101330006CAF94F83030002B9FD02AB12046D2B247
:1013400004F061FF002898D0618D94F838308B420A
:10135000DAD02046C9B204F05DFF064600289DD1D0
:10136000628D0521824214BF02230123204684F8A6
:10137000303005F060FAC7E706F01F06012E7FF453
:1013800044AFE38D002B7FF440AF628DFF2A3FF620
:101390003CAFA18DFF293FF638AF94F83030022BD7
:1013A0007FF46BAF2046D2B2C9B205F037F9831C87
:1013B00006467FF473AF04F0F0FA0660A4E7E38D0D
:1013C000002B7FF422AF94F83030002B3FF455AF60
:1013D000012BA18D02D100297FF44FAF16F01F061B
:1013E00019D0022E90D1638D002B8DD15FFA81F937
:1013F00004F0D3FA49460646204605F000FA30606C
:1014000004F0CBFA0368013313D00022494620468A
:1014100004F0A7FC78E700297FF42FAF638D012B40
:101420007FF472AF94F86C3061F3C30384F86C30CE
:101430006AE704F0B2FA0668002EE6D02EE7E38DE4
:10144000002B7FF4E2AE638DA18D022B5FFA81F950
:1014500011D106F01F0659EA06067FF4D6AE012226
:10146000A069090A04F0B6FC00287FF4CEAE01237F
:1014700084F8393048E794F83020002A3FF4FDAE74
:10148000012A02D100297FF4F8AE16F01F0614D00D
:10149000022E7FF439AF002B7FF436AF04F07DFAD3
:1014A00049460646204605F096F9306004F075FA84
:1014B000036801330CD00122A8E700297FF4DDAED8
:1014C000012B7FF421AF94F86C3043F00803ADE7B3
:1014D00004F063FA0668002EEDD0DFE60A2B3FF633
:1014E00094AE01A252F823F0151500100B12001053
:1014F0000B1200100B1200100B1200100B12001038
:10150000871500100B120010DF1800100B120010CE
:1015100009190010E38D022B7FF477AE94F8303078
:10152000002B3FF4AAAE012BA18D02D100297FF43C
:10153000A4AE16F01F060ED0022E18D0002605F11C
:101540000C0004F0FFFBE38D984216D204F025FA5C
:101550006FF00B0395E600297FF48FAE94F86C30A2
:101560009E0806F00206C3F300131E43E7E7204679
:10157000C9B205F053F90646E1E7314605F10C0022
:1015800004F03BFAC0E6F00605D02946204604F0F8
:101590005AFC064682E6638DDEB21B0A013B0E2B27
:1015A0003FF633AE01A252F823F000BFE915001058
:1015B00027160010C51600100B1200100B12001099
:1015C000EF170010EF1700100B1200100B12001095
:1015D0000B1200100B1200100B1200100B12001057
:1015E0000B120010F717001005F10C09484604F023
:1015F000A9FB82462046E68D04F023FA20B101289B
:101600007FF403AE616F00E0216F002900F0A38139
:10161000564528BF56460A784846B24228BF324649
:1016200004F0DAF970E6204604F00BFA721C014669
:101630000090D2B2204604F0C0FD064600283FF4D8
:10164000E4AD05F10C09D0F804A0484604F07AFB9B
:101650009AF800205146824228BF0246484604F0CC
:10166000BBF9D6F80CB0BBF1000F21D0DBF80400B9
:101670008268126B12B9DBF800B0F4E7009990476A
:101680000028F8D0A0F1040A5AF8041F0029F2D06B
:101690000E78002EEFD04846019104F053FBB04283
:1016A00034BF82B232464846019904F095F9EBE71F
:1016B000298AE38D99427FF627AE4846C91A04F07D
:1016C000A6F921E632460321204604F097FA824625
:1016D00000283FF49AAD04F02FFBB4F82E909AF84E
:1016E0001530C8B99AF814608DF821308DF8206053
:1016F000DAF8103005F10C001B88ADF8223004F048
:1017000021FBB1454A4628BF3246824228BF0246E5
:1017100008A905F10C0083E74FF0000B8DF80D30A0
:101720009AF809308DF80CB0032B4FD19AF80A3093
:1017300099074BD510210DEB010006F0DFFD061EC9
:10174000FFF663AD08A9102E8A4628BF1026A748C9
:1017500004AA5E452AD8B6000236F6B28DF80C60AF
:1017600005F10C0B584604F0EDFA4E4528BF4E46E5
:10177000864228BF0646022EB14628BF4FF0020916
:101780004A46A6EB0906D146584603A904F024F9B7
:1017900073080AEB56024A451FD1F2077FF5B4AD34
:1017A00058461AF8031004F020F9ADE512F8013B91
:1017B0000BF1010B4FEA131C10F80CC003F00F03E0
:1017C000C35C01F802CB01F8013CC2E79AF814604F
:1017D000DAF810A08DF80C60C2E7584619F8011B22
:1017E000CDE9002304F009F9DDE90023D3E7204621
:1017F00004F027F909E5204604F023F920B1012877
:101800007FF403AD636F00E0236F002B00F0A38033
:101810005B88B3F5007F7FF6F8AC754B04F14C0A9A
:10182000089300238DF82430E36C9A4554D105F1D8
:101830000C09484604F086FABDF82260E38D08A939
:101840009E4228BF1E46864228BF0646052EB34646
:1018500028BF4FF0050B48465A4604F0BDF8B6EBDA
:101860000B063FF451ADD4F84CB0D3453FF44CAD2A
:10187000BBF1000F3FF448AD9BF815300F2B12D190
:101880009BF814204846B24228BF3246DBF81010BD
:1018900004F0A2F89BF81430B34294BFF61AB61BBA
:1018A000002E3FF431AD236D9B453FF42DADDBF8A9
:1018B00000B0DDE75A7D0F2A0AD11A7DBDF822104B
:1018C0000A44ADF822209DF8242001328DF824200E
:1018D000226D9342ABD01B68002BEBD1A7E794F8A5
:1018E0003030002B3FF4C9ACE38D012B7FF48DAC7D
:1018F00005F10C0004F026FA00283FF427AE94F816
:10190000381005F10C004EE706F01F06012E7FF49B
:10191000B4AC204604F065FC00283FF4AEACA68DC4
:10192000FF2E3FF672AC43681B79B342FFF46DACF7
:10193000F3B20F2B3FF669ACE38D012B7FF465AC5E
:1019400005F10C0004F0FEF900283FF4FFADA319E7
:1019500093F83A10D5E76FF015069FE4E38D3BB995
:10196000204604F00EFA00287FF4AFACFFF7C8BBA6
:10197000404604F0EFF918B92846FFF78DFBEFE772
:101980002946204604F0CBFE00287FF4D3ABA069A3
:10199000036993F8801011F004017FF4B1AB05F0F6
:1019A00018FE054600283FF490AC0146204604F09E
:1019B000B6FE00283FF4A4ABFFF7BCBB6FF00B07EB
:1019C00083E4802192E46FF00406FFF7A7BB002DAB
:1019D0003FF475AC2846FFF75FFB002E3FF46FAC79
:1019E000FFF79CBB002DF5D1FFF798BBFB9D0010C6
:1019F000050F05000B7810B4062B14D10369D3F83A
:101A00009C20EFF31184102383F31288BFF36F8FB0
:101A100000204B681860506A58B9C2E9083384F353
:101A20001188BFF36F8F002210BC0023024807F01B
:101A30001AB803605362F2E7FC0500202DE9FF416C
:101A400010264FF0FF334FF0FF325B4801A901F041
:101A50003FFC039B1B69D3F89C40236A93B1EFF3CF
:101A6000118286F31288BFF36F8F216A29B1606AF1
:101A70000B688142236208BF636282F31188BFF35F
:101A80006F8FC9B99DF80430062BDAD0072BD8D850
:101A900001A252F823F000BFEB1A0010DF1A001069
:101AA0000B1B0010F11A00102F1B0010251B00103B
:101AB000431A0010B31B00100B7E20465D06D1F8C0
:101AC0001E2009D1FFF706FB02460028C5D00721DA
:101AD000204604F0B0FEC0E704F07EFCF4E70022EC
:101AE0000121204604F0A7FEABE700221146F8E7EB
:101AF00094F86C3001A943F00403204684F86C305C
:101B000004F002FA00220321EBE794F86C3001A9FB
:101B100023F00403204684F86C3004F0F5F9002229
:101B20000221DEE7204601A904F0EEF989E794F8E6
:101B30006C30A76923F0040384F86C30D7F8088070
:101B40003B69A033D3E8AF3F9A072FD53846D8F882
:101B50003C309847D8F8243000213846984705464D
:101B6000D8F8403038469847ADB92946204604F0A9
:101B700051FB054678B9A06905F04AFD831E58421D
:101B8000584194F86C3084F8305023F0680343EAED
:101B9000401384F86C3000220421204604F04BFEF0
:101BA000002D3FF44EAF2A4607219AE74FF0FF354C
:101BB000F1E70621029A94E7FC05002030B589B0D0
:101BC000002200230024CDE906236FF007034FF421
:101BD0008062CDE90334CDE90144154B15490094E9
:101BE000154801F027FF1549134807F06AF8144B10
:101BF00014498B4207D30020134B14498B420CD35A
:101C0000002009B030BD03F11402D2E8EF0FC2E8A2
:101C1000E54F002DF9D11833EBE703F11402D2E8B8
:101C2000EF4FC2E8E50F002DF9D11833E6E700BF0A
:101C30003D1A0010C0100020E0060020009D00109A
:101C4000C8060020E0060020E0060020E006002094
:101C500038B5024605460949806905F036FD044657
:101C600048B985F83800284604F0A5F9044610B1B3
:101C7000A86905F055FD204638BD00BFF5190010D4
:101C800070B50646074C084DAC4202D300242046EE
:101C900070BD636830461968FEF7E8FC0028F6D08E
:101CA0001834F1E7C8060020E006002070B50646AB
:101CB000EFF31181102383F31288BFF36F8F1B4D55
:101CC0002A6881F31188BFF36F8F526892F86C20F5
:101CD000D20705D4BDE870400A22002301F07ABE85
:101CE000EFF3118283F31288BFF36F8F2C682CB14E
:101CF000696823688C422B6008BF6B6082F311888F
:101D0000BFF36F8F44B1606804F10801C36998475D
:101D10002146074806F058FE2B6833B13046BDE82F
:101D200070400022002301F021BE70BD300B002066
:101D3000CC05002030B585B0CDE900120546002263
:101D40000023144803A901F031FA0246E0B9DDE9A5
:101D50000001039BC3E902015D60EFF311801023D2
:101D600083F31288BFF36F8F039B1A600A4A51688E
:101D700061B9C2E9003380F31188BFF36F8F00228D
:101D80000023064801F0F2FD05B030BD0B60536042
:101D9000F1E700BFCC050020300B00200000002040
:101DA00073B5102504698DF80710EFF3118685F3DC
:101DB0001288BFF36F8F0122E06B0DF1070103F072
:101DC00071FD86F31188BFF36F8F01280CD006F0E8
:101DD00072FF88B101220C4BD3E8EF1F002903D119
:101DE000C3E8E02F0028F7D10A22002304F14800BD
:101DF00001F0BCFD02B070BDA37E002BEAD0002133
:101E00000A2006F0F5FFD0E7380B002038B5002493
:101E100005690E49EB6B05F14800C3E90144DC603C
:101E20006B6BC3E90144DC6006F03AFF05F1780012
:101E3000074906F00AFF074905F1240006F005FFEF
:101E4000284604F01BFD204638BD00BFEB6A001099
:101E5000356E00107F6D0010F8B514468668054693
:101E6000F36B0F4698472146002200230548FFF7F1
:101E700095F8044600B107762846336C984720460B
:101E8000F8BD00BF2806002030B5036989B00446BC
:101E9000D3F8A45000220023CDE906236FF00703F6
:101EA0000122CDE9033200230090CDE901334FF444
:101EB00000722846054B064901F0BCFD2168284602
:101EC00009B0BDE8304006F0FCBE00BF7F7E0010C8
:101ED000C01400202DE9F74346680746D6E90059AB
:101EE000D6E90C01D6F828808368DB68002B44D043
:101EF00098470446E8B901464FF48C72284607F02B
:101F000021F94FF480522146484607F01BF9092376
:101F10006B67B8F1000F01D10C23AB67002240239F
:101F200011460092384605F0CFF9024628B16FF00D
:101F30000404204603B0BDE8F083009040238021D4
:101F4000384605F0C1F904460028F0D14FF000539F
:101F5000EB640B4BC5F890302B6DDB0707D54FF4C6
:101F600080327B681B684C3343F400531A600123B2
:101F70002B643846F3699847DBE76FF05704D8E7DE
:101F8000F0FB01002DE9F04F436802691E68D3F8A9
:101F90002880D6F898500446AB04D2F8A47085B0D7
:101FA00018D5326DB8F1000F0CD012F0011209D122
:101FB0004FF4803106F14C0343F440531960012182
:101FC00005F0B0F84FF4803263681B68503343F477
:101FD00040531A60290519D5336DB8F1000F0ED0A2
:101FE000DA070CD54FF48032636820461B684C3307
:101FF00043F400531A600022114605F093F80122C1
:1020000063681B68503343F440531A60B64B2B404F
:102010004BB197F88C3133B100220221204687F86A
:102020008C2105F07FF82B0414D54FF400624FF09B
:102030000008636841461B682046503343F4405310
:102040001A6087F88C8105F016F842460221204676
:1020500005F068F86F040FD51022636801211B6832
:102060002046503343F440531A6005F004F8002230
:102070000321204605F056F8E8040DD54FF4002260
:10208000636804211B682046503343F440531A60B0
:102090000022326005F046F8A90607D54FF000424D
:1020A00063681B68503343F440531A606A060DD5C9
:1020B0004FF00062636807211B682046503343F4E9
:1020C00040531A606FF0150205F02CF82B060DD561
:1020D0004FF08062636807211B682046503343F449
:1020E00040531A606FF0150205F01CF8EF050DD58E
:1020F0004FF00072636807211B682046503343F499
:1021000040531A606FF0150205F00CF8AE050DD5BE
:102110004FF08072636807211B682046503343F4F8
:1021200040531A606FF0150204F0FCFFE80641D43A
:10213000E90340F1F1804FF40032636820461B68E8
:102140008021503343F440531A602369D3F8A450DC
:1021500063685E6805F0DDFC2046002105F0D9FCCF
:102160000121336805F1780085F88D311A0A1B0CBE
:1021700085F88F311B0A85F88E2185F890317368B8
:1021800085F891311A0A1B0C85F893311B0A85F8E2
:10219000922185F894312369D3F8A43083F8101183
:1021A0002369D3F8A43083F8901005B0BDE8F04F50
:1021B00005F0F9BB002663681B6853F8588F43F499
:1021C00040530393B8F1000F05D1B1E728FA06F3A5
:1021D000DA0703D40136202EF8D1A9E70123B34052
:1021E0000193019A039B4FEA56091A60F307C6F35D
:1021F000470155D523692046D3F8A430029304F053
:1022000051FF23698346D3F8A4A004F07EFF07465C
:1022100050B96FF068020721204604F083FF019B4C
:10222000013628EA0308CDE7636809F110025B680C
:10223000018A03EBC203428A5B68521AC168406993
:10224000C3F30903091A521A02999A4201EBC90110
:1022500028BF1A46D1F88C1007F10C00029303F046
:10226000BBFBF96878697A8A091A521A398A8A4254
:102270000BD0BBF81A20029BC2F30A02934204D18E
:102280005946204605F0AEFBC9E749460AF18800E9
:1022900005F08BFB04210AF1780005F084FBBEE712
:1022A00041F080073946204604F0FCFE236982464F
:1022B000D3F8A49004F029FF83460028A9D06368CE
:1022C00027F080075B68103753F837100C30C1F3E4
:1022D000090103F0A3FBBBF810303BB1524659464D
:1022E000204605F0ABFC9AE710000100584604F0C8
:1022F00010FF40B152465946204605F09FFC584613
:1023000004F00BFF8BE7394609F1880005F04DFB1F
:10231000042109F17800C0E705B0BDE8F08F00BFE7
:102320000B2936D8DFE801F0060606060F1B243518
:102330002A2A3A3A0C22514303681A4A5B58C3F3DB
:102340004313D0567047184B1A6B1B6B13F00303E3
:1023500022D0022B22D0C2F34313144AF1E7124ACF
:10236000D36BD26B92071BD0114AC3F34313E8E738
:102370000D4B104A9B6CC3F34313E2E70C23594304
:1023800001F1804101F580310B680B4AC3F343131F
:10239000D7E74FF0FF3070470E2070470C20704792
:1023A00004207047229E0010000001401F9E001074
:1023B000199E0010129E00100C9E00102DE9F04195
:1023C00007460C467D68214628463E6905F07CFE9E
:1023D00000286ED00E2C6CD8DFE804F00B0B0B0B32
:1023E0000B0B2D6B0B0B3333086569003248BDE8CE
:1023F000F081214628462E68FFF792FF01463846B5
:10240000FFF7DCFF0C2303FB046305465E68586896
:1024100080B2FDF743FF2949FEF74CF80446300C23
:10242000FDF73CFF01462046FDF788FE01462846A1
:10243000FEF740F8DBE706212846FFF771FF044668
:10244000C0E72146D5E9023628460A2C08BF1E46B9
:10245000FFF766FF01463846FFF7B0FF0446B06855
:10246000FDF71CFF2146FDF771FFD6F800800446FA
:1024700008F03F00FDF712FF01462046FEF71AF86C
:10248000F7680446C7F30240FDF708FF01462046FF
:10249000FEF710F8F5680446C5F30230FDF7FEFEBE
:1024A00001462046C4E73068FDF7F8FE9FE77068F4
:1024B000FAE700209BE700BF001B374B00FF7F4778
:1024C0004FF08072074BDA61A3F54053DA69D2010D
:1024D00002D56FF0150070470160D86910F0807068
:1024E000F7D1704700B00E402DE9F04F8FB005AA2C
:1024F00093464468A36825680393E368D4F8108082
:102500000493674B03F1200716461868596808338F
:1025100003C6BB423246F7D11B88624A3380624B06
:102520001A60624A624B1360A2F54052966833EA21
:102530000606FBD13746F8B20C21013706F026F922
:10254000062FF8D10023C5F8843000F025FC594B44
:10255000DA6B22F00302DA635A6C012AFCD11A6B9F
:1025600022F003021A639A6B012AFCD127460DF16F
:102570000C0904F1200A7B6AFA694F4900933B6A0F
:102580004A4359F8040BB969103700F0ABFB5745C3
:10259000F1D11121584605F0DAFD1BF816001BF9A0
:1025A0001610092863D90136112EF6D14FF40063B5
:1025B00005F540521360D36005F5405205F54055CE
:1025C00093616B62D4F8D81008F1180041F42A61C5
:1025D000FFF776FF002855D1D4F8DC10404641F4CF
:1025E0007A0141F43041FFF76BFF00284AD1D4F85B
:1025F000E01000294BD01F294CD801F52A4108F1E1
:102600001400FFF75DFF00283CD1B4F8E41008F196
:10261000040041F0164141F41601FFF751FF88BB59
:10262000B4F8E61008F1080041F0164141F4160133
:10263000FFF746FF30BB6FF060421C4B1A60A3F5FA
:1026400040539D68ED4335F06045FAD129466069F5
:1026500002AA05F06FFE00281FDB029B2A461979AB
:10266000186805F079FE002817DB00200CE004EB69
:1026700001110B6C00934B6CD1E90E1206F05DF862
:10268000002890D16FF015000FB0BDE8F08F4AF62A
:102690000121B4E74FF42A41B1E7831CE5D0F3E709
:1026A000489600107F3BEFEF0020024000300240D0
:1026B000F6FFF30300000140001BB70008B5074810
:1026C00006F0E8F838B10648FEF718FC0448FEF7B3
:1026D00035F8002008BD6FF01200FBE7E89200100B
:1026E000E52600100A2838B50446074D04D1AB682A
:1026F0000D2128465B689847AB6803485B68E1B2E8
:102700009847204638BD00BFE89200104FF0504374
:10271000084A1968084B002918BF134630331A4677
:10272000106820B90432D11A1429F9D97047012050
:10273000704700BF908202404882024070B50D464B
:102740001446B2B91146284600F06EFB2C4B03EB41
:10275000850253F8253002F5805183F0800303F0A1
:10276000C0030B604FF4807302F500521360002029
:1027700070BD0669C2F340122846C4F3001100F090
:1027800053FB0521284600F033FB14F480311BD0A5
:102790004FF0000343EC4450A303E8D50122A00707
:1027A000F36802FA05F11BD50B436007F360336948
:1027B0000ED50B4333614FF0000343EC4050C4F39C
:1027C000804444EC4450D2E7284600F07DFBE3E728
:1027D00023EA0103336142EC4050C4F3C044F0E704
:1027E00023EA0103F36014F4002304D042EC4050C8
:1027F00042EC4450BBE76103FAD543EC4050F7E7A5
:10280000048003404FF050432DE9F0471B4F1A68F6
:102810001B4B8046002A18BF1F460024D0F810909A
:10282000DFF860A0E30803F10C0257F8221004F06F
:1028300007029200D140090704D10134302CF1D1B4
:10284000BDE8F0870F218C3301FA02F24AF8232009
:10285000D9F804100029F0D001260D68A6400029FF
:10286000EBD08A68324002D040464B6898471DB191
:102870002B6829461D46F2E72B46FAE748820240BC
:102880009082024000800240054B186801238B4073
:10289000034214BF0123002300201370704700BFC0
:1028A000000002400123024A8B4000201360704761
:1028B00000200240012303FA01F1044B1960A3F543
:1028C0004053986831EA0000FBD170470030024065
:1028D000012303FA01F1064B196003F580531960D7
:1028E000A3F54053986831EA0000FBD1704700BF60
:1028F000002002402DE9F84FD0F81080064698F8E5
:1029000008300F469246002B40F08A80D0F80490A1
:10291000D9F800B05AB1DBF8303023F00103CBF81E
:10292000303043681A68D36A23F01003D3623B79CE
:10293000DBF82C40012B24F0EE0405D0022B13D041
:1029400023B16FF0850054E044F002047B79012B41
:1029500003D0032BF5D144F00804BB79032BF0D846
:10296000DFE803F00705111444F00604EEE744F035
:102970002004FB796BB1012BE3D173681A68136BE8
:1029800043F440430AE044F04004F2E744F06004BA
:10299000EFE773681A68136B23F440430025136351
:1029A000D8F80C103A682B4612018801890EFDF701
:1029B00043FEDFF874C0B0F1400361F100029C45B2
:1029C00075EB020229D3736882091B6842EA8162AF
:1029D00000F03F005A629862BFF35F8F2846DA6AC0
:1029E000DA62CBF82C403B68C8F800307B68C8F846
:1029F0000430BAF1000F0ED099F81C302BB973686F
:102A00001A68D36A43F01003D36273681A68136BB1
:102A100043F001031363BDE8F88F6FF01500E8E79A
:102A20006FF08500F7E700BF80FF3F004FF0E02325
:102A30000D4A9969126818699B69002908BF1146F7
:102A4000002B08BF134610F4803F084801D199427B
:102A500005D20168114401604FF0E0210969006866
:102A60001044C01A704700BF5C0F0020580F0020B0
:102A70001022094B002083F8232043F69822074BAD
:102A80001A60074B43F6972218604FF0E0235A6113
:102A9000072298611A61704700ED00E05C0F00208A
:102AA000580F0020684620F007018D4619B5FFF742
:102AB000BDFF1449144B0868D3E90042001942F1E4
:102AC0000002C3E9000200230B6043F698230F4A7B
:102AD000D2E90041001BB0FBF3F043431B1941F165
:102AE0000001C2E90031EFF31181102383F3128852
:102AF000BFF36F8F01F00EFCFEF79CF9BDE81940A3
:102B000085467047580F0020F8080020F008002084
:102B10002DE9F041374E89B1421C0AD14FF0E02235
:102B2000136923F0010313614FF07F433360BDE865
:102B3000F0813568012806DC00240AE0431C356872
:102B4000F8D140F25D4040F25E439842A8BF18467B
:102B5000441EEFF31187102383F31288BFF36F8FA6
:102B6000FFF764FF4FF0E0232349D3F818C0D1E901
:102B7000002380184FF0000243F10003C1E9000375
:102B80001E4B1A601E4B1A68831A2DD443F6982EDA
:102B900043F6972814FB0E841C44B4FBFEF4131A6E
:102BA0000EFB0433B3F5806F38BF4FF48063154AD2
:102BB000934228BF13464FF0E0223360013B9469F3
:102BC00053610023A4459361ACEB0400D1E90032CA
:102BD0000DD20544EB1842F10002C1E9003287F33F
:102BE0001188BFF36F8FA2E74FF48063E3E7C31848
:102BF000F1E700BF5C0F0020F8080020580F00200C
:102C0000F008002038A9FF0038B5EFF31185102334
:102C100083F31288BFF36F8F084B1C68084B1B6847
:102C2000E41AFFF703FF85F31188BFF36F8F43F6B4
:102C300098232044B0FBF3F038BD00BFF808002013
:102C4000F0080020F0B50C24444304F1804404F55E
:102C500080346568059E071FB542FFB238BF6660C5
:102C6000012F04F5405528D8012926D14FF0030C37
:102C7000C5F800C0A568ED07FCD5256804F5805CA3
:102C800085EA421505F0E005012FCCF800500AD87E
:102C900022684A4002F00302CCF8002001228A4058
:102CA000A1681142FCD04FF4006104F5005211609C
:102CB0000B4A666042F82030F0BD4FF4006CC5F856
:102CC00000C0074D55F820C0BCF1000FD5D06D698C
:102CD000B5FBFCF5013505EB4505033DFDD2CCE721
:102CE000600F002070B5264D264E5519B542049C44
:102CF00001D902F04FFE244DB5FBF1F5B2FBF5F220
:102D0000A2F11005B5F5987FF3D85D1E062DF0D819
:102D1000651E062DEDD8240344EA03430468002C05
:102D20000EDA046804F03F048C4209D18468C4F3CD
:102D30000B04944204D1C46804F4EE249C421DD0D8
:102D4000124D0124A84214BF0E250F25AC40104D92
:102D5000104E2C6005F580552C60B56834EA0505E9
:102D6000FBD101602121826000F5405204321160E4
:102D700001680029FCDAC3600823136070BD00BF3E
:102D800080E84BD380F8A932001BB70000800540D3
:102D900000200240000002404FF42A62054B064921
:102DA0001A604FF48D72DA60044A11605A68002A82
:102DB000FCDA70470080044000B0FA0000A0044034
:102DC00030B5C40800F0070080008140074804F1D6
:102DD0008C0540F8251003EB84031AB103F500536A
:102DE000196030BD03F54053FAE700BF0080024090
:102DF00010B50C4B03EB800253F8203002F58054E1
:102E000083F0400303F0C00323604FF48073C000DD
:102E100000F1804000F5203002F54052416013601F
:102E200010BD00BF0480034010B5074CC90004EB7F
:102E3000800354F8200041EA8201414001F00C0176
:102E400003F58053196010BD04800340054B03EB6C
:102E50008000022319B100F500500360704700F5AF
:102E60004050FAE704800340054A02EB800352F821
:102E7000202003F58053514001F001011960704793
:102E800004800340064B03EB800253F8203002F528
:102E9000805283EA011303F030031360704700BFD0
:102EA000048003404FF0504310B4DFF814C01C6896
:102EB000044B002C08BF634610BCFFF781BF00BF66
:102EC0004882024090820240054B03EB8000402381
:102ED00019B100F500500360704700F54050FAE763
:102EE000048003404FF0E022044BD2F8881D0B43CE
:102EF000C2F8883D10EE3004704700BF0303300075
:102F0000014B9868683070478810002038B5EFF39F
:102F10001185102383F31288BFF36F8F064B9C68D3
:102F200005F0CBFC85F31188BFF36F8F2046BDE819
:102F30003840FDF78FBF00BF8810002038B50A4B1E
:102F400053F82040013053F82050A54200D838BD36
:102F5000606830B1037EDB0701D405F083FC0834E0
:102F6000F3E723689847FAE730980010012270B51C
:102F7000284B86B003201A70FFF7E0FF01F092FAA9
:102F80000420FFF7DBFF244C244DAC4226460FD330
:102F900000F004FF204CAC4226D300F013FFFDF7F5
:102FA0006FFB1F4A938923F00103938106B070BD24
:102FB000636A3034059354F8103C049354F8143C7D
:102FC000039354F8183C029354F81C3C019354F8B2
:102FD000203C009354E90A2354E90C0100F000FD61
:102FE00054F8303C5E65D0E7D4E90A23B3F1FF3FE3
:102FF00008BFB2F1FF3F05D052EA0301206803D1B8
:1030000005F00FFF3034C6E70649183001F0F0F83C
:10301000F8E700BFBD100020F8940010F8940010ED
:10302000780900207F8D0010782370B5134E01229F
:1030300003FB0066002386B0CDE904230F22019331
:10304000CDE9023214234FF4A0720D4D0D4903FB5C
:103050000055044602FB00110B4B3046009500F072
:10306000BFFC337C2C7423F004033374074B01340E
:1030700003EBC423EE606B6006B070BD0009002056
:1030800088100020C01E0020378A0010C0160020C3
:103090007FB50020FFF752FF224B83F308880024FE
:1030A000F023214D85F82230EC772C766C76AC76C7
:1030B0006B6A43F4E0236B62FDF7DCFDFDF7B4FEC1
:1030C0004FF0FF331948AB62EB6200F0DFFC0120E8
:1030D000FFF734FF0220164DFFF730FF00F09CFE93
:1030E000144B4FF480625D61134B14490593012327
:1030F0002846CDE90343CDE90144114B009400F08B
:103100006FFC06462B7C284623F004032B7405F045
:1031100013FE2046FFF788FF31462846084AFDF790
:103120006BFE00BFC01E002000ED00E0F009002093
:1031300078090020881000206F9D001000200020DA
:103140006D2F001038B5064C064DAC4201D300205F
:1031500038BD2046D4E9011205F0F2FB1434F4E73F
:10316000E8050020FC05002030B5054B85B0DDE901
:1031700008450293CDE9004505F0A2FB05B030BD3E
:103180007B52001038B5074C074DAC4201D30020EC
:1031900038BD204605F0F6FB08B91C34F5E76FF0A2
:1031A0001500F5E7CC050020E805002073B50D46B5
:1031B000EFF31181102484F31288BFF36F8FC4687A
:1031C0005CB12C602368C360836901338361002094
:1031D00081F31188BFF36F8F11E052EA030603D128
:1031E0006FF00B002C60F3E7CDE9002302460830B6
:1031F00000F030FD18B9034B9B685B692B6002B08F
:1032000070BD00BF88100020F7B50D4604469DF83C
:103210002010EFF31187102080F31288BFF36F8F17
:10322000266AE06886423FD22668B44219D0C6B109
:10323000304605F00BFC06F1180005F080FE29462B
:10324000002554F8082F706905F06EFF3046756749
:1032500005F072FD2046394605F0A1FD284603B071
:10326000F0BDA268A9B12946E06905F05DFFE369F8
:10327000A26813446269E361934201D12369E36167
:103280000020236A0133236287F31188BFF36F8F15
:10329000E5E7A06923692946984208BF6069801A5A
:1032A000A06105F041FFEBE752EA03010BD00749AB
:1032B00004F1080089684D61CDE9002339462246B2
:1032C00000F0C8FCCBE76FF02200DDE7881000209B
:1032D000F7B504460846EFF31186102181F31288F2
:1032E000BFF36F8F216A00293AD0A268A16905F067
:1032F0001BFFA369A268256813446269A361934216
:1033000004BF2369A361236AAC4203F1FF33236244
:1033100035D02846002D33D0002705F097FB05F166
:10332000180005F00CFE6969A268E06905F0FCFE72
:10333000E369A268284613446269E361934204BFCB
:103340002369E361236A013323626F6705F0F4FCAC
:1033500004F10800314605F022FD384603B0F0BD07
:1033600052EA030111D00A4989684861CDE9002376
:103370003146224604F1080000F06CFCEEE7002024
:1033800086F31188BFF36F8FE8E76FF02200F7E74D
:10339000881000202DE9F341044690461F46EFF3C4
:1033A0001186102383F31288BFF36F8F304BC568EB
:1033B000996875B18068884217D052EA070316D120
:1033C00086F31188BFF36F8F6FF00F0002B0BDE876
:1033D000F08191F90E3001352361C4E9021586F3BD
:1033E0001188BFF36F8F0020F0E72369F3E791F9AD
:1033F0000E1090F90E30994230DA9942A8BF194662
:1034000005F038FB054622463146CDE900871948CC
:1034100000F020FC0028E6D0EFF31186102383F3A0
:103420001288BFF36F8FA068D0B1236821699C42D6
:103430000AD04BB193F90E309942A8BF19466FF0EC
:103440007F039942B8BF194605F014FB40B13146DD
:10345000084805F0A4FC6FF00A00B7E70025D2E7A2
:10346000002DF4D186F31188BFF36F8FF3E700BF0F
:1034700088100020BE100020F8B583680546002B98
:103480003FD0234A926893423ED1C368012B03D9AF
:10349000013BC3600020F8BDEFF31187102383F3D5
:1034A0001288BFF36F8F0169806805F0E3FA2C681A
:1034B000A54207D10023C5E9023387F31188BFF382
:1034C0006F8FE7E7002CF5D0D4E9003200261360B7
:1034D0005A60237CC4E9006623F002032374A660CB
:1034E00004F1180005F02BFDAC6094F90E30204675
:1034F0002B61666705F020FC3946064805F04FFC55
:10350000C8E76FF01500C6E74FF0FF30C3E700BF14
:1035100088100020BE10002037B5EFF31185102170
:1035200081F31288BFF36F8F04689CB123684268EF
:1035300023F003039442036008BF43600121204647
:1035400005F01AFB044685F31188BFF36F8F204600
:1035500003B030BD52EA0301F5D00830CDE90023B5
:103560002946024600F076FB0028F0D1014B9B680B
:103570005C69ECE78810002070B5EFF3118610232A
:1035800083F31288BFF36F8F0468A0421AD0CCB1C6
:10359000D4E90032002513605A60237CC4E9005549
:1035A00023F002032374A56004F1180005F0C7FCA2
:1035B0002046656705F0C0FB3146BDE8704007480E
:1035C00005F0EDBBD0E902329A4218BF01338360A7
:1035D00086F31188BFF36F8F70BD00BFBE1000204F
:1035E00013B5EFF31181102484F31288BFF36F8FAA
:1035F000846844B1013C846081F31188BFF36F8F0C
:10360000002002B010BD52EA030406D181F31188F4
:10361000BFF36F8F6FF00F00F3E7CDE90023024691
:10362000014800F017FBECE7BE10002070B505461E
:10363000EFF31186102383F31288BFF36F8F0023FB
:103640002C68A54218D0BCB1D4E9003213605A608E
:103650000023227CC4E9003322F002022274A3601A
:1036600004F1180005F06BFC6FF00A032046636755
:1036700005F062FB0123E3E70022AA6023B986F389
:103680001188BFF36F8F70BD3146BDE870400148AF
:1036900005F085BBBE1000202DE9FF41054610272F
:1036A000504EEFF3118887F31288BFF36F8FEC6FE2
:1036B000D5F89430F4B923F004025807C5F89420E3
:1036C000C3F380016AD50022012105F18C0005F0C9
:1036D000C8FB0028F7D100234FF0FF3202934FF0D0
:1036E000FF334146CDE900233F4805F1840200F055
:1036F000BFFCD6E7D5F8801022688C4243F0020365
:10370000EA6708BFC5F88020C5F89430E36823F065
:10371000040343F00103E360636888F31188BFF397
:103720006F8F20469847EFF3118887F31288BFF315
:103730006F8FE368D90623F001023AD4E260E368B0
:103740009A0716D5306823F00203E36088B10021A0
:10375000036870B14268944239D1036889BB7268CA
:103760003360904200D17360002340F8083BFFF7BC
:1037700003FFD5F8943023F00203C5F89430DB053D
:103780002DD4EB6F003B18BF012388F31188BFF3E2
:103790006F8F002B85D000F047FB82E7D0069AD5CB
:1037A000C5F8941088F31188BFF36F8F04B0BDE89B
:1037B000F08123F01103E36004F11000FFF7DCFE59
:1037C000BDE70B607368984208BF7160CCE70146A3
:1037D0001BB11A6818461346BBE71A46FAE70023DE
:1037E000D3E700BFA8100020BE100020F8B5C568C0
:1037F0000446AB070F4643D46E0736D40B680BB9AB
:1038000083680B60237BD80742BFA36802253B6017
:103810003E6858BF01255EB31C4B9A68B36F9A424D
:103820001DD105F048FA80F00100C0B2D6F89430FE
:10383000D90720D55A0721D510B300232360D6F825
:10384000803073B9C6E91F44304605F0C0F9E3681B
:1038500043F00403E3603B68A3602846F8BD002002
:10386000E4E71C60C6F88040EEE7C5F3400509E0D8
:103870006FF0150506E06FF0120503E01B07DCD5BD
:103880006FF00F0500233B60E7E700BF88100020C2
:103890000146014805F0F4B9880A0020F0B5044655
:1038A000002089B00E9DC4E91F0004F18400C4E922
:1038B000210004F18C00C4E923004DB328790028CD
:1038C00040F2011008BF0120C4F8940000204FF01E
:1038D000FF364FF0FF37CDE90330CDE90100CDE9E8
:1038E000066720460B4B009400F0A4F855B12968F8
:1038F00011B1204605F0E5F96B791BB1A38943F0BE
:103900000103A381204605F08CFAA46709B0F0BD3D
:103910000120D9E79936001037B501900846EFF33A
:103920001184102181F31288BFF36F8FC16811F0E9
:103930001E0F16D153EA020508D101A9FFF756FF61
:1039400084F31188BFF36F8F03B030BD41F00801DD
:10395000C160019910308161034900F049FC0120E8
:10396000EEE70020ECE700BFFF8B001001460148A6
:10397000FFF7D2BF880A0020F7B50C4616461D4651
:103980000190EFF31187102383F31288BFF36F8F39
:10399000084605F023F955EA060309D1204601A996
:1039A000FFF724FF87F31188BFF36F8F03B0F0BDDB
:1039B000E168019B41F00801E160A36232462B46B9
:1039C000034904F1100000F013FC0120EAE700BFF6
:1039D000FF8B001001460148FFF7CEBF880A002088
:1039E0007FB50C9E00F1580586810426C0E9165566
:1039F00000250446067407320B9E22F007028673E8
:103A00008E180A9AC0E906558560C5730292099A14
:103A10000192089A00923246FDF7D2F9044B65658F
:103A20009B6803B1DB6E3046E36604B070BD00BF37
:103A300088100020F0B5002787B00597109FDDE9BA
:103A4000126504970F9F044603970E9F02970D9FE0
:103A500001970C9F0097FFF7C3FFB5F1FF3F08BF29
:103A6000B6F1FF3F05D055EA060305D1204605F023
:103A7000D8F9204607B0F0BD32462B4604F11800B5
:103A8000014900F0B5FBF4E77F8D001001230374BA
:103A900083810023C366014B986070478810002023
:103AA0006FF00A01084A93685967084918674B681C
:103AB00043F080534B60002383F31188BFF36F8F73
:103AC0009368586F704700BF8810002000ED00E039
:103AD00070B5037C13F09F0F2DD11C4C63F07F0356
:103AE0002246037452F8183F934225D1E169C0E998
:103AF00000210860E0610FE08B42F8D01B68002BCA
:103B0000F5D093F90E6090F90E50AE42F4DD59688D
:103B1000C0E9003108605860A569954200D005B938
:103B2000E568A3681A7CD20608D1DA897F2A05D90C
:103B3000AA691AB9636170BDE169E0E7AB4202D0DE
:103B4000284600F0D7FA6561F5E700BF881000202D
:103B500038B590F910200146002A037C04DA03F0FE
:103B60007F03037405F0B0F80D4D2A4652F8184F44
:103B7000AB68944200D004B9EC688B4207D01A7C41
:103B8000D20604D1DA897F2A01D9A2692AB1A342D7
:103B900002D0204600F0AEFA23466B6138BD00BF6C
:103BA00088100020B3F1FF3F08BFB2F1FF3F03D000
:103BB0000249183000F01CBB704700BF7F8D001019
:103BC000034648B9EFF3058232B9064A5169926853
:103BD000914201D0FFF764BF83F31188BFF36F8F69
:103BE000704700BF8810002038B5184CA168E06904
:103BF0000B68814214BF1A46002249680B60596065
:103C0000A368E1692AB9124AC3E900210B60E361A4
:103C10000AE092F90E5093F90E00854212DD5168C8
:103C2000C3E900210B605360A569094B9D4200D098
:103C300005B9E568A3689D4202D0284600F05AFA0B
:103C4000656138BD8A42DED01268DBE7881000204B
:103C5000A0100020F8B5DDE906670D4B0D46986809
:103C60000C490860EFF31181102181F31288BFF332
:103C70006F8F9C681146204605F038F82046324682
:103C80003B46FFF78FFF2846BDE8F840FFF708BF27
:103C900088100020B0100020F8B50446EFF311871B
:103CA000102383F31288BFF36F8F037C49B203F0B4
:103CB0001F02B2FA82F676092AB39B0706D48173F3
:103CC00087F31188BFF36F8F3046F8BD856804F025
:103CD000FBFF81732B689D4200D02BB96B68C4E950
:103CE00000531C606C60EBE793F90E208A4204DC01
:103CF0006A689342F2D01B68EFE75A68C4E9003261
:103D000014605C60DCE703F07F03194D037404F07A
:103D1000DBFF2A46037C817363F07F03037452F850
:103D2000183FE86993421AD1C4E900200460EC61AD
:103D3000AC69944209D1EC68AB689C4201D16C61DA
:103D4000BEE7204600F0D6F9F9E7002CF4D1F2E7FF
:103D500093F90EC08C4505DC8342E5D01B68002B2F
:103D6000F6D1E1E75968C4E900310C605C60DFE737
:103D700088100020034648B9EFF3058232B9064A9D
:103D800051699268914201D0FFF78ABE83F311888E
:103D9000BFF36F8F704700BF88100020EFF31181D1
:103DA000102383F31288BFF36F8F054B9A68D37B80
:103DB000013BD37381F31188BFF36F8F704700BF4E
:103DC0008810002070B5EFF31186102383F312885A
:103DD000BFF36F8F0F4DAB68DA7B0132DA732A467F
:103DE00052F8184F944200D004B9EC681A7CD206FD
:103DF00004D1DA897F2A01D9A2692AB19C4202D072
:103E0000204600F077F923466B613046BDE87040EC
:103E1000FFF7D6BE88100020024B03F11802C3E959
:103E2000062270478810002070B5EFF3118610232A
:103E300083F31288BFF36F8F1A4CA168E0690B6897
:103E4000814214BF1A46002249680B605960A3687A
:103E5000E1692AB9144AC3E900210B60E3610AE071
:103E600092F90E5093F90E00854216DD5168C3E9B0
:103E700000210B605360A5690B4B9D4200D005B932
:103E8000E568A3689D4202D0284600F033F96561D9
:103E90003046BDE87040FFF703BE8A42DAD01268B0
:103EA000D7E700BF88100020A0100020F8B550EA26
:103EB000010306460C4603D1FFF7B6FF0020F8BD0C
:103EC000EFF31187102383F31288BFF36F8F124D26
:103ED000124BA8681860FFF73BFEA86823463246DD
:103EE0000F49183000F084F9AA680446137C38465C
:103EF00043F004031374FFF7D3FDAB68D3E90A233F
:103F0000B3F1004F08BF002AD8D105F04CF8201AB1
:103F100020EAE070D3E700BF88100020B010002036
:103F20007F8D0010014B9868704700BF88100020FB
:103F30002DE9F84304468789EFF31186102383F3B4
:103F40001288BFF36F8F037C190705D586F311889C
:103F5000BFF36F8FBDE8F883D90907F0010743F07D
:103F600008026FD10274A36813B1204604F0B4FEB6
:103F700004F1180004F0E3FFA56D04F15808A8450A
:103F800011D04FF0000975B1284604F0A5FE05F1E7
:103F9000180004F0D4FF2846C5F87490FFF798FD88
:103FA000A56DA845EFD1DFF8BC80D8F808309C4259
:103FB00050D1EFF30589B9F1000918BF4FF001099D
:103FC000D8F81850284A954200D00DB9D8F80C50AE
:103FD000AB4202D0284600F08DF82046C8F81450B5
:103FE00001F0B5FCB9F1000F02D02048FFF74EFDFB
:103FF000D8F808309C4230D1EFF305836BBB227BAD
:10400000D20711D586F31188BFF36F8F83F3118820
:10401000BFF36F8F0423184602DFEFF311861023DE
:1040200083F31288BFF36F8F3046FFF739FD002FFF
:1040300090D0002383F31188BFF36F8F04231846B9
:1040400002DF87E703F07F0343F00803037404F003
:104050003BFE88E74FF00009B2E786F31188BFF313
:104060006F8FE4E788100020A0100020F0090020E6
:10407000D3B5DDE90667089CCDE90067FFF7EAFDE7
:104080001CB1034B9B685B69236002B0D0BD00BFCD
:1040900088100020027C12F01F0211D10A4B9842B6
:1040A0000ED00A4B1B684BB1C1897F290AD8084A38
:1040B00090F90E1012689142B8BF0023184670475D
:1040C0000023FBE71346F9E700090020280300203E
:1040D000B41000200122044BC01A044BC0105843F6
:1040E000034B1A54704700BF680A0020ABAAAAAA63
:1040F000BE10002070B50C4B0C4C1E7CFFF7CAFFA5
:10410000182303FB06440546204604F018FF00224E
:10411000074B9A553DB16A1E2046BDE870400549DF
:10412000D31700F065B870BD88100020680A002021
:10413000BE100020D540001038B5EFF311851023D4
:1041400083F31288BFF36F8F0F4B104A9C6810687F
:10415000A04206D1FFF7CEFF85F31188BFF36F8F22
:1041600038BD00211B7C1160094AD35C002BF3D0C1
:104170002046FFF78FFF0028EED0237CDB0601D11D
:10418000FFF732FD2046E5E788100020B010002040
:10419000BE100020024B1868984208BF00207047EC
:1041A0002C030020034B1B680BB9FEF72DBD00202C
:1041B000704700BFB810002030B570B10B4B5B6882
:1041C00098420AD0036843B1D3E90421D0E90445F9
:1041D000121941EB0501C3E90421D0E90032136053
:1041E0005A600023C0E9003330BD00BF2C0300201B
:1041F000B3F1FF3F08BFB2F1FF3F2DE9F84F05468D
:10420000994614461F467BD08160EFF31188102336
:1042100083F31288BFF36F8FB9F1000FDFF8E8A0C6
:104220003BDADAE900126FF001035B1A4FF0FF315D
:1042300061EB02021B1B62EB0902012B72F1000110
:10424000BCBF012300224FF00009C0E90432FFF790
:10425000A1FF0346DFF8B4A0DAF804E083BBC5E9A8
:1042600000AECEF80050CAF80450FFF793FF854225
:104270000BD1274B1B6843B9B9F1000F3CD0304636
:1042800004F047FE0021FEF743FC88F31188BFF3DA
:104290006F8F20463946BDE8F88FFFF783FFDAE9D4
:1042A0000027013449F10009241849EBE073C5E9FE
:1042B0000443A41806464FF0010943EB0707C6E77D
:1042C000D3E90420D5E9041C91427CEB000B08DB08
:1042D000891A6CEB00007345C5E90410BFD01B6858
:1042E000BCE7521A60EB0C00C3E904205A68C5E928
:1042F000003215605D60B8E7FFF754FF0646BEE781
:1043000000242746C5E700BF800A00202C030020B8
:10431000B81000202DE9F047DFF8A8900246C9F850
:1043200000000D46FFF736FF00260027DFF89880D3
:104330004FEAE27ED8E9001350B1D0E9044CA24222
:104340007EEB0C0A1ADAA41A6CEB0E06C0E90446DE
:104350000024521843EB0E032046C8E90023C9F895
:10436000004004F0D6FD2146FEF7D2FB85F311880C
:10437000BFF36F8FBDE8F047FFF7DEBE611843EB78
:10438000E473C0E90467C8E90013FFF715FF0122D1
:104390004FF00043C0E9042385F31188BFF36F8F0A
:1043A00083689847EFF31185102383F31288BFF3D6
:1043B0006F8FD9F80020121BC9F80020FFF7EAFE22
:1043C000B6E700BFB8100020800A002010B5EFF358
:1043D0001184102383F31288BFF36F8FFFF7E2FE7F
:1043E000054AD2E90031C31841EBE07184F311882A
:1043F000BFF36F8F184610BD800A002073B50446C6
:10440000EFF31186102383F31288BFF36F8F836855
:10441000594003EA0205114000224B40009309492C
:104420006B46019204F03FFDDDE9003223EA02030E
:1044300004F10C003146A36004F0B1FC284602B040
:1044400070BD00BFBF900010F8B507460C46164679
:1044500004F031FC08B10020F8BD0D4B9B68DD6E07
:10446000002DF8D0221DF6D2EFF31184102383F330
:104470001288BFF36F8F284647F00401B04784F3DA
:104480001188BFF36F8F0028E5D040F8045BE3E7A5
:10449000881000200146024A0020FFF7D5BF00BF68
:1044A00075520010014801F00EB800BF749D001055
:1044B00007B5064B4FF48062009305494FF0FF3378
:1044C0000448FFF7EBF9002003B000BD4898001046
:1044D00000240020880A00202DE9F0410127BA427B
:1044E00001DCBDE8F081064633461C781E46002CF0
:1044F000F7D0252C03F10103F7D11D780236252DC5
:10450000F2D00024A4462346DFF8F8801F2B31D8D0
:10451000A5F1200EBEF1100F06D828FA0EFE1EF0EF
:10452000010F64D12E2D46D02E2D31D8242D3DD013
:104530002A2D40D0BCF1000FD3D0BC45D4D145F0DA
:104540002006A6F1650CBCF1020F0C680AD9612E99
:1045500008D0692D02D050D8632D50D01D064ED5FD
:104560009B054CD5E31D23F0070303F108040C6001
:104570000137B4E77F2BD5D96C2D23D01DD8682DFA
:104580002BD06A2D01D04C2DD4D143F4207322E0DE
:10459000A5F1300EBEF1090FEED80A2303FB04E4A7
:1045A000202316F8015B002DB0D1C3E7BCF1000F4A
:1045B0001FD0BC421FD00024F3E7742DF1D07A2D18
:1045C000EFD0B7E743F4007513F0800FADB218BF1A
:1045D0002B4643F080039BB2E3E743F4007513F4EA
:1045E000807FADB218BF2B4643F48073F3E70023FE
:1045F000D7E7A446DFE76325A1E7732DADE70434D1
:10460000B5E700BF892801002DE9F04F8378814686
:1046100099B09807CDE9031216D5D9F804300025D2
:1046200001930B460792187880B1252815D00133E5
:1046300002934946019B984700280BDA99F802300B
:1046400043F0040389F802304FF0FF35284619B0D3
:10465000BDE8F08F0135029BE5E793F801809A1CD5
:10466000B8F1250F0292E4D04FF0000B5E465F4692
:104670005C461F2C24D8A8F12003102B22D8DFE899
:1046800003F01621211C2121210C212121142119A3
:104690002121090044F00104A4B2029B13F8018B0C
:1046A0000293B8F1000FE4D116E044F0020444F0A4
:1046B0000404F1E744F00804EEE744F01004EBE7EB
:1046C0007F2C78D8B8F12E0F59D035D8B8F1240FF7
:1046D0005BD0B8F12A0F40D0BBF1000F06D0049B8D
:1046E0005A46039807A90793FFF7F6FE48F0200300
:1046F000002EA3F16502BCBF002624F04004022A6C
:1047000002D9612B40F089800726079BDFF8588289
:10471000073323F0070308330793200740F1C480D1
:10472000444608EB060B5C4540F0C080A5EB08084A
:1047300004EB0802BF1BBDE1A8F13003092B3AD8F6
:1047400014F0400F4FF00A0202D002FB0636A4E735
:1047500002FB073744F020049EE7BBF1000F9CD119
:10476000079B610603F10402079201D51E6894E7D6
:104770001F68002FEEDA7F4244F028048CE76306BE
:104780003FF564AF44F0400486E7BBF1000F3FD033
:10479000049B14F040080CBF3A463246039807A920
:1047A0000793FFF799FE079B1A1D0792B8F1000FB8
:1047B000DCD11F6871E7B8F16C0F15D00BD8B8F1D8
:1047C000680F1BD0B8F16A0F02D0B8F14C0F83D13B
:1047D00044F4207460E7B8F1740F3FF45EAFB8F1B1
:1047E0007A0F3FF45AAF77E744F4007314F0800F68
:1047F0009BB218BF1C4644F080044DE744F400739C
:1048000014F4807F9BB218BF1C4644F4807443E7C5
:104810005E46BB46344637463FE7A8F16302122A9C
:1048200000F2DB80DFE812F013004B00D900D90062
:10483000D900D9004B00D900D900D900D900D9003E
:10484000F200D300D900D9001D00D900A400079BB5
:1048500001261A1D07921B680DF120088DF82030E3
:104860005BE7079B1A1D0792D3F800803F4BB8F116
:10487000000F08BF984614F0400F14BF31464FF0A8
:10488000FF31404604F066FC064646E749462020D4
:10489000019B98470028FFF6D1AE013CA642F5D314
:1048A0003D442D1B27463BE73C46F7E7494614F8B5
:1048B000010B019B98470028BFF635AFBEE62106E5
:1048C000079B2ED5A20527D5073323F0070303F155
:1048D00008020792D3E90001002924F0100B30DA16
:1048E000404261EB41014BF4806B0A2308AC224645
:1048F00004F03CFC1BF0400FA0EB040200F09D8094
:1049000096422BF0010440F3A280B8F1000F40F072
:10491000A0802BF011041EE01A1D07921868C11721
:10492000DAE71A1D0792E005196801D40846F6E790
:10493000A2054BBF48B208B241F3C01141F3C031E8
:10494000CAE750EA0103D0D16306CED5002ECCD100
:10495000324624F01104B24640F20641214089B2A9
:10496000002971D127E000BFC19D0010BA9D001041
:104970000A2324F0100414F0800C079A4CD014F48D
:10498000007115BF0732101D22F00702079017BFF4
:1049900002F1080110680791D2E9000150EA010212
:1049A00047D1620624F0160B45D5002E43D132467E
:1049B000B24624F01704230762D4E10705D5574512
:1049C0007BDDA7EB0A03BA469E18D34651E01023BD
:1049D0004FF0780844F01004CDE7782B04D1C8F1EB
:1049E000780343F01003C6E7622B13D04946252015
:1049F000019B98470028FFF621AE49464046019B9F
:104A000098470028FFF61AAE023524E608234FF037
:104A10000008B0E70223AEE7111D079114F480717E
:104A20001068BBD014F400711ABF6146C0B280B2E6
:104A3000B4E724F0060B08AC59E792465C46E10661
:104A40008AD5B8F1000F06D10AF1010AB3E7924600
:104A5000F5E7B246F3E70AF1020AACE7494620203F
:104A6000019B059298470028FFF6E8AD059A0BF1E7
:104A7000010B5F45F2DCA5EB0A03DA4603EB0B05FD
:104A8000E30627D549463020019B05929847002828
:104A9000FFF6D4AD059AB8F1000F10D101352E44C0
:104AA000711B8A422EDB144608AE002C35D12A44F5
:104AB000A7EB0A071546174442E0164685E7494624
:104AC0004046019B059298470028FFF6B7AD023596
:104AD000059AE4E740F20641214089B20029DED080
:104AE00014F0020F14BF2B20202014F4806F18BF85
:104AF0002D204946019B059298470028FFF69EAD60
:104B00000135E5E749463020019B0592984700288A
:104B1000FFF694AD059A0135C2E7013C4946305D88
:104B2000019B059298470028059ABEDA86E549461A
:104B30002020019B9847002805F10105FFF67EAD76
:104B40007B1B002BF3DC86E52DE9F0470646174674
:104B50000846089AB4460D46002B4CD18F42BE46FB
:104B600063D9B7FA87F149B1C1F120038D4007FA43
:104B700001FE06FA01FC26FA03F31D434FEA1E4626
:104B80001FFA8EF04FEA1C43B5FBF6F406FB1455F2
:104B900043EA054304FB00F59D4206D91EEB0303DF
:104BA00002D29D4200F24A81013C5B1B1FFA8CFC41
:104BB000B3FBF6F506FB153305FB00F04CEA034C9E
:104BC00060450AD91EEB0C0C2CBF01230023604565
:104BD00002D9002B00F03581013DACEB000C45EA19
:104BE0000440002422B12CFA01F30021C2E9003173
:104BF0002146BDE8F0878B4207D90AB1C2E90061BE
:104C0000002420462146BDE8F087B3FA83F4002C47
:104C10004DD18B42C0F00581B74240F2028120465F
:104C2000002AE5D0C2E900C5E2E7002F00F0A48029
:104C30001946B7FA87F3002B40F0B680C31B1FFA62
:104C40008EF83F0C01244FEA1C40B3FBF7F507FB3D
:104C5000153340EA034308FB05F098420AD91EEBDE
:104C600003032CBF01260026984202D9002E00F033
:104C7000E280013D1B1A1FFA8CFCB3FBF7F007FB27
:104C800010334CEA034C08FB00F363450AD91EEBD2
:104C90000C0C2CBF01260026634502D9002E00F023
:104CA000C7800138ACEB030C40EA05409AE7C4F139
:104CB0002005A34006FA04FAA14027FA05FCE840C3
:104CC00007FA04F94CEA030C26FA05F34FEA1C46EE
:104CD00043EA01081FFA8CFE4FEA1841B0FBF6F7D1
:104CE00006FB170041EA004107FB0EF088420AD993
:104CF0001CEB01012CBF01230023884202D9002BA9
:104D000000F0B080013F091A1FFA88F3B1FBF6F0FA
:104D100006FB101100FB0EFE43EA01439E450AD933
:104D20001CEB03032CBF012100219E4502D9002961
:104D300000F09B80013840EA0740A3EB0E03A0FB84
:104D400009E18B427646884602D307D1F24505D267
:104D5000BEEB090661EB0C010138884652B1BAEB93
:104D6000060163EB080303FA05F5E140E3400D4358
:104D7000C2E9005300243BE77308B8464908B94626
:104D800043EAC0734FEAC67C1C0C9BB244EA014460
:104D900043EA0443B4FBF7F4B1FBF7F51F21A3EB9F
:104DA000090344EA05444EE7194607FA03FEC3F136
:104DB000200300FA01F44FEA1E47D84026FA03F315
:104DC0001FFA8EF806FA01FC2343B0FBF7F51C0C22
:104DD00007FB150044EA004005FB08F4844247D96C
:104DE0001EEB00002CBF01260026844200D97EB3B2
:104DF000001B013DB0FBF7F4A24604FB08F907FBDA
:104E00001A009BB243EA00434B45C8D21EEB030392
:104E10002CBF012000204B4500D2A8B10AF1FF347D
:104E2000BDE7B6EB070C60EB030301201D46F7E678
:104E3000F444023836E7023D73441BE7023C7344F6
:104E4000B3E6F444023DC8E6AAF102047344A6E7BF
:104E5000AEEB0404023D2044B0FBF7F4A24604FB91
:104E600008F9CCE7023F61444DE70238634462E74A
:104E7000001BB0FBF7F4A24604FB08F9BFE700BF34
:104E80007047836800EBC101B3F5004F2CBF51F8A8
:104E9000220031F81200704700EBC1018068B0F5C4
:104EA000004F2CBF41F8223021F812307047012208
:104EB00008B5FFF7E6FFD04008BD836800EBC101ED
:104EC000B3F5004F08D34B681AB143F001034B60B0
:104ED000704723F00103FAE74B881AB143F001034E
:104EE0004B80704723F00103FAE753000122FFF7DC
:104EF000D3BF08B58368B3F5004F06D3FFF7D7FFDC
:104F000001288CBF0020012008BD0020FCE7836839
:104F1000B3F5004F34BF04230823C91A081AC00888
:104F200070478368B3F5004F28BF0139B1FA81F0AB
:104F3000C0F11F0070472DE9F041904603220E4654
:104F40000446FFF79EFF8642054608F104070BD191
:104F50000122E36802FA08F223EA0203E360002375
:104F600044F82730BDE8F081314602222046FFF7A1
:104F700088FF06462B4601460322204644F8275068
:104F8000FFF78AFF334629462046BDE8F04102225A
:104F9000FFF782BF38B504460D46FFF7AAFF70B988
:104FA00029462046FFF783FF01462046FFF7B9FF59
:104FB000294602462046BDE83840FFF7BCBF38BD51
:104FC0002DE9F04705468A46FFF7ABFF05EB800960
:104FD000D9F81070064677B94FF0FF34EB68013608
:104FE000B4401C4015D094FAA4F2B2FA82F2131D18
:104FF00055F8234009E03C464FF003082146284677
:10500000FFF755FF504507D3324621462846FFF7A4
:1050100092FF2046BDE8F087214603222846FFF78D
:1050200030FFB8F101080446C9F81000D4D0874217
:10503000E4D1D1E72DE9F04114460F460546FFF7CC
:1050400036FF3E1B064439462846E21BFFF74DFF5C
:10505000324621462846FFF748FFE31B002221463F
:105060002846FFF719FF21462846FFF720FF334661
:10507000211800222846BDE8F041FFF70DBF2DE9B9
:10508000F041164604460F46FFF711FF314605462C
:105090002046FFF70CFF05442A4639462046FFF715
:1050A00024FF31462046FFF702FF2B46311800222D
:1050B0002046BDE8F041FFF7EFBE2DE9F041044680
:1050C0000D46FFF716FFC0BB29462046FFF7EFFE4F
:1050D00001462046FFF725FF04EB800216699EB9C2
:1050E000012303FA00F0E36829460343E360204606
:1050F00015612B460222FFF7CFFE032229462046E8
:10510000BDE8F041FFF7C8BE022231462046FFF756
:10511000B8FE0746034629462046FFF7BDFE032298
:10512000334629462046FFF7B7FE39462B46204630
:10513000FFF7B2FE02223146E1E7BDE8F08170B52B
:1051400000295CD0056801222846FFF7E0FE0146F1
:1051500004462846FFF795FE104006D180F31188DB
:10516000BFF36F8F0423184602DF21462846FFF75E
:105170009EFE2618314600222846FFF782FE361A88
:10518000B44206D082F31188BFF36F8F0423184610
:1051900002DF002221462846FFF78FFE2146FFF757
:1051A00086FE2618012231462846FFF76AFEC2070E
:1051B00008D431462846FFF7EDFE32462146284600
:1051C000FFF75DFF002221462846FFF75AFE261A08
:1051D000012231462846FFF754FEC30709D4314661
:1051E0002846FFF7D7FE224631462846FFF747FFFD
:1051F000344621462846BDE87040FFF75EBF70BDCB
:1052000070B509B9002070BD056801F00704AB68EE
:105210000734B3F5004F34BF042208221444E408D5
:1052200004EBD1049C4228BF1C4628462146FFF7C8
:10523000C7FE06460028E5D001462846FFF737FEA0
:10524000A04208D931462846A219FFF7F3FE2846A6
:10525000A119FFF732FF314628460122FFF72DFE44
:10526000AB68B3F5004F34BF0421082101EBC60140
:105270000844C8E71146FFF7C3BF2DE9F8434B4286
:10528000066803EA010731EA03031446B2680ED048
:10529000B2F5004F2CBF08230423BB4228BF3B4676
:1052A000B946CF1B94B900252846BDE8F883B2F56E
:1052B000004F34BF04230823994204D82146BDE897
:1052C000F843FFF79DBF4FF00009EBE7B2F5004F41
:1052D00034BF04250825FB1AE10804F0070001EBA0
:1052E000D301073003F0070303442B4401EBD30140
:1052F000914228BF11463046FFF762FE80460028E3
:10530000D1D0B36809EBC005B3F5004F34BF042317
:1053100008231D4435447B1E1D44B5FBF7F57D4332
:10532000A5EB090529463046FFF7F1FD2C4407346B
:1053300024F00704A41B804507464FEAE40408D282
:10534000024641463046FFF775FE41463046FFF7BC
:10535000B4FE39463046FFF7AAFD3844844208D2ED
:10536000394630462246FFF765FE21463046FFF7B4
:10537000A4FE012239463046FFF79FFD94E7B2F5BF
:10538000802F34BF042308232DE9F0410026D21AD0
:105390008D18CC1D24F0070425F007052D1BED0802
:1053A000046029462046A560E660FFF7BAFD82004A
:1053B00002F11B07FF083146043204F1100003F02C
:1053C000C1FE3A4631462046FFF78FFD334632464E
:1053D00031462046FFF760FD204631460122FFF7A7
:1053E0006CFD3946EA1BFFF780FD3B4632463946E5
:1053F0002046FFF751FD29462046FFF776FD32464D
:1054000029462046EB1BFFF747FD2946204601228F
:10541000FFF753FD3946BDE8F041FFF74EBE2DE9D9
:10542000F04105460E469046F9B103688B421ED303
:105430000024274658F82720AB689A4212D3D21A84
:105440002B791A412B689A420CD20121E86800F0AE
:1054500051F9002818BF04460137BE42EAD1204660
:10546000BDE8F0816FF00D04F6E70C46F7E76FF04A
:105470001504F4E7F7B505460E46174611B90020A6
:1054800003B0F0BD03688B4218D300240121E86803
:1054900001AA00F0C6F850B92B79019A9A40AB687E
:1054A0009B1804D047F824300134B442EED1A64210
:1054B000E5D93A4621462846FFF7B1FF6FF00B00C9
:1054C000DEE7002070470FB407B504A951F8040BBC
:1054D0000191FBF739F903B05DF804EB04B07047B4
:1054E000044608B5084611461A46A047FEF71AFDBD
:1054F000FBF7B0FC013A30B501F01F034C090A4438
:105500000121550902F01F02C26001FA02F2836014
:1055100001FA03F3511E5B420A43AC42036108BF28
:10552000134004604560426108BF036130BDF8B5B7
:105530000746DDE906041D46FFF7DCFFD0E900164B
:10554000BF686B4257F8212005695A40B14202EA10
:10555000050202D182B90120F8BD6AB957F82620A8
:1055600040695A4002400AD101318E42F3D957F8BE
:1055700021209342F8D05A401CB90020ECE7314674
:10558000FAE792FAA2F2B2FA82F202EB4112226038
:10559000F3E7F0B587B004460C981E4610B968468C
:1055A000FFF7A8FF01684768A568B94255F82120B0
:1055B000036908D126B11A4345F8212007B0F0BD90
:1055C00022EA0302F8E7B6B11A4345F82120416800
:1055D000A268456952F821302B4342F821304FF040
:1055E000FF310368013342689A42E7D9A26842F862
:1055F00023100133F7E722EA030245F82120A268CD
:105600004168456952F8213023EA050342F8213008
:105610000268436801329342D0D9A36843F82260FC
:10562000F7E72DE9F04F0546884616468BB0EFF3B5
:105630001187102383F31288BFF36F8F002A56D08F
:10564000002954D002688A4251D3202A0DD9002360
:10565000406898424FEA43142CD0A96851F82310AF
:10566000B1F1FF3F1DD10133F3E7806800230068EB
:1056700000F08EF8041E08DA6FF01B0087F3118823
:10568000BFF36F8F0BB0BDE8F08F0122A96802FA5B
:1056900008F20B68013AA24013430B60002034600B
:1056A000ECE7CB4393FAA3F3B3FA83F32344002943
:1056B00018BF1C46A2EB08090DF10C0B0DF1100AE6
:1056C0004C45D9D80023424621462846CDE900ABB7
:1056D000FFF72DFF40B10123424621462846CDF871
:1056E00000A0FFF756FFD9E7039C0134E8E76FF00D
:1056F0001500C3E72DE9F04307460C46164689B06E
:10570000EFF31185102383F31288BFF36F8F002905
:105710003BD003688B4238D3934236D94A1E324479
:10572000934232D9202B18D8012382688B40013B49
:1057300003FA06F1136803EA0100994308D06FF0F9
:105740000D0085F31188BFF36F8F09B0BDE8F083BA
:1057500023EA000313600020F3E74FF000080DF187
:1057600008090A4601233146CDF80480CDF800909F
:10577000FFF7DDFE0028E2D0434622463146384698
:10578000CDF80090FFF705FFE5E76FF01500D8E7CB
:105790002DE9F041012606FA02F4644204431F2A6F
:1057A00088BF04464FF0FF30E24384468646DAB1B4
:1057B000B2FA82F5C5F11F0806FA08F4013C9443D9
:1057C0001DBFB4FA84F4C4F11F07A8EB0705C5F1A7
:1057D00020051BBF0EFA07F7C4F12008A04622EAF5
:1057E00007048D4202D14046BDE8F0811BB18D42D5
:1057F000F9D82246DBE78D42FBD3AC4588BF404653
:10580000AC4588BFAC46F4E770B50D888C882D1B7D
:105810000469ADB22E1BB6B2A54228BF3546641B43
:10582000A4B2A34228BF23460068284410600A8817
:1058300018461A440A8070BD30B48389848805698B
:10584000E41AA4B22B1B934228BF134630BC0A466D
:10585000011DFFF7D9BF30B40D460146C48831F8A9
:105860000A3FE41AA3B2934228BF13462A4630BC2B
:10587000FFF7CABF10B54B880C88E41AA4B2944253
:105880000DD31A448B884A800A800069D21A92B2DA
:10589000824201D2002010BD03448B80FAE76FF0F2
:1058A0001500F8E72DE9F34180460E46154600271E
:1058B0002A46404601A9FFF7BFFF044640B1024611
:1058C0003146019803F030FC2D1B27442644EFD1CC
:1058D0003A46404608F10401FFF7CCFF384602B0D3
:1058E000BDE8F0812DE9F34180460E4615460027BC
:1058F0002A46404601A9FFF7AEFF044648B12EB143
:1059000002460199304603F00FFC26442D1B274424
:10591000EED13A46404608F10A01FFF7ABFF3846A0
:1059200002B0BDE8F081704703F00CBC03F0FCBB93
:1059300001460068FAF78EBF08B5FAF7BBFFBDE86D
:105940000840FBF777BA00210120FAF783BF6FF018
:105950008500704761B662B680F31188BFF36F8F20
:10596000704772B6002383F31188BFF36F8FBFF3C4
:105970004F8F30BF62B6BFF36F8F70470023102187
:1059800003F16042013302F56142342B82F80013C7
:10599000F6D1704708B5FBF7BDFAFDF7B1BAFBF7D2
:1059A000A5BA002303824369C3607047037A0133B9
:1059B0000372704710B508B14B68436000234C6810
:1059C00008464B60FBF768FB204610BD83880268E1
:1059D00019448180D018704730B484880568A318B2
:1059E0008380281930BC03F09FBB10B58388026800
:1059F0005C1C8480D154D01810BD30B583880268F7
:105A00009D1C8580D418D154090A617030BD8388EB
:105A10005B1A8380006810FA83F0704783885B1AF2
:105A2000838003681944016008467047FDF75ABA3D
:105A30004FF0FF324FF0FF330430FDF7ABBCFDF702
:105A40001BBD90F86C00C0F341107047F8B50546D7
:105A50001E460C461746FFF7EBFF95F86C309B0788
:105A600015D424B1012C10D06FF0150408E0296F73
:105A70000029F9D000249DF818300F714E718B71F8
:105A8000281DFFF7DCFF2046F8BD696FF0E76FF0D7
:105A90007704F5E790F86C00C0F38000704738B5E4
:105AA0000446FEF77BF92046FFF7C2FFA06940B924
:105AB0006FF01205201DFFF7C2FFFEF783F928469D
:105AC00038BD94F86C30DB0716D402F0E3FE0028F2
:105AD000EED02046FCF7BCF805460028EAD1014686
